:020000040800F2
:1000000000000220ADD50008FDD5000847C7000854
:10001000FDD50008FDD50008FDD500080000000052
:1000200000000000000000000000000039C20008CD
:10003000FDD500080000000081C2000891C300083F
:10004000FDD50008FDD50008FDD50008FDD5000848
:10005000FDD50008FDD5000813710008FDD5000886
:100060001D710008FDD50008FDD50008FDD500086C
:10007000FDD50008FDD50008FDD50008FDD5000818
:10008000FDD50008FDD50008C1C80008FDD5000851
:10009000FDD50008B9CF0008C9CF0008FDD500087C
:1000A000FDD50008FDD50008FDD50008FDD50008E8
:1000B000FDD50008FDD50008FDD50008FDD50008D8
:1000C000FDD50008FDD50008FDD50008FDD50008C8
:1000D000FDD500086DD500087DD500088DD5000838
:1000E000FDD50008FDD50008FDD50008FDD50008A8
:1000F000FDD50008FDD50008FDD50008DDC80008C5
:10010000FDD50008FDD50008FDD50008FDD5000887
:100110004DD500085DD5000825A60008FDD50008CE
:10012000FDD50008FDD50008FDD50008FDD5000867
:10013000FDD50008FDD50008FDD50008FDD5000857
:10014000FDD50008FDD50008FDD500080000000021
:10015000000000000000000000000000000000009F
:10016000000000000000000000000000FDD50008B5
:10017000FDD50008FDD50008FDD50008FDD5000817
:10018000FDD50008FDD50008FDD50008FDD5000807
:10019000FDD5000800000000D9CF0008E9CF000815
:1001A000F9CF000809D00008FDD500089DD500084A
:1001B000FDD50008FDD50008FDD50008FDD50008D7
:1001C000FDD50008FDD50008FDD50008FDD50008C7
:0801D000FDD50008FDD5000873
:1002000030B490F800F020F007016FF0000C10F00F
:10021000070491F820F040F048804FF000046FF0A0
:100220000700D1E9002391F840F000F1080082FABC
:100230004CF2A4FA8CF283FA4CF3A2FA8CF34BBB87
:10024000D1E9022382FA4CF200F10800A4FA8CF200
:1002500083FA4CF3A2FA8CF3E3B9D1E9042382FACE
:100260004CF200F10800A4FA8CF283FA4CF3A2FAE3
:100270008CF37BB9D1E9062301F1200182FA4CF21B
:1002800000F10800A4FA8CF283FA4CF3A2FA8CF382
:10029000002BC6D0002A04BF04301A4612BAB2FAA4
:1002A00082F200EBD20030BC7047D1E9002304F0A9
:1002B0000305C4F100004FEAC50514F0040F91F8DE
:1002C00040F00CFA05F562EA05021CBF63EA05037B
:1002D00062464FF00004AAE7830730B547D0541EAA
:1002E000002A3ED0CAB2034601E0013C39D303F8EC
:1002F000012B9D07F9D1032C2CD9CDB205EB052597
:100300000F2C05EB054535D9A4F1100222F00F0C96
:1003100003F1100EE6444FEA121C1A46C2E90055DA
:10032000C2E9025510327245F8D10CF1010214F005
:100330000C0F03EB021204F00F0C13D0ACF104030A
:1003400023F003030433134442F8045B9342FBD1CC
:100350000CF003042CB1C9B21C4403F8011BA342E6
:10036000FBD130BD64461346002CF4D1F9E70346B7
:100370001446C0E71A46A446E0E700BF014B1868E0
:10038000704700BF00000020844641EA000313F0DC
:1003900003036DD1403A41D351F8043B40F8043B8C
:1003A00051F8043B40F8043B51F8043B40F8043B4F
:1003B00051F8043B40F8043B51F8043B40F8043B3F
:1003C00051F8043B40F8043B51F8043B40F8043B2F
:1003D00051F8043B40F8043B51F8043B40F8043B1F
:1003E00051F8043B40F8043B51F8043B40F8043B0F
:1003F00051F8043B40F8043B51F8043B40F8043BFF
:1004000051F8043B40F8043B51F8043B40F8043BEE
:1004100051F8043B40F8043B403ABDD2303211D38E
:1004200051F8043B40F8043B51F8043B40F8043BCE
:1004300051F8043B40F8043B51F8043B40F8043BBE
:10044000103AEDD20C3205D351F8043B40F8043B8E
:10045000043AF9D2043208D0D2071CBF11F8013B8C
:1004600000F8013B01D30B8803806046704700BF52
:10047000082A13D38B078DD010F003038AD0C3F161
:100480000403D21ADB071CBF11F8013B00F8013B43
:1004900080D331F8023B20F8023B7BE7043AD9D302
:1004A000013A11F8013B00F8013BF9D20B780370D7
:1004B0004B7843708B78837060467047194B1B688C
:1004C00083422ED0416C70B5054681B100268C590F
:1004D0003CB121462468284603F068F8002CF8D186
:1004E000696C0436802EF2D1284603F05FF8A96BC0
:1004F00011B1284603F05AF82C6C34B12146246817
:10050000284603F053F8002CF8D1E96C11B12846C5
:1005100003F04CF86B6B1BB12846BDE870401847E0
:1005200070BD70470000002070B50F4B0F4DAB42FF
:10053000A3EB050607D0B610002455F8043B0134A0
:100540009847A642F9D80CF0FDF8094D094B5E1BFF
:10055000AB424FEAA60606D0002455F8043B01340E
:100560009847A642F9D870BD34DA000834DA00089A
:1005700034DA000834DA000800207047024A0349E0
:10058000034800F02FB900BF28010020A53700085C
:10059000080000200C4B4168994210B5044601D078
:1005A00003F000F9A168094B994202D0204603F0FC
:1005B000F9F8E168064B994204D02046BDE81040A6
:1005C00003F0F0B810BD00BF040D00206C0D00203A
:1005D000D40D0020002070472DE9F8432A4C2B4908
:1005E000DFF8BC90DFF8BC80294FC4F83811002533
:1005F00004230822294604F15C00264EE360C4E986
:100600000055C4E90455A5606566A561FFF764FE61
:10061000214B63670822294604F1C400C4E9074955
:10062000C4E90987C4E91A55C4E91E552567C4F809
:10063000CC50C4F88050E662FFF74EFE174BC4F86A
:10064000DC30294604F16803082204F59670C4F8EA
:100650008430C4E92298C4E92476C4E93455C4E955
:100660003855C4F8D850C4F83451C4F8E850FFF7EE
:1006700033FE04F1D003C4E93C98C4E93E76C4F8E3
:10068000EC30BDE8F88300BF040D00207D050008B4
:10069000B9380008DD380008090001001200020026
:1006A0005138000879380008F8B5254BD3F83831AF
:1006B0000646002B3CD0234FD7E90134013B04D53B
:1006C0001DE05A1C04F1680419D0B4F90C50013B28
:1006D000002DF6D11C4BE360C4E90155C4E9045573
:1006E00065662560A5610822294604F15C00FFF7D4
:1006F000F3FDC4E90C55C4E911552046F8BD3D6829
:100700000DB12F46D8E74FF4D671304601F00EFCFC
:10071000044680B10423C0E900530C302946A06090
:100720004FF4D0722546FFF7D7FD3C602F46C3E754
:10073000FFF752FFBFE70C2338603360DDE700BFEF
:10074000040D0020280100200100FFFF436B03B1CE
:100750007047044B044AD3F838314263002BF7D179
:100760003AE700BF040D002095050008704700BF60
:10077000704700BF024A0349002000F033B800BFB1
:100780002801002079050008024A0349002000F0F2
:1007900029B800BF28010020D50500080EB400B517
:1007A00082B003AB816853F8042B019300F03CF84E
:1007B00002B05DF804EB03B0704700BF0FB400B5A2
:1007C000074983B004AB086853F8042B8168019390
:1007D00000F02AF803B05DF804EB04B0704700BFE6
:1007E000000000202DE9F8430746884616464FF0E2
:1007F0000009D6E90154013D10D4A389012B08D981
:10080000B4F90E3001332146384602D0C04749EAD8
:100810000009013D6B1C04F16804EED13668002E1E
:10082000E7D14846BDE8F8832DE9F04FBFB01C463C
:100830000491914609930546089003F025FE03684C
:1008400010931846FFF7DCFC0F901DB16B6B002B6B
:1008500001F020800499B1F90C204B6E900405D46E
:1008600042F4005223F400538A814B669F0401F145
:100870003E81049AB2F90C301E0740F1DD80126906
:10088000002A00F0D98003F01A030A2B00F0E3805D
:100890009FED817B0023CDE92233CDE911338DED2E
:1008A0000C7B2EAA0E93219292460693CB469BF880
:1008B0000030002B00F064815C4604E014F8013F36
:1008C000002B00F04181252BF8D1B4EB0B0540F053
:1008D0003E812378002B00F053814FF000038DF808
:1008E000673000276378059704F1010B4FF0FF395B
:1008F0000BF1010B9846A8F12003582B00F24D8113
:10090000DFE813F083024B014B017E024B014B01E8
:100910004B014B014B014B01460278024B01510246
:1009200056024B01730259005900590059005900F1
:1009300059005900590059004B014B014B014B0123
:100940004B014B014B014B014B014B016800C601B0
:100950004B01C6014B014B014B014B01AE024B0158
:100960004B01B8004B014B014B014B014B01CE0039
:100970004B014B0152064B014B014B014B014B010B
:100980004B014B014B014B014B01A0026A00C60118
:10099000C601C6019B026A004B014B018E024B014E
:1009A000EA02BA00D902D4024B01B3024B01D000D3
:1009B0004B014B017206A8F1300300221BF8018B9A
:1009C00002EB820203EB4202A8F13003092BF5D9B6
:1009D000059290E747F01007BD0640F1B281099BF0
:1009E000073323F007031A46596852F8083B099267
:1009F0000A460029C0F2B781B9F1000F9DF867409F
:100A0000C0F2B88127F08001029153EA020140F060
:100A1000B0810121B9F1000F40F05383002940F06B
:100A2000F18417F00103079300F0318530238DF82E
:100A3000B7300DF1B70573E0049D0898294602F020
:100A4000F7FC002841F05380B5F90C3003F01A038D
:100A50000A2B7FF41DAF049BB3F90E30002BFFF679
:100A600017AF0499089823464A463FB0BDE8F04FB7
:100A700001F0FAB847F0100717F0200200F0528199
:100A8000099B073323F0070319465A6851F8083BBE
:100A90000991002114E000BF0000000000000000E8
:100AA00047F0100717F0200200F03281099B07334E
:100AB00023F0070319465A6851F8083B09910121B0
:100AC0000024B9F1000F8DF8674006DB27F08000A5
:100AD000029053EA02009DD0029F012900F04A8152
:100AE000022900F0F8822EAD03F00701DB0843EA8B
:100AF0004273D208303153EA0206284605F8011D38
:100B0000F2D1FB0740F1F582302900F0F282302368
:100B1000023805F8013C2EAB1B1A029707930546D5
:100B2000079B4B45B8BF4B46039300230B9314B16F
:100B3000039B01330393029B13F002033FD0039BFB
:100B40000233039302233AE0B4EB0B0518D0239B46
:100B50002B442393229B0133072BCAE900B5229330
:100B600005DC0AF1080A069B2B440693B1E60499BA
:100B7000089821AA02F0F4FE30B90DF1B80AF2E7A4
:100B8000239B002B40F00487049B9B895B0600F1AC
:100B9000AE8706983FB0BDE8F08FB8F1000FEFD0F8
:100BA00000238DF8673001238DF89080039307931D
:100BB00024AD4FF000090297CDF82C904B46029AD5
:100BC000239C12F084020A9205D1059A0399561AC1
:100BD000002E00F3FE829DF867208AB1229A0DF163
:100BE000670101320134CAF80010072A4FF00101F1
:100BF00023942292CAF8041000F326830AF1080A0B
:100C000083B1229A1AA901320234CAF80010072AC5
:100C10004FF0020123942292CAF8041000F32283B9
:100C20000AF1080A0A9B802B00F0CA81079BA9EBF6
:100C30000306002E00F30682029BDE0500F15981B7
:100C4000079BCAF804301C44229BCAF800500133A9
:100C5000072B2394229300F365820AF1080A029B72
:100C60005A0705D5059B039A9D1A002D00F30683AC
:100C7000DDE9052303998A42ACBF9B185B180693F4
:100C8000002C40F03B82002322930DF1B80A0EE6BF
:100C9000099B073323F00703B3EC027B55EC174B9A
:100CA000099325F0004315938DED147ADDE91401C5
:100CB000BD4B4FF0FF328DED0C7B05F069FC002839
:100CC00040F0F083DDE91401B74B4FF0FF3205F03F
:100CD00041FC002840F0E6830022002320462946FC
:100CE00005F02EFC002840F03D869DF86740AF4D92
:100CF00027F080030293AE4BB8F1470FD8BF1D46D3
:100D00004FF00009032303930793CDF82C900EE7CF
:100D1000099951F8043B099117F0100100F0BA83CA
:100D20000121CDE6099951F8043B099117F0100112
:100D30007FF4AFAE17F040023FF4ABAE0A469BB271
:100D4000A7E6099AFC0652F8043B099206D47806F5
:100D500004D543F3C03211461BB24AE6DA171146F6
:100D60000029BFF649AE5B4262EB42022D2401210D
:100D7000A7E6029F0A2B72F1000180F00185303353
:100D80008DF8B7300123029707930DF1B705C7E639
:100D9000099B53F8042B0592002A80F27383059A6D
:100DA0000993524205929BF8003047F004079FE5F3
:100DB0005A4612F8018BB8F12A0F00F02287A8F1E9
:100DC0003003092B98BF4FF0000900F2A18612F8FA
:100DD000018B09EB890903EB4909A8F13003092BC1
:100DE000F5D949EAE979934685E59BF8003047F063
:100DF00080077DE52B238DF867309BF8003077E581
:100E00009BF8003047F0010772E59DF867209BF8DA
:100E10000030002A7FF46CAD20228DF8672067E552
:100E20009BF800306C2B03BF9BF8013047F0200784
:100E30000BF1010B47F010075AE59BF8003047F023
:100E4000400755E5099B00228DF8672053F8042BD5
:100E5000099301238DF890200393079324ADA8E60E
:100E60009BF8003047F0080742E5099C54F8045B02
:100E700000268DF86760002D00F0C583B9F1000FE2
:100E8000C0F21A854A463146284600F029FF00285C
:100E900000F03286431B079323EAE3730994B146BB
:100EA0009DF86740029703930B9640E69BF800304D
:100EB00047F020071CE5099A52F8043B099247F6CF
:100EC0003002ADF868203B4A119247F00207002239
:100ED00002214FF07808F3E5BD0640F15C83099BE1
:100EE000069A1B681A60D2175A60099B043309934B
:100EF000DDE4B8F1650F40F32181DDE90C0100224A
:100F0000002305F013FB002800F0F581229B2A4AFC
:100F1000CAF80020013301340122072B23942293C5
:100F2000CAF8042000F3A9840AF1080A1B9B0E9A50
:100F3000934280F2A2820F9B109A1C44CAE90023BC
:100F4000229B23940133072B229300F350830AF151
:100F5000080A0E9B5D1E002D7FF781AE102D229B8F
:100F6000164F40F3D480DDF82080DDF81090102675
:100F700005E00AF1080A103D102D40F3C880013346
:100F80001034072BCAE90076CDE92234F1DD21AA1D
:100F90004946404602F0E4FC00287FF4F5ADDDE967
:100FA00022340DF1B80AE6E7FFFFEF7FCCD8000846
:100FB000C8D80008ECD8000808D9000810D60008E6
:100FC000059B039A9E1A002E7FF730AE102E229BAF
:100FD000AF4F24DD52462146AA46089C049D04E0FA
:100FE000103E102E02F1080216DD013310311020E0
:100FF000072BCDE9223117605060F1DD21AA294687
:10100000204602F0ADFC00287FF4BEAD103E102E4D
:10101000DDE922312EAAE8DC55460C469246013322
:101020003444072BCDE92234CAF80070CAF80460B2
:1010300000F33584079BA9EB0306002E0AF1080A8A
:101040007FF7FAAD102E229B914F2CDD52462146A0
:10105000B246089C2E464FF01009049D06E0AAF106
:10106000100ABAF1100F02F1080218DD01338848A6
:101070001031072BC2E90009CDE92231EFDD21AAA9
:101080002946204602F06CFC00287FF47DADAAF1D1
:10109000100ABAF1100FDDE922312EAAE6DC35463E
:1010A0000C465646924601333444072BCDE9223490
:1010B000CAF80070CAF8046000F3D2810AF1080A85
:1010C000BAE50129029F4FF000033FF458AE022910
:1010D0001A467FF408AD11982EAD03F00F011B09DD
:1010E000415C05F8011D43EA0273120953EA02014B
:1010F000F3D12EAB5B1B0297079311E50499089877
:1011000021AA02F02DFC00283FF4BDAD3CE50133DF
:101110002C44072BCAF80070CAF80450CDE92234D9
:101120007FF79BAD0499089821AA02F019FC0028CA
:101130007FF42AAD239C0DF1B80A90E50E9B229E08
:10114000012B04F1010406F101060AF1080840F33D
:101150003E810123072ECDE92264CAF80050CAF867
:10116000043000F3F3820F9B109A01361C44072EC3
:10117000C8E90023CDE9226400F3F58208F10808EC
:101180000E9BDDE90C0103F1FF390022002305F07D
:10119000CDF9002840F03B81013601354C44072E43
:1011A000CDE92264C8F80050C8F8049000F31D810E
:1011B00008F10808129BC8F8043001361C44072EB9
:1011C0001DABCDE92264C8F80030ABDC08F1080A99
:1011D00045E5102E229A2F4F28DD51462046CA465B
:1011E000089C1393A946049D04E0103E102E01F1C3
:1011F000080116DD013210301023072ACDE9222024
:101200000F604B60F1DD21AA2946204602F0A8FBC1
:1012100000287FF4B9AC103E102EDDE922202EA963
:10122000E8DC139B4D460446D1468A4601323444DD
:10123000072ACDE92224CAF80070CAF8046000F336
:10124000D9820AF1080AC6E404990898139321AADE
:1012500002F086FB00287FF497AC239C139B0DF1D2
:10126000B80ACDE40499089821AA02F079FB002875
:101270007FF48AAC239C0DF1B80AD3E4102D229B95
:10128000044F25DDDDF82080DDF81090102608E001
:1012900010D6000800D60008103D102D0AF1080AEB
:1012A00016DD01331034072BCAE90076CDE922346C
:1012B000F2DD21AA4946404602F052FB00287FF4A5
:1012C00063AC103D102DDDE922340DF1B80AE8DCE5
:1012D00001332C44072BCAE90075CDE922347FF78E
:1012E000C7AC0499089821AA02F03AFB00287FF4C1
:1012F0004BAC239CBCE41B99002940F38A820B9FD2
:101300000E9B9F42A8BF1F46002F0BDD229B01337F
:101310003C44072BCAE900572394229300F3C98366
:101320000AF1080A0B9E002FA8BFF61B002E00F33F
:1013300074811B9B0E9A9342C0F29E81029AD00741
:1013400000F19A810E9A0B99D31A561A9E42A8BFA1
:101350001E46002E0EDD229ACAF8046001320D44AA
:101360003444072ACAF800502394229200F3AD8334
:101370000AF1080A002EACBF9D1B1D46002D7FF709
:101380006EAC102D229BB84F7FF7C1AEDDF82080E8
:10139000DDF81090102605E00AF1080A103D102D26
:1013A0007FF7B5AE01331034072BCAE90076CDE9DB
:1013B0002234F1DD21AA4946404602F0D1FA002844
:1013C0007FF4E2ABDDE922340DF1B80AE6E7029BD7
:1013D000D9073FF5BEAE0123072ECDE92264CAF836
:1013E0000050CAF804307FF7E5AE0499089821AAA6
:1013F00002F0B6FA00287FF4C7ABDDE922640DF1F4
:10140000B808D7E6CDF81C902EADFFF789BB0E9B30
:10141000012B7FF7CFAE112B934F40F38982DDF87C
:1014200020A0102507E008F10808A9F11009B9F17A
:10143000100F40F37D8201361034072EC8E9007585
:10144000CDE92264EFDD049921AA504602F088FA22
:1014500000287FF499ABDDE922640DF1B808E4E7D8
:101460000499089821AA02F07BFA00287FF48CAB3B
:10147000239C0DF1B80AFFF7DFBB029BDD077FF568
:10148000EEAB58E509939BF80030FFF731BA2EAD6B
:10149000FFF746BB17F040021CBF0A469BB2012172
:1014A000FFF70EBBDDE90C0102460B4605F070F8B4
:1014B000002840F06E83B9F1FF3F28F0200600F0CD
:1014C0001383472E04D1B9F1000F08BF4FF0010973
:1014D000DDE90C0147F4807200290292C0F2C68255
:1014E0009DED0C7B8DED167B00230A93B8F1650F03
:1014F00000F0998200F3D582B8F1450F00F0938295
:101500001FAB01931CAB009302219DED160B0898B5
:101510001BAB4A4601F04AF8F907054640F1C08086
:1015200000EB0904DDE916010022002304F0FEFFB0
:10153000002840F029821F9BA34206D230215A1C6A
:101540001F9219701F9B9C42F9D81B9A0B925B1B30
:10155000472E0E9300F0A980B8F1660F40F0BC80D2
:101560000B9A07F00103002A43EA090340F357836B
:10157000002B40F034830B9B039307934FF06608D6
:101580000A9B002B00F06C822D238DF867304FF002
:101590000009FFF7CDBAFC067DD478067BD5099B00
:1015A000069A1B681A80A0E4304B119317F02002B2
:1015B00000F0BE80099B073323F0070319465A68E1
:1015C00051F8083B0991F90740F1AF8053EA020155
:1015D00000F0AB8030218DF868108DF8698047F0FD
:1015E00002070221FFF76CBA214B1193DEE7049941
:1015F000089821AA02F0B4F900287FF4C5AA239C18
:101600000DF1B80AA5E44B46062B28BF0623194D59
:10161000079309940393FFF7CCBA102E229B124F25
:1016200040F393812246DDF82090049C4FF010088F
:1016300005E00AF1080A103E102E40F385810133BF
:101640001032072BCAE90078CDE92232F1DD21AA58
:101650002146484602F084F900287FF495AADDE986
:1016600022320DF1B80AE6E710D60008D8D80008F3
:10167000ECD8000800D900080F9A10991444CAE960
:101680000012229A23940132072A229200F3FC814D
:101690000AF1080A56E6099B069A1B681A6024E4B8
:1016A0001F9B1B1A0E931B9B0B930B9BDA1C11DBCE
:1016B00099450FDB0E9B0B9A934200F34F82FE0776
:1016C0000B9B00F1778223EAE372039207934FF0BA
:1016D000670855E7A8F102080B9B8DF87480591E26
:1016E00000291B91B6BFC3F101012B232D2309292A
:1016F0008DF8753000F35381302330318DF876301A
:1017000004238DF8771012930E9A129B012A13442A
:10171000079340F31A82079B0F9A1344079323EA17
:10172000E373039300230B932AE70221FFF7C8B961
:10173000099951F8043B099117F010017FF443AF68
:1017400017F040021CBF9BB20A463CE70499089878
:1017500021AA02F005F900287FF416AADDE9226427
:101760000DF1B808FFE40499089821AA02F0F8F8EE
:1017700000287FF409AADDE922640DF1B808FFE42E
:10178000CDE90287BD4E2EAD4FF0050E991841F1FF
:101790000001A6FB010727F0030000EB9700091AE0
:1017A000581A9846944662F100034FF0CC3202FB7F
:1017B00000F206FB0322A0FB063003F001070244FF
:1017C000A7FB0E074018B8F10A0F4FEA530300F1C8
:1017D00030007CF1000C43EAC27305F8010D4FEABA
:1017E0005202D3D2DDE902872EAB5B1B029707932F
:1017F000FFF796B904990898139321AA02F0B0F85C
:1018000000287FF4C1A9239C139B0DF1B80AFFF7B0
:10181000E2B9229B9A4ACAF800200133013401221E
:10182000072B23942293CAF8042000F3A0800AF126
:10183000080A002946D1029B0E9A03F001031343C4
:101840003FF40DAA0F9B10991A19CAE90013229BA5
:1018500023920133072B229300F3CB800AF1080A6D
:101860000E99CAF8005001338C18072BCDE92234A9
:10187000CAF804107FF7F1A954E40499089821AA42
:1018800002F06EF800287FF47FA9239C0DF1B80ABE
:10189000FFF74CBB0898FEF759FFFEF7DBBF049932
:1018A000089821AA02F05CF800287FF46DA9239C17
:1018B0000DF1B80AFFF7BAB92846FEF7A1FC0346B6
:1018C000FFF7E9BA0F9B10981A19CAE90003229B87
:1018D00023920133072B229300F38B800AF1080A2D
:1018E0000029BDDA4E421031664F80F21681DDF8D4
:1018F0002080DDF81090102405E00AF1080A103E5F
:10190000102E40F30A8101331032072BCAE900740C
:10191000CDE92232F1DD21AA4946404602F020F805
:1019200000287FF431A9DDE922320DF1B80AE6E79B
:1019300001364C44072ECDE92264C8F80070C8F87F
:1019400004907FF735AC50E5144601333444072B3F
:10195000CDE92234CAF80070CAF8046057DC0AF1F5
:10196000080AE6E42D248DF86740FFF7C0B9049912
:10197000089821AA01F0F4FF00287FF405A91B991B
:10198000239C0DF1B80A54E71B9A0B922346DEE51F
:101990000499089821AA01F0E3FFFFF7F5B80DF1CB
:1019A0008304364E23461846A6FB0123DB0803EBCF
:1019B0008302A1EB4202303200F8012C0A46632A6E
:1019C000194600F1FF33EEDC303103F8011C831EB1
:1019D000A34280F021810DF1750213F8011B02F87A
:1019E000011FA342F9D13EAB181AA0F17103129363
:1019F0008AE60499089821AA01F0B2FF00287FF432
:101A0000C3A8DDE922321B990DF1B80A68E70499F1
:101A1000089821AA01F0A4FF00287FF4B5A8239C10
:101A20000DF1B80A85E409F1010303930221039C37
:101A300008981FAB01931CAB009322469DED160B3B
:101A40001BAB00F0B3FDB8F1660F054604447FF40C
:101A500069AD2B78302B00F08E801B9B1C4461E518
:101A6000DDF828909DF86740FFF761B801F1004369
:101A700017932D2316900A9338E500BFCDCCCCCC1C
:101A800008D9000810D600080499089821AA01F086
:101A900067FF00287FF478A81B9B239C0DF1B80AF0
:101AA00050E4B8F1660F7FF42BADCDF80C90032114
:101AB000BDE70499089821AA01F052FF00287FF49D
:101AC00063A8239C0DF1B80A2CE40499089821AA74
:101AD00001F046FF00287FF457A81B9B0E9A239C19
:101AE000D31A0DF1B80A45E44FF00609F0E44FF0BF
:101AF000FF330693FFF74DB80994CDF80C90CDF85D
:101B00001C909DF86740029781460B90FFF70FB835
:101B100093464FF00009FEF7EEBE01333244072B27
:101B2000CDE92232CAF80070CAF804607FF796AE99
:101B30000499089821AA01F013FF00287FF424A833
:101B4000DDE922320DF1B80A8AE617F001020B92A4
:101B50007FF4E1AD23EAE373039311E5DDE90E328F
:101B600013440B9A0793002A2DDD23EAE3730393B2
:101B70004FF0670804E5DDE916010022002304F0B8
:101B8000D5FC002837D01B9B0B931C44631B0E9382
:101B9000E6E40D9B2B4D002BB8BF2D2427F08003CE
:101BA0000293A8BF9DF86740274BB8BF8DF86740E8
:101BB000FFF7A2B80F9A1344079323EAE373039342
:101BC0004FF06708DCE40B9B079AC3F101031A444A
:101BD00022EAE273079203934FF06708D0E40F9B69
:101BE00009EB030808EB0203079323EAE37303936B
:101BF0004FF06608C4E4039BC3F101031B931C442C
:101C000090E409999BF8013051F8049B099193469F
:101C100049EAE979FEF76CBE0223129374E52BB909
:101C2000012303934FF066080793A9E40F9B03F188
:101C3000010808EB0903079323EAE37303934FF0CA
:101C400066089DE4D4D80008D0D8000810B4054C2C
:101C50008446134620685DF8044B0A466146FEF749
:101C6000E3BD00BF0000002070B50C468989ADF5CA
:101C70008D6D21F00201ADF80C101AA900910491AC
:101C80004FF4806102910591616E1991E189ADF87F
:101C90000E10E1690791616A099100210691694678
:101CA0000646FEF7C1FD051E07DB6946304600F01B
:101CB00003F9002818BF4FF0FF35BDF80C305B0664
:101CC00003D5A38943F04003A38128460DF58D6D0C
:101CD00070BD00BF00000000000000000000000018
:101CE00001F0FF01102A2BDB10F0070F08D010F8CD
:101CF000013B013A8B422DD010F0070F42B3F6D1D1
:101D0000F0B441EA012141EA014122F007047FF0E9
:101D100000070023F0E80256083C85EA010586EA40
:101D2000010685FA47F5A3FA87F586FA47F6A5FA7C
:101D300087F68EB9EED1F0BC01F0FF0102F0070288
:101D400032B110F8013B013A83EA010313B1F8D133
:101D50000020704701387047002D06BF3546033814
:101D6000073815F0010F07D1013015F4807F02BF4D
:101D7000013015F4C03F0130F0BC0138704700BF9E
:101D8000B1F90C202DE9F04116070C4680464ED4DF
:101D9000496842F400630029A38163DDA56A002D30
:101DA00042D0002112F48052D8F80060C8F8001028
:101DB000E16964D101234046A847451C02466ED024
:101DC000B4F90C30A56AE169580705D56368D21AE1
:101DD000236B0BB1E36BD21A00234046A847431C88
:101DE0004FD1D8F80010B4F90C301D2940D8314A31
:101DF000CA40D7073CD52269226023F40062A28141
:101E0000DD044FF00002626001D5002945D0216B4E
:101E1000C8F8006041B104F14003994202D0404645
:101E200001F0C4FB002323630020BDE8F0810E69AC
:101E3000002EF9D00D680E6092070CBF4B6900238D
:101E4000AD1B8B600BE02B463246E169676A40466A
:101E5000B847B0F1000CA5EB0C05664406DD002D7B
:101E6000F1DCE1E7E16B002998DCDDE7B4F90C3047
:101E700043F04003A3814FF0FF30BDE8F081226DB5
:101E8000A2E7B4F90C302269226023F40062A28137
:101E9000DB044FF000026260B9D52065B7E7D8F8DF
:101EA0000030002B8CD01D2B01D0162BDED1C8F8B2
:101EB0000060B9E70100402010B5044682B008B1C7
:101EC000436B53B1B1F90C0008B902B010BD204604
:101ED00002B0BDE81040FFF753BF0191FEF736FC9A
:101EE0000199EFE7A0B138B50C4B1D6804460DB160
:101EF0006B6B4BB1B4F90C0000B938BD21462846D4
:101F0000BDE83840FFF73CBF2846FEF71FFCF1E76D
:101F1000034A04490448FEF765BC00BF00000020E6
:101F200028010020B91E0008080000202DE9F04F0C
:101F300001F10B05162D83B0064623D8102900F2B7
:101F4000AF8001F0E5FC102518230220C04F3B4470
:101F5000A3F108025C68944200F024816368E2689F
:101F6000A16823F00303CA602344304691605A6895
:101F700042F001025A6001F0CDFC0834204603B063
:101F8000BDE8F08F35F0070500F18A80A94200F224
:101F9000878001F0BDFCB5F5FC7FC0F06B816B0A5A
:101FA00000F08280042B00F22381AB0903F1390099
:101FB00003F1380EC300A64F3B44A3F1080C5C6844
:101FC000A44507D10DE0002AE16880F2E5808C4548
:101FD00007D00C46636823F003035A1B0F2AF2DD77
:101FE0007046DFF870823C69444500F0C280636847
:101FF00023F0030CACEB05030F2B00F33F81002B08
:10200000C7E9048880F22A81BCF5007FD7F804E094
:1020100080F0CE804FEADC0101314FEA5C1C0123E5
:1020200003FA0CF357F83120A2604EEA030E07EBD7
:10203000C103083BE360C7F804E047F83140D460CF
:1020400083104FF0010C0CFA03FCF44532D81CEA63
:102050000E0F08D120F003004FEA4C0C1CEA0E0FC3
:1020600000F10400F8D007EBC00AD6468146DEF83E
:102070000C300BE0596821F003014A1B0F2A1C4663
:10208000DB6800F3C180002A80F2D5809E45F1D143
:1020900009F1010919F0030F0EF1080EE7D116E15D
:1020A0000C233360002469E74FF4007340204FF0A5
:1020B0003F0E80E7BC68636823F00309A94503D39A
:1020C000A9EB05030F2B57DCDFF88CB1DBF8002000
:1020D00004EB09031032082002EB0508009301F01D
:1020E000A9FBD7F808140131024605D008F1FF38E2
:1020F0008044414201EA080841463046019201F01D
:102100000BFCB0F1FF3F019A824600F0D280009BA9
:10211000834200F2CC80DBF804104144CBF8041079
:10212000084602F1FF3C40F0F4801AEA0C0F40F040
:10213000F080D7F808A0C84448F00100CAF80400AD
:10214000DBF82C208A42DBF8302038BFCBF82C108B
:102150008A4238BFCBF83010544620F00308A84517
:10216000A8EB050301D30F2B06DC304601F0D2FBB0
:1021700098E7D7F804E063E7621943F0010345F0FC
:10218000010565603046BA60536001F0C3FB083456
:10219000204603B0BDE8F08FA2682344D1603046EA
:1021A0008A60E4E6DC68A3427FF4D8AE023018E728
:1021B000BCF5206F4FEA5C2272D3142A00F208812A
:1021C00002F15C03DB005B32F918FB5808399942D5
:1021D00003D1E4E09B68994204D05A6822F00302DC
:1021E0006245F7D8D968C4E902318C60DC6027E722
:1021F000142B61D9542B00F2F4802B0B03F16F00E8
:1022000003F16E0EC300D6E6D4F808C03046661956
:1022100045F001056560CCF80C30C3F808C042F009
:102220000103C7E90466C6E902887360625001F0E1
:1022300071FB0834A2E6214430464A6842F00102AC
:102240004A6054F8082FD3609A6001F063FB95E66A
:102250003801002040010020400E0020A4443046F8
:10226000DCF8043043F00103CCF8043001F052FBF9
:10227000083483E6E80805F1080367E6621943F0CD
:10228000010145F0010565603046C7E90422C2E955
:102290000288516044F80C3001F03CFB08346DE6D4
:1022A0004FEA9C1202F13903DB0038328CE7BC4262
:1022B00028D0BC68606850E703F15C0003F15B0E56
:1022C000C30078E65AF80839534540F0D78010F03B
:1022D000030F00F1FF30F5D17B6823EA0C037B602C
:1022E0004FEA4C0C9C453FF6E5AEBCF1000F04D123
:1022F000E0E64FEA4C0C09F104091CEA030FF8D0A0
:102300004846B0E6DBF804004044CBF8040002F194
:10231000FF3CD7F8081401316DD0009BAAEB0303F2
:102320001844CBF804001AF00703009341D0C3F11E
:1023300008018A44D0440A4408EA0C01521A02EA0D
:102340000C013046019101F0E7FA421C6FD001996F
:10235000A0EB0A0000EB0108DBF80420C7F808A096
:1023600048F001001144BC42CAF80400CBF8041044
:102370003FF4E6AEB9F10F0F40D96268A9F10C0045
:1023800020F0070002F001020243626005232218D8
:102390000F28C2E9013352D8DAF80400D0E69210CF
:1023A0004FF0010C0CFA02F24EEA020EC7F804E0FC
:1023B00019E70AEB080101EA0C01521A02EA0C01C2
:1023C0003046019101F0A8FA431CC0D10099C3E73F
:1023D000542A17D84FEA1C3202F16F03DB006E3229
:1023E000F2E6B3F5AA7F17D8EB0B03F1780003F1FF
:1023F000770EC300DFE5C7F808A494E70123CAF805
:102400000430B2E6B2F5AA7F23D84FEADC3202F1FB
:102410007803DB007732D7E640F25452934223D858
:10242000AB0C03F17D0003F17C0EC300C3E5009B00
:10243000A3F108029044A8EB0A0800218CE704F1FC
:102440000801304601F0B2F8DBF80410D7F808A014
:10245000A2E740F254539A420CD84FEA9C4202F150
:102460007D03DB007C32AFE64FF47E737F204FF0BC
:102470007E0EA0E54FF47E737E22A5E67B682FE7F3
:102480002DE9F04F03690C69A34283B0C0F28A8042
:10249000013C01F1140500F1140855F8243058F8F6
:1024A000242001339A428E4681464FEA840105EB8F
:1024B000840708EB840AB2FBF3F63AD3CDE90015A2
:1024C0000022AC46404613465CF8041B05681FFA20
:1024D00081FB06FB0B22090C4FEA124B06FB01BBEA
:1024E00092B2A9B2891A19441FFA8BF3C3EB2143A4
:1024F00003EB154389B241EA0341674540F8041BE9
:102500004FEA1B424FEA2343DED2DDE9001558F8BB
:10251000013073B9AAF1040AD04504D307E0D045CD
:1025200004F1FF3403D25AF80439002BF7D0C9F86C
:1025300010407146484601F02BFD00282EDB414635
:10254000002255F8040BD1F800C01FFA80FE1FFAD4
:102550008CF3A3EB0E031344020CC2EB234202EBF9
:102560001C429BB243EA0243AF4241F8043B4FEAAC
:102570002242E6D258F8242008EB84036AB9043BCF
:10258000434504D807E0984504F1FF3403D253F8DB
:102590000429002AF7D0C9F810400136304603B0AC
:1025A000BDE8F08F002003B0BDE8F08F2DE9F04FBB
:1025B0009DB0CDE90A320291816B269D04908DED8C
:1025C000060B57EC106B49B1C26B4A600123934074
:1025D00004468B6001F020FA0023A363B7F10009E1
:1025E000B4BF012300232B60774BBCBF29F0004907
:1025F000CDF81C9033EA090300F0AA809DED067B1C
:10260000002251EC170B00238DED007B03F08EFFB1
:10261000804668B10A9A01231360279B13B1279A59
:102620006A4B13606A4B059305981DB0BDE8F08FA7
:102630009DED000B04981AAA1BA901F017FE5FEA92
:102640001955824640F09A80DDE91A85454405F225
:102650003243202B40F38C83C3F1400309FA03F982
:1026600005F2124326FA03F349EA030003F07CFC67
:102670000123013DA1F1F8711293564B002203F0A2
:1026800035FB4BA3D3E9002303F0E8FC4AA3D3E9CD
:10269000002303F02DFB064628460F4603F074FC8A
:1026A00047A3D3E9002303F0D9FC02460B4630468A
:1026B000394603F01DFB06460F4603F07FFF00225C
:1026C0000446099000233046394603F039FF0028BC
:1026D00040F02483099CA8EB050808F1FF33162C71
:1026E000089300F28C813C4B03EBC403D3E9002335
:1026F000DDE9000103F024FF002873D0631E099375
:1027000000231193089B002BC0F27F8100230C93C0
:10271000099B002B6CDA099B0C9A0D93D21A0C9230
:102720005A4200230993029B1092092B6AD8052B69
:1027300040F32383043B02930025029B023B032BBF
:1027400000F23886DFE813F070046D046504490474
:102750000A9AC9F3130942F20F7359EA0609136082
:102760001CD1279B002B00F045861C4B059308339A
:10277000279A059813601DB0BDE8F08FDDE90012BF
:10278000C2F31303084643F07F51CDF84880A5F209
:10279000FF35DDF8688041F440116EE7279B002B80
:1027A00040F0F6830E4B05933EE700BFAFF3008089
:1027B00061436F63A787D23FB3C8608B288AC63F47
:1027C000FB799F501344D33F0000F07F09D90008E4
:1027D00008D900080000F83F30D600080CD90008DE
:1027E00018D90008B8F1000F40F3A38411900C90A1
:1027F000DDE908321344089300231093029B0D92E5
:10280000092B94D90023012502930E954FF0FF3B2D
:102810000B93049BCDF84CB00021D963049801F0D0
:10282000D5F80590002800F0CE85DDE90432BBF133
:102830000E0F9A6300F21881002D00F015810D999A
:10284000002940F34684B34B01F00F0203EBC203AF
:10285000C805D3E900894FEA211540F10884AE4B41
:10286000DDE90001D3E9082303F022FDCDE91401DD
:1028700005F00F0503277DB1A74EE90708D54046AF
:102880004946D6E9002303F0E9FB01378046894633
:102890006D1006F10806F0D142464B46DDE9140101
:1028A00003F006FD80468946119B43B19B4B0022F5
:1028B0004046494603F044FE002840F00B85384668
:1028C00003F062FB42464B4603F0C8FB944B0022E8
:1028D00003F00EFAA1F15073CDE914011593BBF189
:1028E000000F00F0A8800D9BCDE918B34946404683
:1028F00003F064FE189A874B03EBC20313ED027BCF
:1029000005468DED167B03F03FFB0B46024649461C
:10291000404603F0EBF9059F0E9B30357E1CECB270
:10292000804689463546002B00F06C84DDE916238D
:102930007C49002003F0BCFCDDE9142303F0D6F948
:102940003C7042464B4604460D4603F017FE0028F5
:1029500040F0B884CDF850A0CDF858B00027AB4671
:10296000A246189D2AE00137AF4280F2FD846E4BEB
:1029700050465946002203F071FB6B4B0022824601
:102980008B464046494603F069FB8946804603F082
:1029900015FE044603F0F8FA02460B464046494647
:1029A00003F0A4F9303406F8014B52465B468046EA
:1029B000894603F0C5FD002840F0D38442464B46CB
:1029C0005649002003F092F952465B4603F0B8FDE9
:1029D0000028C8D0199BDDF850A0059A374603F1AE
:1029E000010802E0974200F09B843E4617F8013D43
:1029F000392BF7D00133DBB23B7045467DE1012333
:102A00001193089B002BBFF681AEC8F101030C9314
:102A1000002308937CE6384603F0B6FA42464B465C
:102A200003F01CFB3E4B002203F062F9A1F150734E
:102A3000CDE9140115933D4B00224046494603F071
:102A400055F9DDE9144522462B4606460F4603F0AC
:102A500095FD002840F0738430463946224605F142
:102A6000004303F06DFD28BB1B9B002BC0F2908040
:102A70000D9A0E2A00F38C80264B0D9A03EBC203AD
:102A800093ED007B0B9B002B8DED027B19DABBF1E4
:102A9000000F16DC0ED1254B0022DDE9020103F008
:102AA000DDFA02460B46DDE9000103F053FD002884
:102AB00000F045840023059E00931F460B9BDD43D9
:102AC0002DE2059B5D1CDDE90278DDE900013A4657
:102AD000434603F0EDFB03F071FD064603F054FAA4
:102AE0003A46434603F0BAFA02460B46DDE90001D6
:102AF00003F0FCF8059A06F13003BBF1010F2F46F5
:102B0000137000F021830125CDF800A0A846DDE96F
:102B1000029A2BE030D6000820D700080000F03FD2
:102B200000001C400000E03F000024400000144072
:102B30004A4653462046294603F0BAFB03F03EFDC1
:102B4000064603F021FA4A46534603F087FA08F195
:102B500001080B4602462946204603F0C7F806F155
:102B60003003D84507F8013B00F0EC82844B00228B
:102B700003F074FA0022002304460D4603F0D6FC4D
:102B80000028D5D00D9DDDF800A001353E46B4E00B
:102B90000E9A002A40F0D8800023109E0C9D0E93C0
:102BA0001F4665B1089A002A09DD0C99AA4213460E
:102BB000A8BF2B46C91AED1AD31A0C910893109B83
:102BC00053B10E9B13B1002E40F0F7825146109A7C
:102BD000049801F00BF982460498012101F022F8D3
:102BE000099B0090002B40F0BE81029B012B40F31B
:102BF000D4810120089A104410F01F0000F09B803F
:102C0000C0F12003042B40F3E3810C9BC0F11C00B6
:102C1000034402440C93054408920C9B002B05DDF1
:102C2000514604981A4601F03BF98246089B002B56
:102C300005DD009904981A4601F032F90090119BC5
:102C4000002B40F07581BBF1000F40F34C810E9BCF
:102C5000002B40F0A4800D9D0135DDF81480009C10
:102C6000DDF81090012607E0514600230A2248466D
:102C700000F0DCFE0136824621465046FFF700FC9C
:102C8000B34500F1300008F8010BEDDCBBF1000F9B
:102C9000059BCCBF5E460126814603EB060B002454
:102CA00051460122049801F0FBF80099824601F098
:102CB0006FF9002840F3EE81059A02E0934500F099
:102CC00003825E460BF1FF3B16F8013C392BF5D031
:102CD00001338BF80030DDF810800099404600F099
:102CE0009BFE57B12CB1BC4203D02146404600F0B8
:102CF00093FE0498394600F08FFE0498514600F088
:102D00008BFE002333700A9B1D60279B002B3FF432
:102D10008BAC05981E601DB0BDE8F08F204603F017
:102D200033F932463B4603F001FC00287FF4D2AC75
:102D3000631E0993CEE41C230C9A1A440C92089A41
:102D40001A441D44089268E7029A012A40F3AD81B3
:102D5000109B0BF1FF36B342C0F26981BBF1000F4B
:102D6000A3EB060680F2EF820C9BA3EB0B056CE154
:102D7000C3F1200306FA03F078E40125DDE400BF87
:102D8000000024403946002304980A2200F04EFE39
:102D9000139B002B074640F3FF820D969B46002DA8
:102DA00005DD394604982A4601F07AF80746099B62
:102DB000002B40F0E681B846059E731E03EB0B0422
:102DC000069B03F00103CDE90B43049C0099504698
:102DD000FFF756FB39468346504601F0D9F8009973
:102DE00005464246204601F0F5F8C3680BF130096C
:102DF0000146ABBB0990504601F0CAF8099908900A
:102E0000204600F009FE089A002A54D1029B1BB903
:102E10000C9B002B00F0AE82002D3FDB0B9BB346DA
:102E20009E420BF8019B00F0C381514600230A2209
:102E3000204600F0FBFD4745824639464FF000032F
:102E40004FF00A02204630D000F0F0FD4146074620
:102E500000230A22204600F0E9FD5E468046B5E7E1
:102E6000049800F0D9FD002D06DB069B03F001025B
:102E7000029B1D432A4329D151460122049801F0A7
:102E80000FF80099824601F083F8002840F3F6809D
:102E9000B9F1390F00F049820BF131090D9D06F8A7
:102EA000019B3C460135474615E700F0BFFD5E46F5
:102EB000074680468AE7002DC0F29382029B1D439D
:102EC0000C9B1D4300F08D82002AA7DDB9F1390F5C
:102ED00000F02B820D9D09F101033C4606F8013BF1
:102EE00001354746F7E6029B022B7FF7B0AEBBF1F8
:102EF000000F40F02581009904985B46052200F000
:102F000095FD01460090504601F042F8002840F33C
:102F10001781059E0D9D312306F8013B013500996F
:102F2000049800F079FD0135002F7FF4E2AEE4E66D
:102F30000099504601F02CF80028BFF684AE5146A7
:102F4000002304980D9C0A2200F070FD0E9B661E63
:102F50008246002B7FF416AF139B002B40F31182A7
:102F60000D9D9B4679E601461A46049800F03EFF07
:102F7000029B0090012B6EDD00230993009A1369D8
:102F800002EB8303186900F0FBFDC0F1200031E67D
:102F9000984B05930333FFF7EBBB069B002B7FF4A5
:102FA00028AEDDE90612C2F31303002B7FF421AE35
:102FB000914B134033B10C9B01330C93089B0133AD
:102FC00008930123099A0993002A3FF412AED5E72A
:102FD0003FF423AEC0F13C03AEE601230E930B9BFE
:102FE0000D9A134403F1010B5E46012E1393B8BFF3
:102FF0000126172E40F3F981012204235B0003F11F
:103000001400B042114602F10102F7D9049BD963C2
:1030100004E401230E930B9E002E36DD1396B34677
:10302000E7E700230E93DAE700230E93F3E7109B04
:10303000099A1096F31A1A44089B09925B44089364
:103040000C9B1D465B440C9300260498012100F064
:10305000E9FD0746A5E5069B002B8DD1DDE90601BC
:10306000C1F313030A46002BA2D0099086E79DED19
:10307000007B02278DED147BFFF7FDBB7FF40EAFC5
:1030800019F0010F7FF404AF08E701230B939B466F
:10309000FFF7BFBB03D119F0010F7FF40DAE5E4601
:1030A0001BF8013D302BFAD015E6129A002A00F0E9
:1030B0009C8003F23343089A109E1A4408920C9A9B
:1030C00015461A440C92C0E7059A31230135137056
:1030D00001E600F0FA800D9A484B554205F00F02C8
:1030E00003EBC203D3E90023DDE9000102F0B6FFE0
:1030F0002D11CDE9140100F05881414E0023022723
:1031000080468946EA0709D5D6E900234046494664
:1031100002F0A4FF01378046894601236D1006F1B5
:103120000806EFD1002B7FF4BFABDDE91489FFF770
:10313000BBBBC8F1010308900C931190FFF758BB7B
:10314000059EBBE4DDF800A002460B4602F0D0FD70
:103150000D9DCDE90001013502460B46DDE9020176
:10316000A84603F0EDF940B9DDE90023DDE90201ED
:1031700003F0DCF918B1F30701D5059A35E43E46B2
:10318000BBE57968049800F021FC0546002800F0B2
:1031900021813B6902339A0007F10C010C30FDF7E5
:1031A000F3F804982946012200F07AFE804603E6EF
:1031B0000D9D3C460135474672E5049C3946324632
:1031C000204600F013FE524601460746204600F016
:1031D00057FD51468046204600F01EFC109B9B1B6D
:1031E000C24610933FF4F8ACF0E41A9BC3F13603E7
:1031F00061E700BF18D900080000F07F30D6000852
:1032000020D70008DDE91623DDE9140102F026FFCE
:10321000059B1C70189B012BCDE90E0100F0C380AB
:10322000189F059B12961F447A4B00224046494640
:1032300002F014FF0D46044603F0C0F9814602F087
:10324000A3FE09F1300902460B462046294602F04A
:103250004DFD06F8019BBE4280468946E4D1129D91
:103260006D4B0022DDE90E0102F042FD02460B46E5
:103270004046494603F082F900286CD1DDE90E236F
:103280006549002002F032FD02460B4640464946A1
:1032900003F056F980B91B9B002BFFF67DAC0D9B0C
:1032A0000E2B3FF779AC5D4B0D9A03EBC20393ED08
:1032B000007B8DED027B06E43E46013F16F8013CA3
:1032C000302BF9D0199D013517E5DDE9008902277A
:1032D000FFF7EABABBF1000F3FF49DAB139C002C43
:1032E0007FF7C2AB0D9B013B002240464946199334
:1032F000484B02F0B3FE80468946781C02F044FE3B
:1033000042464B4602F0AAFE454B002202F0F0FC7A
:10331000A1F15073CDE9140118941593FFF7E6BAA3
:1033200008F101083123FFF767BB0D9D059AB346ED
:1033300039233C460BF8013B01354746C1E40023E5
:1033400000931F46E5E5089B5B4408930C9B1D46D4
:103350005B440C9379E6199B059A03F10108FFF78A
:1033600044BBDDF850A0ADE7DDF850A0DDF858B063
:10337000FFF77ABBB9F1390FD7D0002D3FF78CADED
:103380008CE5029B022B03DC0D9DDDF84CB064E460
:10339000DDF84CB00D96AAE5029B022BF8DCDDF8B7
:1033A0004CB00D96FBE437465AE7DDE91489022755
:1033B000FFF77ABA049B0025DD632946184600F022
:1033C00005FB0590D0B9174B1748002240F2AF110A
:1033D00000F0D6FA134B14482A4640F2EF2100F0D1
:1033E000CFFA002A3FF748AD58E5049B0021D96386
:1033F000FFF714BA0D4B0593FFF716B9DDE9043258
:103400009A634FF0FF3301220B9513930E929B4664
:10341000FFF72ABB000024400000E03F30D6000840
:1034200000001C401CD9000830D900080CD9000845
:1034300038B52F4B1B6805460C4613B15A6B002A52
:103440004BD0B4F90C3018071CD5226922B313F005
:10345000010107D0616900204942A060A1613AB131
:10346000002038BD980758BF6169A160002AF7D1D4
:10347000190658BF1046F4D543F04003A3814FF01E
:10348000FF3038BDD9062CD55A0712D4226943F033
:103490000803A381002ADAD103F42071B1F5007F7B
:1034A000D5D02146284600F0F7FFB4F90C30226948
:1034B000CDE7216B51B104F14002914204D028467E
:1034C00000F074F8B4F90C30002222632269002164
:1034D000C4E9002123F02403D9E71846FDF736F9A3
:1034E000AFE7092243F040032A60A381C7E700BF8A
:1034F000000000202DE9F84306460820894600F028
:1035000099F9DFF8A4800546304600F001FAD8F8B2
:1035100008305F6827F00307A7F11104A4EB090442
:103520002C44B4FBF5F4013C05FB04F4A54208DC93
:103530000021304600F0F0F9D8F808303B449842BA
:1035400005D0304600F0E6F90020BDE8F88361427E
:10355000304600F0E1F901300FD0114AD8F80830B8
:103560003F1B47F001075F60136830461B1B136069
:1035700000F0D0F90120BDE8F8830021304600F0CA
:10358000CBF9D8F80820831A0F2BDADD43F00103BA
:103590005360044B02491B68C01A0860D1E700BFA2
:1035A000440E0020400500203801002000297CD076
:1035B0002DE9F0410C46804600F0AAF954F8043C8D
:1035C000754FA4F1080523F001016818BE68426830
:1035D000864222F0030200F08380DE07426000EBA7
:1035E000020C33D454F8084CDCF804302D1B214471
:1035F000AC6807F1080C644503F0010364D0D5F80A
:103600000CE0C4F80CE0CEF80840002B00F08180FC
:1036100041F001036B600160B1F5007F22D2786850
:10362000CB080122490901338A40024357F833107D
:103630007A6007EBC302083AC5E9021247F8335033
:10364000CD604046BDE8F04100F064B9DCF80430DC
:10365000DB072BD541F00103B1F5007F44F8043CB2
:103660000160DCD3B1F5206F4FEA512353D28B09AF
:1036700003F1390003F13802C300F818FB58083889
:10368000984203D161E09B68984204D05A6822F0C6
:1036900003028A42F7D8D868C5E902308560DD6048
:1036A0004046BDE8F04100F035B97047114407F1DC
:1036B000080C836863453FD0C268DA60936041F0CC
:1036C00001036B606950A7E7002B5FD10A44D0E982
:1036D0000213CB60996042F001036B60AA50B0E71F
:1036E000DB070A4407D454F8083CED1A1A44D5E91C
:1036F0000213CB60996042F001036B60274BBD6001
:103700001B6893429DD8264B40461968FFF7F2FE8E
:1037100097E71144CDE7142B08D9542B1DD80B0B78
:1037200003F16F0003F16E02C300A6E703F15C0032
:1037300003F15B02C300A0E741F00103C7E90455B0
:10374000C5E902CC6B6069507BE77968921001246F
:1037500004FA02F20A437A609EE7B3F5AA7F06D81C
:10376000CB0B03F1780003F17702C30085E740F249
:103770005452934206D88B0C03F17D0003F17C0276
:10378000C3007AE74FF47E737E2276E741F00103AF
:103790006B60016055E700BF380100204405002040
:1037A000400E002070B539B106460C4608B1436B97
:1037B00083B3B4F90C3013B90025284670BD2146F7
:1037C0003046FEF7DDFAE36A054633B1E16930467B
:1037D00098470028B8BF4FF0FF35A3891B061CD4BB
:1037E000216B41B104F14003994202D03046FFF70A
:1037F000DDFE00232363616C21B13046FFF7D6FE66
:1038000000236364FCF7B2FF0023A381FCF7B0FF41
:10381000284670BDFCF79AFFCBE721693046FFF7D9
:10382000C5FEDDE7024B01461868FFF7BBBF00BFCE
:1038300000000020082802D14FF48050704708B5DE
:10384000FCF79CFD162303604FF0FF3008BD00BF5E
:1038500010B50C46B1F90E1000F01AFF002803DB7A
:10386000236D0344236510BDA38923F48053A381F2
:1038700010BD00BF002070472DE9F0410C46B1F9A2
:103880000C101F46CB05054616460BD421F480517B
:10389000A1813B46B4F90E1032462846BDE8F041FE
:1038A00000F020B8B4F90E100223002200F040FF0F
:1038B000B4F90C10EAE700BF10B50C46B1F90E10D0
:1038C00000F036FFB4F90C30421C0EBF23F48053D5
:1038D00043F480532065A38110BD00BFB1F90E10E1
:1038E00000F02CB838B50C46084D844611462046E9
:1038F0001A4600232B60644608F04FFF431C00D09B
:1039000038BD2B68002BFBD0236038BD000D002094
:10391000704700BF704700BF38B5074D002204460E
:1039200008462A6008F048FF431C00D038BD2B68C9
:10393000002BFBD0236038BD000D002038B5074DAB
:103940000022044608462A6008F029FF431C00D0E4
:1039500038BD2B68002BFBD0236038BD000D002044
:10396000936810B514461BB918460023636010BD58
:1039700000F01CFF0023A3600023636010BD00BFA4
:1039800000B50B4C25681446EE681A4685B0034610
:103990000D464CB107490095CDE901143046064962
:1039A00000F09AFE00F036FE04490C46F3E700BF33
:1039B000000000205CD900086CD9000868D9000814
:1039C00008B513460022FFF7DBFF00BF436C70B55C
:1039D00005460C464BB153F8240080B1026843F809
:1039E00024200023C0E9033370BD2122042100F00C
:1039F00019FE034668640028EDD1002070BD012146
:103A000001FA04F6721D9200284600F00BFE002811
:103A1000F3D0C0E90146E4E731B1436C4A6853F89A
:103A20002200086043F82210704700BF2DE9F041E2
:103A30000D6907460E461C4601F1140E0020DEF803
:103A400000108BB202FB03434FEA134C090C02FB3C
:103A500001CC01309BB203EB0C4385424EF8043B92
:103A60004FEA1C44EBDC3CB1B368AB4207DD06EB2C
:103A7000850301355C6135613046BDE8F0817168D0
:103A800038460131FFF7A2FF8046A8B13269023201
:103A900006F10C0192000C30FCF776FC7B6C72682E
:103AA00053F82210316043F82260464606EB850346
:103AB00001355C613561DFE7024B03484246BA21BC
:103AC000FFF75EFF1CD900089CD900082DE9F843D8
:103AD0001746284A1E4608330C46092E82FB03125D
:103AE0004FEAE3730546C3EB62033ADD4FF0010C86
:103AF00000214FEA4C0C634501F10101F9DC284635
:103B0000FFF764FF014670B3089B4361092F4FF034
:103B10000103036112DC0A340927BE420BDDF61BE8
:103B2000264414F8013B0A22303B2846FFF77EFF6B
:103B3000B4420146F5D10846BDE8F88304F109080E
:103B400004EB0709444614F8013B0A22303B28469F
:103B5000FFF76CFF4C450146F5D1A7F1080444443A
:103B6000DBE70021CBE70A46034B0448D321FFF7EC
:103B700007FF00BF398EE3381CD900089CD9000824
:103B8000B0F5803F034636BF030400201020B3F198
:103B9000807F3CBF1B020830B3F1805F3CBF1B013C
:103BA0000430B3F1804F03D3002B06DB01307047A4
:103BB0009B0003D45B0003D4202070470230704781
:103BC00003307047036813F00702014607D0DA0795
:103BD0001FD4980721D55B080B600120704798B26D
:103BE000A0B11046DAB20AB908301B0A1A0704BF9E
:103BF0001B0904309A0704BF9B080230DA0703D47C
:103C00005B0800F1010006D00B6070471B0C102010
:103C1000E8E700207047202070479B080B600220D7
:103C2000704700BF38B5436C04460D464BB1586829
:103C3000B0B102685A6000220123C0E90323456144
:103C400038BD2122042100F0EDFC03466064002809
:103C5000EDD1094B0948002240F24511FFF790FED3
:103C60001C220121204600F0DDFC0028F1D00122B9
:103C70000223C0E90123DEE71CD900089CD9000813
:103C80002DE9F04FD1F810801569A84585B00E4692
:103C9000924605DB2A46534645468A4690461E46CE
:103CA000DAF80830DAF8041005EB0804A342B8BFCC
:103CB0000131FFF78BFE8446002800F08B8000F175
:103CC000140707EB840E774505D23B46002243F8E4
:103CD000042B9E45FBD8143606EB88080AF114091C
:103CE000464509EB850566D2A5EB0A03153B23F093
:103CF00003030AF1150A043355452CBF9B464FF0C8
:103D0000040BCDF808E00394AE46E24605E0090C4A
:103D10002AD1B04507F104074AD956F8041B8DB2E1
:103D2000002DF4D0CC463C46002301965CF8040BF1
:103D3000216886B28AB2000C05FB0622090C1A44DF
:103D400005FB001101EB124192B242EA0142E64545
:103D500044F8042B4FEA1143E8D8019E47F80B3092
:103D600056F8041C090CD4D03B68002248461D4676
:103D70003C469446028801FB02C202EB15429BB20C
:103D800043EA024344F8043B50F8043B25684FEAF9
:103D9000134CABB201FB0C3303EB124370454FEAFB
:103DA000134CE7D3B04547F80B3007F10407B4D8FC
:103DB000DDE902E4D446002C02DC05E0013C03D03E
:103DC0005EF8043D002BF9D06046CCF8104005B0F9
:103DD000BDE8F08F034B044862464FF4B171FFF722
:103DE000CFFD00BF1CD900089CD9000812F00303C6
:103DF0002DE9F041144607462CD10D46A4101CD0E5
:103E00003E6C86B3E3074FF0000806D4641014D06C
:103E10003068A8B10646E307F8D532462946384649
:103E2000FFF72EFF35B17B6C696853F821202A60BB
:103E300043F8215064100546EAD12846BDE8F081D8
:103E4000324631463846FFF71BFF3060C0F800802D
:103E50000646E0E7013B0F4A52F823200023FFF714
:103E6000E5FD0546CAE701213846FFF7AFFD0646E6
:103E700040B1012340F27122C0E9043200233864CA
:103E80000360BFE7044B0548324640F24511FFF797
:103E900077FD00BF20D600081CD900089CD9000877
:103EA0002DE9F0470C4690462769A368496807EB5F
:103EB00062177D1C9D4206464FEA621904DD5B00D5
:103EC0009D4201F10101FADC3046FFF77FFD844697
:103ED000002851D0B9F1000F00F114000EDD09F1F6
:103EE00005024FEA820E03460CEB8202002143F8E2
:103EF000041B9342FBD1AEF114031844216904F171
:103F0000140318F01F0803EB81012DD0C8F120091C
:103F100086464FF0000A1A6802FA08F242EA0A02DC
:103F20004EF8042B53F8042B994222FA09FAF2D8DE
:103F30000B1B153B23F00303043304F115029142DC
:103F400038BF042340F803A0BAF1000F00D13D466A
:103F5000736C6268CCF8105053F8221021606046F0
:103F600043F82240BDE8F087043853F8042B40F8AA
:103F7000042F9942F9D8EAE7034B044862464FF40C
:103F8000EF71FFF7FDFC00BF1CD900089CD90008A9
:103F90000B6984460069C01A16D10CF1140C143157
:103FA0000CEB830210B401EB830301E0944508D2CB
:103FB00052F8044D53F8041D8C42F7D005D24FF04F
:103FC000FF305DF8044B7047704701205DF8044BEB
:103FD000704700BF2DE9F04F15460A692B69D21AC8
:103FE000002A83B0884640F0878001F1140605F16D
:103FF000140101EB830106EB830301E09E427ED2B4
:1040000053F8044D51F8042D9442F7D075D32B4644
:104010000024454698466968FFF7D8FC8146002889
:1040200000F089802E69C460D8F8100005F1140BE7
:1040300008F1140E09F1140A05F110020EEB8000CC
:104040000BEB860157464FF0000CCDF804B05EF83C
:10405000044B52F8045F1FFA84FBABB2A3EB0B03D3
:10406000240C6344C4EB154404EB23449BB243EAA1
:104070000443704547F8043B4FEA244CE7D8A0EBD3
:10408000080208F115084045A2F1150234BF0020CE
:10409000012092080028DDF804B002F101044FEA83
:1040A000840408BF04240BEB0405A942544433D90B
:1040B0002746284650F8043B1CFA83FE1A0C63443A
:1040C00002EB2E429BB243EA0243814247F8043B93
:1040D0004FEA224CEED80139491B21F003010C4470
:1040E00023B954F8043D013E002BFAD04846C9F8E4
:1040F000106003B0BDE8F08F89DA01248BE700215E
:10410000FFF764FC814678B101220023C0E9042353
:10411000484603B0BDE8F08F00284FEA820208BF8E
:1041200000220AEB0204DBE7064B07484A4640F24E
:104130003721FFF725FC034B03484A4640F245214F
:10414000FFF71EFC1CD900089CD9000882B08DED39
:10415000000B164B019A1340A3F15073002B06DDA0
:1041600000221946104641EC100B02B070475B422A
:10417000B3F1A07F4FEA235209DA4FF40023134131
:1041800000221946104641EC100B02B07047A2F114
:1041900014031E2BDABF4FF00042DA400122002345
:1041A0001946104641EC100B02B070470000F07F3A
:1041B000F8B5046900F1140606EB8404271F54F8CF
:1041C000045C2846FFF7DCFCC0F120030A280B60E2
:1041D00033DDBE42A0F10B0119D254F8080C21B313
:1041E000C1F120078D4020FA07F215438840A4F161
:1041F000080145F07F538E4243F4401319D254F81E
:104200000C1CF9400843024643EC102BF8BD0B2868
:104210000AD005FA01F141F07F53002043F4401326
:10422000024643EC102BF8BD002045F07F5343F4C9
:104230004013024643EC102BF8BDC0F10B0C25FADD
:104240000CF1BE4241F07F5338BF54F8081C00F116
:10425000150034BF21FA0CF1002105FA00F00843E3
:1042600043F44013024643EC102BF8BD2DE9F04314
:104270000E4683B0012159EC108B1546FFF7A6FBC3
:104280000446002846D0C9F30A57C9F313030FB1F7
:1042900043F480130193B8F1000313D101A8FFF791
:1042A00091FC019B63610122203022610FB3A7F2D0
:1042B00033470744C0F1350037602860204603B01B
:1042C000BDE8F08368460093FFF77CFC019BF8B1E2
:1042D0000099C0F1200203FA02F2C3400A4301939D
:1042E000002B62610CBF01220222A3612261002F18
:1042F000DDD104EB8203A0F2324030601869FFF791
:104300003FFCC0EB42102860204603B0BDE8F083BC
:10431000009AE5E7034B0448224640F20F31FFF7CD
:104320002FFB00BF1CD900089CD900082DE9F043E1
:1043300083B0884669468146FFF73AFF01A94046A7
:1043400055EC104BFFF734FFD8F81030D9F8102097
:10435000D21ADDE900315B1A03EB4213002B59EC52
:10436000108B0DDD05EB03573D4642464B4620467C
:10437000294601F09DFF41EC100B03B0BDE8F0832E
:10438000C3EB033309EB03518946EEE7172870B5F9
:1043900006460CDD0A490B4D0020002422462B4620
:1043A00001F05CFE013EF9D141EC100B70BD064BF3
:1043B00003EBC003D3E9040141EC100B70BD00BF57
:1043C0000000F03F0000244020D6000801394911C8
:1043D00001F1010C116902F1140303EB81018B421D
:1043E00000EB8C0C16D210B5A0F1040E53F8044B60
:1043F0004EF8044F9942F9D88B1A153B23F003036A
:1044000004331844844504D9002340F8043B844510
:10441000FBD810BD844505D9002340F8043B8445F2
:10442000FBD87047704700BF03694A11934200F1FF
:10443000140009DA00EB830302E053F8042DAAB953
:104440008342FAD80020704700EB8203F8DD11F0B8
:104450001F01F5D010B450F8224024FA01F28A402E
:10446000944209D001205DF8044B70470120704749
:1044700053F8042D002AF5D18342F9D800205DF8C5
:10448000044B7047F03070470048704738060020F2
:1044900000487047380600202DE9F041B1F90C3092
:1044A0000C46990796B008D504F143030122C4E9EC
:1044B0000432236016B0BDE8F081B4F90E10002973
:1044C000064626DB6A4600F049F900281FDB019DFD
:1044D00005F47045A5F50055B5FA85F54FF48068EB
:1044E0006D094FF4006741463046FDF71FFDE8B106
:1044F000B4F90C30C4F8148043F0800320602061CC
:10450000A3813DBB3B43A38116B0BDE8F081B4F964
:104510000C3013F0800519D04FF0400800254146BB
:1045200030462F46FDF702FD0028E1D1B4F90C30EA
:104530009A05BFD423F0030304F1430243F00203BE
:104540000121C4E90421A3812260B3E74FF480680C
:104550002F46C8E7B4F90E10304600F015F910B92F
:10456000B4F90C30CEE7A38923F0030343F0010331
:104570001BB2C7E770B50C46B1F90E10002996B012
:1045800015461E4614DB6A4600F0E8F800280FDBEB
:10459000019901F47041A1F50051B1FA81F14FF494
:1045A000806349094FF4006031602B6016B070BD24
:1045B000A18911F0800106D0002140230846316016
:1045C0002B6016B070BD4FF48063084631602B60DD
:1045D00016B070BD10B4034CD4F8E440A4465DF8A6
:1045E000044B60474805002082B049B15AB16BB115
:1045F00013780B601278101E18BF012002B07047AC
:1046000001A9002AF3D1104602B070476FF00100F3
:10461000F4E700BF08B5062000F0E4FA012008F036
:10462000B4F800BF38B5A1FB021454BBFDF77EFC03
:10463000054650B350F8042C22F00302043A242A11
:1046400010D8132A13D91B2AC0E9004416D9242AEA
:10465000C0E902440ABFC0E9044400F1100200F1BD
:10466000180205E02146FBF737FE284638BD024612
:104670000023C2E900339360284638BD00F10802E8
:10468000F6E7FBF77BFE0C2303600025284638BDC8
:1046900038B50C46084D8446114620461A4600237C
:1046A0002B60644608F077F8431C00D038BD2B68B7
:1046B000002BFBD0236038BD000D00200CB400B5EA
:1046C00083B004AB53F8042B019300F0C7FB03B095
:1046D0005DF804EB02B070470EB410B583B005ABC3
:1046E000064C53F8042B01930146206800F0B6FBFA
:1046F00003B0BDE8104003B0704700BF00000020C9
:1047000010B4034CD4F8E040A4465DF8044B604775
:104710004805002049B1FF2A02D80A7001207047DD
:104720008A2303604FF0FF3070470846704700BF90
:1047300038B50C46084D8446114620461A460023DB
:104740002B60644608F035F8431C00D038BD2B6858
:10475000002BFBD0236038BD000D002070B50C4647
:10476000084D03460026204611461C462E6008F0E0
:1047700019F8431C00D070BD2B68002BFBD02360C0
:1047800070BD00BF000D002038B5074D0022044663
:1047900008462A6008F00BF8431C00D038BD2B688F
:1047A000002BFBD0236038BD000D00209368002B48
:1047B00000F0F8802DE9F04FB1F90CC01CF0080FA3
:1047C00083B0904681460C4631D00B697BB31CF018
:1047D0000207D8F8006038D00027D4F824B0E16987
:1047E000DFF8C4A23D4655452B463A4628BF5346FE
:1047F0004846C5B1D847002840F3CA80D8F80830E9
:104800001B1A07442D1AC8F80830002B00F0B68098
:1048100055452B46D4F824B0E16928BF53463A46A3
:104820004846002DE6D1D6E900750836DBE721467B
:104830004846FEF7FDFD002840F0AF80B4F90CC0FB
:10484000D8F800601CF00207C6D11CF0010A63D141
:104850002368A168574618468B46002F58D01CF491
:10486000007F00F0B580B9420A4600F2E1801CF4F6
:10487000906F2FD0216962695D1A02EB420202EB50
:10488000D2726B1C52103B44934292BF93469B469C
:104890001A461CF4806F00F0EA8011464846FDF786
:1048A00045FB002800F0F9802A4621690090FBF7BB
:1048B0006BFDA289009B22F4906242F08002A281EB
:1048C0005819ABEB0505C4F814B02361A56020604E
:1048D000BB463A465146009200F040FAA168236870
:1048E000009AA1EB0B011A443D46A160226000270B
:1048F000D8F808305B1BAA44C8F80830002B3DD01C
:104900002368A168B4F90CC018468B46002FA6D1C5
:10491000D6E900A708369EE73846BB463D460097D5
:10492000002D41D0002846D0009A2068A168D4E923
:104930000473AA4228BF2A46B84204D901EB030AED
:10494000524500F38580934275DCE169676A5A46F7
:104950004846B847B0F1000A1ADD009BB3EB0A03E2
:1049600000930FD00120D8F80830A3EB0A03D344FA
:10497000A5EB0A05C8F80830002BD1D1002003B000
:10498000BDE8F08F21464846FDF796FA0028EAD0A8
:10499000B4F90C3043F04003A3814FF0FF3003B073
:1049A000BDE8F08F00207047756833460836002D4B
:1049B000FAD0D3F800B02A460A215846FDF790F9FC
:1049C000002867D00130A0EB0B0300931A46ACE738
:1049D00022699A4214D36269BA4211D86FF0004337
:1049E000BB4228BF3B46656A93FBF2F3E16902FBD9
:1049F00003F348465246A847051EC9DD7F1B77E7EB
:104A0000B94228BF39460D4618460A46514600F0BD
:104A1000A5F9A1682368491B2B44A16023600029E4
:104A2000ECD121464846FDF747FA0028E6D0AFE72B
:104A3000BB463A464EE75946019200F08FF9019A7B
:104A4000A3689B1AA360236813442360924684E7FB
:104A50005946524600F082F92368534423602146A8
:104A60004846FDF729FA00283FF477AF90E748461B
:104A700000F096FF034600287FF422AF21694846E4
:104A8000FEF794FDB4F90C300C22C9F8002023F095
:104A900080037FE76A1C009247E70C22B4F90C30D0
:104AA000C9F8002076E700BF00FCFF7F38B5D0F8DA
:104AB00018410CB1002038BD80210546FDF736FABB
:104AC0000246C5F8180130B1031F7C3243F8044F89
:104AD0009342FBD1EEE74FF0FF3038BD30B51F29D0
:104AE00083B0054609D8D0F818310C4653B153F8B5
:104AF000240043F8242003B030BD162303604FF098
:104B0000FF30F8E780210192FDF710FA019AC5F80D
:104B1000180103460028F2D0011F00F17C05002097
:104B200041F8040FA942FBD1E1E700BF1F2938B5C6
:104B300005461FD8D0F818210C466AB152F821302A
:104B400053B1012B06D0591C10D0002142F824107B
:104B500020469847002038BD284600F0FDF8224640
:104B600001462846BDE8384000F0E0B8162303604F
:104B7000012038BD162303604FF0FF3038BD00BF61
:104B80001F292CD838B5D0F818310C460546A3B1EA
:104B900053F8242003EB84034AB1511C0BD0012AA3
:104BA00007D0002520461D609047284638BD0120CB
:104BB00038BD032038BD022038BD8021FDF7B6F98D
:104BC0000346C5F8180138B1021F00217C3042F8B5
:104BD000041F8242FBD1DBE74FF0FF3038BD4FF0BE
:104BE000FF30704738B5144B1F281D681ED8D5F804
:104BF0001821044662B152F820304BB1012B05D088
:104C0000591C0FD0002142F820109847002038BDD1
:104C1000284600F0A1F8224601462846BDE8384063
:104C200000F084B816232B60012038BD16232B60BA
:104C30004FF0FF3038BD00BF00000020124B1F288E
:104C400070B51E6809D8D6F8183104460D464BB128
:104C500053F8240043F8245070BD162333604FF0FE
:104C6000FF3070BD80213046FDF760F90346C6F87D
:104C700018010028F3D0021F00217C3042F8041FE5
:104C80008242FBD1E4E700BF0000002038B50C4BA6
:104C90001D68D5F818410CB1002038BD8021284688
:104CA000FDF744F9C5F8180138B1031F00F17C0283
:104CB00043F8044F9342FBD1EEE74FF0FF3038BD8D
:104CC0000000002038B5184B1F281D6828D804465E
:104CD000D5F81801A0B150F8243000EB84004BB196
:104CE0005A1C0BD0012B07D00025056020469847A1
:104CF000284638BD012038BD032038BD022038BD0C
:104D000080212846FDF712F9C5F8180140B1031FAC
:104D100000F17C01002243F8042F8B42FBD1DAE73B
:104D20004FF0FF3038BD00BF0000002070B50C46CA
:104D3000084D03460026204611461C462E6007F00B
:104D40001CFD431C00D070BD2B68002BFBD02360E2
:104D500070BD00BF000D002007F00DBD88420ED9C8
:104D60008B1883420BD900EB020C002A6ED06246EE
:104D700013F801CD02F801CD9942F9D170470F2AFD
:104D80000FD8034602F1FF3C002A5FD00CF1010C62
:104D9000013B8C4411F8012B03F8012F6145F9D137
:104DA000704740EA01039B0751D1A2F1100370B58F
:104DB00001F1200C23F00F0501F1100E00F1100499
:104DC000AC441B095EF8105C44F8105C5EF80C5CA7
:104DD00044F80C5C5EF8085C44F8085C5EF8045C1F
:104DE00044F8045C0EF1100EE64504F11004E9D11C
:104DF000013312F00C0F01EB031102F00F0400EB72
:104E0000031328D0043C24F003064FEA940C1E44FC
:104E10001C1F8E465EF8045B44F8045FB442F9D16F
:104E20000CF1010402F0030203EB840301EB8401A3
:104E300002F1FF3C4AB10CF1010C013B8C4411F82A
:104E4000012B03F8012F6145F9D170BD704702F1C4
:104E5000FF3C03469AE72246EAE700BF2DE9F04F00
:104E6000ADB0CDE907301C460291934618B1436BB3
:104E7000002B00F003850299B1F90C204B6E9504CC
:104E800005D442F4005223F400538A814B669804FF
:104E900000F12485029BB3F90C20110740F1D38067
:104EA0001B69002B00F0CF8002F01A020A2A00F0E2
:104EB000D9800023CDE910330DF17009CDF83C9075
:104EC0000993CA4605939BF80030002B00F0F4804C
:104ED0005C4604E014F8013F002B00F0D280252B43
:104EE000F8D1B4EB0B0540F0CF802378002B00F015
:104EF000E3804FF000038DF837304FF0FF3200238E
:104F0000CDE90323617804F1010B98460BF1010B05
:104F1000A1F12003582B00F2DC80DFE813F0B2018E
:104F2000DA00DA00AD01DA00DA00DA00DA00DA00DD
:104F3000DA007601A701DA0081018601DA00A20118
:104F40005900590059005900590059005900590099
:104F50005900DA00DA00DA00DA00DA00DA00DA0002
:104F6000DA00DA00DA006800DA00DA00DA00DA00E3
:104F7000DA00DA00DA00DA00DA00DA001902DA0020
:104F8000DA00DA00DA00DA00EA01DA00DA001D04F9
:104F9000DA00DA00DA00DA00DA00DA00DA00DA0041
:104FA000DA00DA00DD016A00DA00DA00DA00D8019E
:104FB0006A00DA00DA00CB01DA00BD011B047F02CF
:104FC0007A02DA005902DA001904DA00DA0042043F
:104FD000A1F1300300221BF8011B02EB820203EB5C
:104FE0004202A1F13003092BF5D9049290E748F071
:104FF000100818F0200F00F0D780079B073323F02C
:1050000007031A46596852F8083B07920A460029D6
:10501000C0F2DE8003999DF837500029C0F2E3808A
:1050200053EA020128F0800840F0DD80039B002B4A
:1050300040F0598401934C46002D00F0BE81019A46
:1050400001320192B9E1029D08982946FEF7F0F974
:10505000002840F04384B5F90C2002F01A020A2A15
:105060007FF427AF029BB3F90E30002BFFF621AF80
:105070000299089823465A462DB0BDE8F04F00F03B
:1050800059BCB4EB0B0517D0119B2B441193109B0B
:105090000133072BCAE900B5109305DC0AF1080AB1
:1050A000059B2B44059320E7029908980FAAFEF769
:1050B00057FC28B9CA46F3E7119B002B40F0008447
:1050C000029B9B895B0600F1098405982DB0BDE821
:1050D000F08F0029F0D000238DF8373001238DF8B0
:1050E0004810019312AC00220392069218F0840734
:1050F000DDE9102105D10498019D451B002D00F329
:105100004F829DF8370080B101320DF13700013137
:10511000CAF80000072A4FF00100CDE91021CAF8B3
:10512000040000F377820AF1080A069878B1013288
:105130000EA80231CAF80000072A4FF00200CDE99C
:105140001021CAF8040000F373820AF1080A802FC4
:1051500000F09B810398C51A002D00F3D581013220
:105160001944072ACDE91021CAF80040CAF80430D2
:1051700000F302820AF1080A18F0040F05D0049B1C
:10518000019A9C1A002C00F36182DDE90423019846
:105190008242ACBF9B181B180593002940F0F78191
:1051A00000231093CA468EE6079A18F0100F52F8A3
:1051B000043B079207D118F0400F04D043F3C032EC
:1051C00011461BB223E7DA1711460029BFF622AFBA
:1051D00003995B4262EB42022D2500298DF837507E
:1051E00001DB28F080080A2B72F1000180F0F382C5
:1051F0003033DBB28DF86F30039B012BB8BF012336
:1052000001930DF16F04012316E7079B53F8042B5C
:105210000492002A80F28882049A079352420492F0
:105220009BF8001048F0040870E6584610F8011B7F
:105230002A2900F05A83A1F13003092B98BF0022DC
:1052400000F2478310F8011B02EB820203EB4202DB
:10525000A1F13003092BF5D942EAE27303938346A7
:1052600056E69BF8001048F080084FE62B239BF889
:1052700000108DF8373049E69BF8001048F001081F
:1052800044E69DF837309BF80010002B7FF43EAECB
:1052900020238DF8373039E618F0200F00F04D82CA
:1052A000079B059A1B681A60D2175A60079B043344
:1052B000079308E69BF800106C2903BF9BF80110C8
:1052C00048F020080BF1010B48F010081EE69BF88F
:1052D000001048F0400819E6079B00228DF837209F
:1052E00053F8042B079301238DF84820019312AC47
:1052F000F9E648F0100111F0200200F0DE81079B72
:10530000073323F0070318465A6850F8083B079004
:1053100003980025A8428DF83750C0F2A7820125D6
:1053200053EA020021F0800840F09480039800289E
:1053300040F09E82002D40F0F38111F0010300F057
:10534000F88130228DF86F2001930DF16F0434E065
:1053500048F0100111F0200200F0BE81079B0733D6
:1053600023F0070318465A6850F8083B0790039843
:105370000025A8428DF83750D2DA88464C4603F013
:105380000701DB0843EA4273D208303153EA0205D1
:10539000204604F8011DF2D118F0010F6DD030291C
:1053A0006BD0039A0238302304F8013CA9EB0003C8
:1053B0009A42B8BF1A460446019218F002020692B9
:1053C0003FF494AE019A02320192022206928DE6D7
:1053D000079D039B55F8044B00218DF83710002CD6
:1053E00000F05E82002BC0F2DF811A462046FCF7F7
:1053F00077FC002800F06B82031B9DF8372023EA1E
:10540000E3710191002A00F0528200220795039275
:1054100015E69BF8001048F0200877E5079A52F847
:10542000043B079247F63002ADF83820B24A0992A1
:1054300048F00208002200218DF837100399002956
:105440000DDB414653EA02004FF0020521F08008CF
:105450003FF46CAF012D00F05482022D8ED10998DB
:105460004C4603F00F011B09415C04F8011D43EA9F
:105470000273120953EA0201F3D1039AA9EB040360
:105480009A42B8BF1A46019297E70498019D451BBE
:10549000002D7FF75FAE102D984E23DD0694504609
:1054A000089C10279A4604E0103D102D00F10800DA
:1054B00015DD01321031072AC0E90067CDE910215E
:1054C000F2DD02990FAA2046FEF74AFA00287FF47F
:1054D000F7AD103D102DDDE910214846E9DC069CB2
:1054E0005346824601322944072ACDE91021CAF8E1
:1054F0000060CAF8045000F3C5810398C51A002D56
:105500000AF1080A7FF72BAE102D7C4E26DD03949E
:105510005046089CB24610271E4604E0103D102D50
:1055200000F1080016DD0132744B1031072AC0E982
:105530000037CDE91021F1DD02990FAA2046FEF7D0
:105540000FFA00287FF4BCAD103D102DDDE91021CD
:105550004846E8DC039C33465646824601322944DD
:10556000072ACDE91021CAF80060CAF8045000F3F8
:10557000C9800AF1080AF2E5029908980FAAFEF715
:10558000EFF900287FF49CAD1199CA46F4E5029921
:1055900008980FAAFEF7E4F900283FF401AE8FE562
:1055A000102D574E28DDCDE90A7450463746089C29
:1055B000029E9A4604E0103D102D00F1080016DD11
:1055C000013210311023072ACDE910210760436012
:1055D000F1DD0FAA31462046FEF7C2F900287FF41C
:1055E0006FAD103D102DDDE910214846E8DC3E4648
:1055F0000B9C0A9F5346824601322944072ACDE973
:105600001021CAF80060CAF8045000F321810AF1A1
:10561000080A76E5029908980A930FAAFEF7A0F9FE
:1056200000287FF44DADDDE910210A9BCA467CE5D8
:105630000299089806930FAAFEF792F900287FF4C2
:105640003FADDDE91021069BCA4680E5102C109B7A
:105650002B4E1FDD089FDDF80880102504E0103C6C
:10566000102C0AF1080A15DD01331031072BCAE9A5
:105670000065CDE91031F2DD0FAA41463846FEF74C
:105680006FF900287FF41CAD103C102CDDE91031BF
:10569000CA46E9DC01332144072BCAE90064CDE99D
:1056A00010317FF772AD029908980FAAFEF758F9EA
:1056B00000287FF405AD119967E5079850F8043B81
:1056C000079011F010007FF423AE11F040023FF478
:1056D0001FAE9BB202461BE6079850F8043B0790AA
:1056E00011F010007FF443AE11F040023FF43FAEE2
:1056F0009BB202463BE600BFECD800085CD800082D
:105700004CD800080299089803930FAAFEF728F9CD
:1057100000287FF4D5ACDDE91021039BCA461EE5C5
:10572000039B01934C4648E69BF800100793FFF754
:10573000EDBB039A01924C463FE618F0100F38D1AA
:1057400018F0400F35D0079B059A1B681A80ADE50D
:105750004146D0E54146FDE56B4B099318F0200228
:105760002CD0079B073323F0070318465A6850F8DC
:10577000083B079018F0010F3FF45DAE53EA0200BA
:105780003FF459AE8DF8391030218DF838100021D2
:105790008DF837100399002980F28D8048F00208B7
:1057A0005DE65A4B0993D9E72046FAF729FD0346EF
:1057B00023E6079B059A1B681A6077E5079850F85F
:1057C000043B079018F01000D4D118F040021CBF21
:1057D0009BB20246CEE74E4ECDF804A04C464FF0A9
:1057E000050E991841F10001A6FB010727F00300FF
:1057F00000EB9700091A581A9A46944662F1000382
:105800004FF0CC3202FB00F206FB0322A0FB063075
:1058100003F001070244A7FB0E074018BAF10A0F74
:105820004FEA530300F130007CF1000C43EAC273ED
:1058300004F8010D4FEA5202D3D2039ADDF804A016
:10584000A9EB04039A42B8BF1A460192FFF7F4BBD2
:10585000029908980A930FAAFEF782F800287FF4AD
:105860002FACDDE910210A9BCA464AE48846BAE417
:10587000012D7FF4F2AD00253023BBE4FAF766FF7B
:10588000FFF7F9BA0299089806930FAAFEF768F88D
:1058900000287FF415ACDDE91021069BCA4659E4C7
:1058A000062B28BF06231B4C079501931BE4CDE96B
:1058B000062503921AE428F0800141F00208CEE5A3
:1058C000029908980FAAFEF74BF8FFF7F9BB039B64
:1058D00093E5002383460393FFF71ABB4FF0FF3392
:1058E0000593FFF7F2BB302384E4079B9BF801107C
:1058F00053F8042B079342EAE27283460392FFF7C0
:1059000005BB00256FE400BFD8D80008ECD800081C
:10591000CDCCCCCC00D9000810B4054C844613463D
:1059200020685DF8044B0A466146FFF797BA00BF4E
:105930000000002070B50C468989ADF58D6D21F011
:105940000201ADF80C101AA9009104914FF4806186
:1059500002910591616E1991E189ADF80E10E1692E
:105960000791616A09910021069169460646FFF791
:1059700075FA051E07DB69463046FCF79DFA0028DC
:1059800018BF4FF0FF35BDF80C305B0603D5A38977
:1059900043F04003A38128460DF58D6D70BD00BF17
:1059A0002DE9F84F1646002900F096800C468046F7
:1059B00006F10B05FDF7ACFF54F8041C162DA4F1FD
:1059C000080921F0030758D81025AE4258D8AF4235
:1059D00060DABE4B9A6809EB070C6245DCF80400FC
:1059E00000F0908020F0010363445B68DB0768D41B
:1059F00020F003003B189D4247DDCB0712D454F83A
:105A0000083CA9EB030BDBF8043023F0030210443D
:105A100000EB070A554540F3F68007EB020A5545AF
:105A200040F3CC8031464046FCF780FA0646002819
:105A300000F0208154F8043C23F001034B44A0F112
:105A40000802934200F0B4803A1F242A00F2D78063
:105A5000132A00F2A2800346224611681960516899
:105A6000596092689A6021464046FDF79FFD404686
:105A7000FDF750FF3046BDE8F88F35F00705A4D597
:105A80000C23C8F80030002618E01F46DCE902238A
:105A9000D3609A60D9F804307A1B0F2A03F001030F
:105AA00009EB07001DD83B43C9F80430436843F0B5
:105AB000010343604046FDF72DFF26463046BDE812
:105AC000F88FC907AED454F8083CA9EB030BDBF8F8
:105AD000043023F00302A0E7BDE8F84F1146FCF7BD
:105AE00025BA09EB05012B4342F00102C9F8043045
:105AF0004A60436843F00103436008314046FDF7C4
