:020000040800F2
:1000000000000220D560000825610008E7570008BD
:100010002561000825610008256100080000000036
:10002000000000000000000000000000D95200089D
:100030002561000800000000215300083154000829
:100040002561000825610008256100082561000878
:100050002561000825610008E90E000825610008F7
:10006000F30E0008256100082561000825610008DD
:100070002561000825610008256100082561000848
:10008000256100082561000809590008256100085C
:1000900025610008255F0008355F0008256100081C
:1000A0002561000825610008256100082561000818
:1000B0002561000825610008256100082561000808
:1000C00025610008256100082561000825610008F8
:1000D0002561000895600008A5600008B56000086B
:1000E00025610008256100082561000825610008D8
:1000F00025610008256100082561000825590008D0
:1001000025610008256100082561000825610008B7
:100110007560000885600008C53600082561000884
:100120002561000825610008256100082561000897
:100130002561000825610008256100082561000887
:100140002561000825610008256100080000000005
:10015000000000000000000000000000000000009F
:100160000000000000000000000000002561000801
:100170002561000825610008256100082561000847
:100180002561000825610008256100082561000837
:100190002561000800000000455F0008555F000869
:1001A000655F0008755F000825610008C5600008EC
:1001B0002561000825610008256100082561000807
:1001C00025610008256100082561000825610008F7
:0801D00025610008256100080B
:1001D800830730B547D0541E002A3ED0CAB2034622
:1001E80001E0013C39D303F8012B9D07F9D1032C19
:1001F8002CD9CDB205EB05250F2C05EB054535D9D6
:10020800A4F1100222F00F0C03F1100EE6444FEA9D
:10021800121C1A46C2E90055C2E90255103272454D
:10022800F8D10CF1010214F00C0F03EB021204F0E8
:100238000F0C13D0ACF1040323F00303043313446D
:1002480042F8045B9342FBD10CF003042CB1C9B211
:100258001C4403F8011BA342FBD130BD644613467E
:10026800002CF4D1F9E703461446C0E71A46A44621
:10027800E0E700BF014B1868704700BF000000208E
:10028800844641EA000313F003036DD1403A41D399
:1002980051F8043B40F8043B51F8043B40F8043B58
:1002A80051F8043B40F8043B51F8043B40F8043B48
:1002B80051F8043B40F8043B51F8043B40F8043B38
:1002C80051F8043B40F8043B51F8043B40F8043B28
:1002D80051F8043B40F8043B51F8043B40F8043B18
:1002E80051F8043B40F8043B51F8043B40F8043B08
:1002F80051F8043B40F8043B51F8043B40F8043BF8
:1003080051F8043B40F8043B51F8043B40F8043BE7
:10031800403ABDD2303211D351F8043B40F8043B87
:1003280051F8043B40F8043B51F8043B40F8043BC7
:1003380051F8043B40F8043B103AEDD20C3205D397
:1003480051F8043B40F8043B043AF9D2043208D08F
:10035800D2071CBF11F8013B00F8013B01D30B8801
:1003680003806046704700BF082A13D38B078DD0DF
:1003780010F003038AD0C3F10403D21ADB071CBFB1
:1003880011F8013B00F8013B80D331F8023B20F81B
:10039800023B7BE7043AD9D3013A11F8013B00F854
:1003A800013BF9D20B7803704B7843708B788370DC
:1003B80060467047194B1B6883422ED0416C70B55C
:1003C800054681B100268C593CB12146246828464F
:1003D80000F0AAF8002CF8D1696C0436802EF2D10E
:1003E800284600F0A1F8A96B11B1284600F09CF846
:1003F8002C6C34B121462468284600F095F8002C6E
:10040800F8D1E96C11B1284600F08EF86B6B1BB17E
:100418002846BDE87040184770BD704700000020AE
:1004280070B50F4B0F4DAB42A3EB050607D0B610C6
:10043800002455F8043B01349847A642F9D805F042
:10044800CDF9094D094B5E1BAB424FEAA60606D013
:10045800002455F8043B01349847A642F9D870BDEA
:10046800A8610008A8610008A8610008A861000840
:100478002DE9F84306460820894600F051F9DFF8CF
:10048800A4800546304600F059F9D8F808305F686E
:1004980027F00307A7F11104A4EB09042C44B4FBCB
:1004A800F5F4013C05FB04F4A54208DC00213046C4
:1004B80000F048F9D8F808303B44984205D0304657
:1004C80000F03EF90020BDE8F8836142304600F0B4
:1004D80039F901300FD0114AD8F808303F1B47F0DE
:1004E80001075F60136830461B1B136000F028F992
:1004F8000120BDE8F8830021304600F023F9D8F840
:100508000820831A0F2BDADD43F001035360044BF4
:1005180002491B68C01A0860D1E700BFCC0C002054
:10052800300500202801002000297CD02DE9F04169
:100538000C46804600F002F954F8043C754FA4F1CB
:10054800080523F001016818BE684268864222F057
:10055800030200F08380DE07426000EB020C33D414
:1005680054F8084CDCF804302D1B2144AC6807F122
:10057800080C644503F0010364D0D5F80CE0C4F816
:100588000CE0CEF80840002B00F0818041F0010318
:100598006B600160B1F5007F22D27868CB08012238
:1005A800490901338A40024357F833107A6007EB50
:1005B800C302083AC5E9021247F83350CD604046F5
:1005C800BDE8F04100F0BCB8DCF80430DB072BD5FF
:1005D80041F00103B1F5007F44F8043C0160DCD32D
:1005E800B1F5206F4FEA512353D28B0903F139003B
:1005F80003F13802C300F818FB580838984203D1B1
:1006080061E09B68984204D05A6822F003028A424B
:10061800F7D8D868C5E902308560DD604046BDE896
:10062800F04100F08DB87047114407F1080C836859
:1006380063453FD0C268DA60936041F001036B60A4
:100648006950A7E7002B5FD10A44D0E90213CB60B9
:10065800996042F001036B60AA50B0E7DB070A44D7
:1006680007D454F8083CED1A1A44D5E90213CB60B4
:10067800996042F001036B60274BBD601B68934291
:100688009DD8264B40461968FFF7F2FE97E71144BC
:10069800CDE7142B08D9542B1DD80B0B03F16F0091
:1006A80003F16E02C300A6E703F15C0003F15B02ED
:1006B800C300A0E741F00103C7E90455C5E902CC2E
:1006C8006B6069507BE779689210012404FA02F2A2
:1006D8000A437A609EE7B3F5AA7F06D8CB0B03F1ED
:1006E800780003F17702C30085E740F25452934241
:1006F80006D88B0C03F17D0003F17C02C3007AE776
:100708004FF47E737E2276E741F001036B6001604F
:1007180055E700BF2801002034050020C80C002040
:10072800082802D14FF48050704708B5FFF7A2FDA2
:10073800162303604FF0FF3008BD00BF704700BFAD
:10074800704700BF38B5074D0022044608462A60A6
:1007580005F05EF8431C00D038BD2B68002BFBD099
:10076800236038BD880B002070B58CB004460E4657
:10077800154600230793089309930A930B9307914F
:100788000892324B984245D01CD8A3F50063984292
:100798002AD003F58063984231D0B0F1904F09D147
:1007A8002B4BDA6C42F00102DA64DB6C03F00103D4
:1007B8000193019B07A9204601F074FA012D3FD14E
:1007C8000CB070BD234B98422FD003F5806398423C
:1007D800F0D11F4BDA6C42F02002DA64DB6C03F0D4
:1007E80020030693069BE5E7194BDA6C42F00202F8
:1007F800DA64DB6C03F002030293029BDAE7144B22
:10080800DA6C42F00402DA64DB6C03F0040303934D
:10081800039BCFE70E4BDA6C42F00802DA64DB6C1C
:1008280003F008030493049BC4E7094BDA6C42F015
:100838001002DA64DB6C03F010030593059BB9E73B
:1008480000223146204601F024FBB9E7000C00489D
:10085800001002400010004800B595B03822002171
:1008680006A8FFF7B5FC00230193029303930493B2
:1008780005934FF4007001F029FB012206924FF412
:100888008033079302230D9303210E910F921422B4
:10089800109211931293139306A801F0D1FB78B923
:1008A8000F230193032302930023039304930593D7
:1008B800022101A801F07AFE28B915B05DF804FB01
:1008C80002F080FEECE702F07DFEF6E710B59CB082
:1008D800044600211791189119911A911B915422DD
:1008E80002A8FFF775FC4FF4805302934FF0007392
:1008F800109302A801F08CFFA8B9224A13680133AB
:100908001360012B12D0204BDA6C42F00102DA643A
:10091800DB6C03F001030193019B22681B4B9A4295
:100928000FD01CB010BD02F04DFEE6E7164B9A6DD5
:1009380042F000729A659B6D03F000730093009B70
:10094800E1E700220521582000F026FD582000F09C
:1009580033FD00220521592000F01EFD592000F02A
:100968002BFD4FF401431793022318930023199387
:100978001A930B231B9317A94FF0904001F092F99B
:10098800CFE700BF000D002000100240006C0040BF
:1009980000B587B01A4B18681A4B18601A4B0360D9
:1009A800002343608360C360037443748374142218
:1009B8004261012282610D21C1610221016242620C
:1009C8008262C262026342638363C36300930193DA
:1009D800029303930493059302910392694604F0EA
:1009E800ABFF012803D0002007B05DF804FB054BDE
:1009F800186805F051F80128F6D00020F4E700BF88
:100A0800BC060020FC0C0020006C004010B50C4611
:100A180013460B49086022460A48006805F0AAF9FF
:100A280030B12021084800F067F80124204610BDA5
:100A3800044600222021044800F058F8F6E700BFD9
:100A480038050020FC0C00200004004808B50246C8
:100A58000221024801F01DFA08BD00BF0004004849
:100A680008B5012202210348FFF77EFE0120FFF7A7
:100A7800EDFF08BD0004004810B501224FF4806165
:100A88004FF09040FFF770FE174C012208212046D6
:100A9800FFF76AFE012220212046FFF765FE0122AA
:100AA80010212046FFF760FE01224FF480412046C6
:100AB800FFF75AFE01224FF480612046FFF754FEEB
:100AC80001224FF400612046FFF74EFE04F58064D2
:100AD800012202212046FFF747FE01220821204675
:100AE800FFF742FE10BD00BF0004004818B108B56A
:100AF80001F0CFF908BD704718B108B501F0CEF97B
:100B080008BD704728B108B54FF44412FFF72CFE12
:100B180008BD7047D8B138B50C461546FFF7F2FF47
:100B280094FAA4F4B4FA84F4042C0AD8063464B20F
:100B380000222946204600F02FFC204600F03CFC0D
:100B480038BD092C01D81724F1E72824EFE77047AE
:100B580008B50E2800F28880DFE800F00811193B7C
:100B680043222B334C555D656D757D0004214FF094
:100B7800904001F087F9013818BF012008BD012114
:100B88003A4801F07FF9013818BF0120F6E7022141
:100B98004FF0904001F076F9013818BF0120EDE7D9
:100BA80001214FF0904001F06DF9013818BF012084
:100BB800E4E701212E4801F065F9013818BF01204A
:100BC800DCE780212A4801F05DF9013818BF0120CF
:100BD800D4E74021264801F055F9013818BF012013
:100BE800CCE74FF40071224801F04CF9013818BFE6
:100BF8000120C3E74FF480711D4801F043F9013823
:100C080018BF0120BAE72021194801F03BF9013843
:100C180018BF0120B2E71021154801F033F9013857
:100C280018BF0120AAE70421124801F02BF9013866
:100C380018BF0120A2E704210C4801F023F901386C
:100C480018BF01209AE70421094801F01BF901386F
:100C580018BF012092E74FF48051054801F012F9BE
:100C6800013818BF012089E7012087E70004004800
:100C780000080048000C004838B50E2802D90C4B73
:100C8800186838BD0C460125854004F095FB44B929
:100C9800074A13682B43136004F0B0FB044B186831
:100CA800EFE7034A136823EA05031360F4E700BF7C
:100CB800040D002010B582B0002201214FF09040B1
:100CC800FFF752FD002204214FF09040FFF74CFD42
:100CD800002202214FF09040FFF746FD3A4C0022D7
:100CE80001212046FFF740FD002204212046FFF79E
:100CF8003BFD04F58064002201212046FFF734FD06
:100D0800002280212046FFF72FFD002204212046E3
:100D1800FFF72AFD002210212046FFF725FD0022BB
:100D280020212046FFF720FD002240212046FFF722
:100D38001BFD00224FF400712046FFF715FD00222D
:100D48004FF480512046FFF70FFD00224FF48071C9
:100D58002046FFF709FD002204211C48FFF704FD87
:100D6800052201212046FFF7D5FE052204214FF078
:100D78009040FFF7CFFE164C164B0193164B00938D
:100D880000231A46C821204604F034FA134B186091
:100D9800134B0193134B009300231A46C821204696
:100DA80004F028FA104B18600020FFF7D1FE014626
:100DB8000020FFF761FF0620FFF7CAFE0146062064
:100DC800FFF75AFF02B010BD00040048000C0048AD
:100DD80028610008380D0020230E0008340D00207B
:100DE8000C0D0020F50D0008080D002008B50020A6
:100DF800FFF7AEFE01460020FFF73EFF0120FFF798
:100E0800A7FE01460120FFF737FF0220FFF7A0FEEB
:100E180001460220FFF730FF08BD08B50520FFF79F
:100E280097FE01460520FFF727FF0720FFF790FEF2
:100E380001460720FFF720FF0620FFF789FE01463D
:100E48000620FFF719FF08BD30B585B000240394CC
:100E58000C4B1D6803F08CFB0246009403AB062183
:100E6800284604F0F1F9039B4BB14FF0E0234FF013
:100E78008052C3F8042DBFF34F8FBFF36F8F05B0B7
:100E880030BD00BF340D002030B585B00024039478
:100E98000C4B1D6803F06CFB0246009403AB062163
:100EA800284604F0D1F9039B4BB14FF0E0234FF0F3
:100EB8008052C3F8042DBFF34F8FBFF36F8F05B077
:100EC80030BD00BF080D002008B5012802D0042855
:100ED80003D008BDFFF7B8FFFBE7FFF7D5FFF8E73A
:100EE80008B5012000F0E4FF08BD08B5042000F0B3
:100EF800DFFF08BD00B583B000230093019300F025
:100F08000F038DF8003000F0F0008DF80100FA2290
:100F180069466020FFF77AFD03B05DF804FB000026
:100F280010B582B003F01EFB01900B4C0DE04FF49E
:100F380000610A48FFF7E0FD053C08210848FFF773
:100F4800DBFDFA2101A803F0CDFC2046FFF7D2FF14
:100F58000128ECD1F0E700BF214305000004004858
:100F68000008004800B585B000F022F8FFF774FCCF
:100F7800FFF70EFDFFF780FDFFF79CFEFFF770FD02
:100F8800074B0293074B0193012300930023802210
:100F98000549064803F04EFA03F09EFAFEE700BF43
:100FA800600F0020600D00203C610008290F000838
:100FB80010B5032000F0DEF90F2002F027FB10B176
:100FC8000124204610BD044602F0FEFAF9E70000AD
:100FD800034A1368034909680B441360704700BF4C
:100FE800D81000205C050020014B1868704700BF2E
:100FF800D81000200368186C70477047F8B504468D
:1010080003681E685F68B3F1A04F64D0984A9342A2
:101018005FD0984B9D6805F01F0516F0020F10D0A1
:1010280017F0020F0DD0E36D13F0100F03D1E36D2D
:1010380043F40063E365204600F058F92368022270
:101048001A6016F0040F02D017F0040F05D116F03D
:10105800080F58D017F0080F55D0E36D13F0100F94
:1010680003D1E36D43F40073E3652368DA6812F48F
:10107800406F42D17E4A934232D002F58062934259
:101088002BD01A46934207D0092D2CD840F22121A3
:10109800E94011F0010F26D0DA6812F4005F2CD174
:1010A8001A6812F0080F28D09A6812F0040F1CD1A1
:1010B8005A6822F00C025A60E36D23F48073E365EA
:1010C800E36D13F4805F18D1E36D43F00103E3652A
:1010D80013E0694B9EE7684B9CE7A2F58072D1E765
:1010E8004FF0A042CEE7D268D7E7E36D43F0100394
:1010F800E365236E43F001032366204604F0AEFB4C
:1011080023680C221A6016F0200F02D017F0200F67
:1011180005D116F0400F63D017F0400F60D0E36D93
:1011280013F0100F03D1E36D43F40053E365236814
:10113800DA6C12F4C07F16D10121DA6812F4406F1C
:1011480013D101204A4A934214D002F58062934297
:101158000DD01A46934210D07DB1062D0DD0072D23
:101168000BD0D2680AE00021E7E70020EAE7A2F501
:101178008072EFE74FF0A042ECE7DA6851B312F063
:10118800007F03D030B312F4005F23D1196811F047
:10119800400F1FD012F4001F1CD19A6812F0080FDC
:1011A80010D15A6822F060025A60E36D23F480532C
:1011B800E365E36D13F4807F0CD1E36D43F0010325
:1011C800E36507E0E36D43F01003E365236E43F046
:1011D80001032366204600F085F8236860221A6020
:1011E80016F0800F02D017F0800F36D116F4807FEA
:1011F80002D017F4807F41D116F4007F02D017F493
:10120800007F47D116F0100F20D017F0100F1DD017
:10121800E36B6BB1002D4DD02368B3F1A04F47D0DD
:10122800134A934242D0134B9B6813F4604F0AD081
:10123800E36D43F48063E365236E43F002032366A2
:10124800204604F073FB236810221A6016F4806F9E
:1012580002D017F4806F33D1F8BDE36D43F48033C7
:10126800E3652046FFF7C9FE236880221A60BDE7C0
:10127800000100500007005000030050E36D43F4E4
:101288000033E365204600F02FF823684FF480729E
:101298001A60B1E7E36D43F48023E365204600F06C
:1012A80024F823684FF400721A60ABE70C4BBBE7D5
:1012B8000B4BB9E72368DB6813F0010FC3D0B7E71E
:1012C800E36D43F48043E365236E43F0080323662C
:1012D80023684FF480621A60204600F004F8BBE7E8
:1012E8000003005070477047704770477047000010
:1012F800002807DB00F01F02400901239340024A3F
:1013080042F82030704700BF00E100E0002808DB09
:101318000901C9B200F1604000F5614080F800138E
:10132800704700F00F000901C9B2014B195470470A
:1013380014ED00E000B500F00700C0F1070CBCF1A7
:10134800040F28BF4FF0040C031D062B0FD9C31E32
:101358004FF0FF3E0EFA0CF021EA000199400EFA18
:1013680003FE22EA0E0241EA02005DF804FB0023B4
:10137800EEE70000074AD36823F4E0631B041B0C64
:10138800000200F4E060034343F0BF6343F400331A
:10139800D360704700ED00E010B50446054BD868EF
:1013A800C0F30220FFF7C6FF01462046FFF7AEFF55
:1013B80010BD00BF00ED00E008B5FFF799FF08BDBC
:1013C800034690F82520D2B2022A09D00422C2632B
:1013D8000120012283F82520002283F82420704769
:1013E80001680A6822F00E020A60816C0A6822F419
:1013F80080720A6001680A6822F001020A60426C81
:1014080002F01F01006C01228A404260DA6C196DFB
:1014180051605A6D42B1116821F4807111609A6D62
:10142800D96D51600020D4E70020D2E708B590F8C4
:101438002530DBB2022B09D00423C363012380F8D3
:101448002530002280F82420184608BD0268136859
:1014580023F00E0313600268136823F0010313607E
:10146800826C136823F480731360436C03F01F02CB
:10147800016C012393404B60C36C026D5A60436D4D
:1014880033B11A6822F480721A60836DC26D5A6093
:10149800012380F82530002380F82430836B13B1B2
:1014A80098470020D1E70020CFE7000010B4026879
:1014B8001D4B9A4228D01D491D4B9A4226D00164E3
:1014C800D2F8803023F4F813446B43EA0443C2F89B
:1014D800803001F1700343640268D2F8803023F051
:1014E8007063846B43EA0463C2F8803001F1B0038F
:1014F800836401F5C473C36401F51873036501F5CA
:101508001E7343650B4607E00A49D5E701F5D46128
:10151800D5E7002243F8042B01F554729A42F8D813
:101528005DF8044B704700BF0068004000A400400D
:10153800006C004050A7004070B54C68ECB90D69CC
:101548008C6825430C6845EA8445CC690E6A44EAF0
:1015580006648E6934434E693443CE6844EA0644CF
:10156800406D03EBC30300EBC30E40F83350CEF8D5
:1015780004400EF1080E002019E00C698D6825431F
:101588000C68254345F08045DFE702EB000C9CF82A
:1015980003409CF802301B0443EA04639CF80140B2
:1015A80043EA0423145C23434EF8043B0430CB681D
:1015B800024CE35C8342E8D870BD00BF6861000854
:1015C800002800F0E38038B5044690F85C30D3B1C9
:1015D8002268936923F010039361FFF705FD054620
:1015E80023689A6912F0080F12D0FFF7FDFC401B20
:1015F8000A28F5D9236E43F001032366032384F8F0
:101608005C30012038BD80F85D30FFF75FF9DFE717
:101618009A6942F001029A61FFF7E6FC05462368E1
:101628009A6912F0010F0DD1FFF7DEFC401B0A2862
:10163800F5D9236E43F001032366032384F85C3055
:101648000120DFE79A6942F002029A612268504B52
:101658009A4242D0237C012B45D02268936943F0FB
:1016680040039361637C012B43D02268936923F480
:1016780080439361A37C012B41D02268936943F492
:10168800805393612268936923F44073A1680B43E4
:1016980093612268936923F0A40393612268136914
:1016A80023F010031361E368012B2ED0002B31D0F7
:1016B800022B54D02268936943F080039361226817
:1016C800136943F010031361E368032B22D12268E6
:1016D800936943F0200393611CE06268A3F580637B
:1016E800C3F80025B6E72268936923F040039361A5
:1016F800B8E72268936943F480439361BAE72268A4
:10170800936923F480539361BCE72268936943F09B
:1017180004039361A3695A1EE369013B1B0243EA70
:101728004263226A013A13436269013A216843EA33
:101738000243CB61A368B3F5407F16D02268D2F884
:10174800C030E16B0B43C2F8C0302046FFF7AEFE55
:101758000020A0652066012384F85C3052E72268E7
:10176800936943F020039361D4E7A36A013BE26ADB
:10177800013A43EA0223226B013A43EA0213626AFE
:10178800013A216843EA0243CB60D7E7012070475A
:101798000064004090F85C30013BDBB2012B05D9B6
:1017A800036E43F002030366012070470B68A3B180
:1017B80010B4CA680B6943EA42724B698C6843EA01
:1017C8008473406C496800EBC10C40F83120CCF8B8
:1017D800043000205DF8044B70478A68CB68DB064C
:1017E80043EA82730A6943EA02434A691343026C73
:1017F800496842F821300020704790F85C30DBB22D
:10180800012B05D0036E43F00403036601207047E3
:10181800022380F85C300268936923F00103936126
:10182800002303661846704738B5044690F85C30C4
:10183800DBB2022B1BD10368D3F8C40010F4001FDD
:1018480005D0236E43F400732366012014E0D3F817
:10185800C450C5F301452B462046FFF76DFE2268AC
:101868000123AB40C2F8CC30A365002004E0036E2E
:1018780043F008030366012038BD000070B590F8F6
:101888005C40E4B2022C40F0958040290BD00468FB
:10189800D4F8985015F00F0F27D1036E43F48073D6
:1018A800036601208BE00468D4F8905015F00F0F00
:1018B80005D1036E43F48073036601207FE0D4F8FA
:1018C800906016F0807605D0D4F8806016F4007623
:1018D80000D00126D4F89040C4F301242644846C37
:1018E80006EBC60504EBC50E14E0D4F8986016F0B4
:1018F800807605D0D4F8806016F4807600D0012672
:10190800D4F89840C4F301242644C46C06EBC605F9
:1019180004EBC50EDEF8004004F08044546064BB5C
:10192800DEF80040C4F38A441460DEF8004004F096
:1019380000549460DEF8004004F000441461BEF8DE
:101948000440D461BEF8064004F00F04D460DEF809
:10195800044004F480145461DEF8044004F40014D4
:1019680094619EF8074004F07F041462DEF8044096
:10197800E40F54624FF0000C0CE0DEF8004024F055
:1019880060441460D1E70EEB0C04247A03F80C4091
:101998000CF1010CD4680A4D2C5D6445F3D840293C
:1019A80004D00368C3F89C60002008E00368C3F80B
:1019B8009460F9E7036E43F008030366012070BDE5
:1019C800686100080368D3F8C40000F00700704796
:1019D80090F85C30013BDBB2012B05D9036E43F074
:1019E8000203036601207047012A05D00268936D3F
:1019F8000B439365002070470268936D23EA010347
:101A08009365F7E790F85C30013BDBB2012B05D911
:101A1800036E43F0020303660120704770B4046844
:101A2800A36D11F0070602D013F0010F23D011F0B7
:101A3800380F02D013F0020F1DD011F4E07F02D04E
:101A480013F0040F17D011F4F05F02D013F0080F51
:101A580011D011F4604F02D013F0100F0BD011F415
:101A6800403F02D013F0200F05D011F47C0F06D0B0
:101A780013F0400F03D1E56D45F00105E56516B19A
:101A880013F0010F23D111F0380F02D013F0020F19
:101A98001DD111F4E07F02D013F0040F17D111F417
:101AA800F05F02D013F0080F11D111F4604F02D08B
:101AB80013F0100F0BD111F4403F02D013F0200F98
:101AC80005D111F47C0F07D013F0400F04D004683F
:101AD800E36D43F00203E36511F0800F05D004685D
:101AE800D4F8DC301343C4F8DC3011F4807F05D01F
:101AF8000468D4F8E0301343C4F8E0300268536D4A
:101B08000B435365002070BC70477047704770479F
:101B18007047704770477047704770472DE9F84F16
:101B2800044603681A6D02F4E05A5A6D0AEA020A7A
:101B38001A6D02F007095A6D09EA02091A6D02F0D6
:101B480038085A6D08EA02081E6D06F471065A6DC7
:101B580016401F6D07F460275A6D1740D3F854B02C
:101B68001D6D15F0400F02D01BF0400F41D115F448
:101B7800807F02D01BF4807F40D1BAF1000F4AD198
:101B8800B9F1000F4FD1B8F1000F54D115F4007F0F
:101B980002D01BF4007F56D115F0800F02D01BF045
:101BA800800F58D115F4005F02D01BF4005F5ED19E
:101BB80015F4004F02D01BF4004F60D115F4804F8C
:101BC8000AD01BF4804F07D023684FF480421A656F
:101BD800236E43F080032366002F58D126B1236873
:101BE8001E65236E33432366236E002B56D1BDE852
:101BF800F88F40221A65FFF78EFFB8E72368D3F8FD
:101C0800D810D3F8E0204FF48070186511402046B2
:101C1800FFF77EFFB1E72368C3F850A0514620467E
:101C2800FFF773FFACE72368C3F850904946204696
:101C380003F052FFA7E72368C3F8508041462046C7
:101C4800FFF764FFA2E723684FF400721A65204685
:101C5800FFF75DFFA0E72368D3F8D410D3F8DC20A2
:101C6800802018651140204604F00EF99AE7236891
:101C78004FF400521A652046FFF74BFF98E7236898
:101C88004FF400421A652046FFF744FF96E72368A1
:101C98001F6539462046FFF740FF9FE72046FFF7BC
:101CA8003BFFA4E7F0B583B0002366E085685E00DB
:101CB8000324B44025EA0405CC68B4402C4384606E
:101CC800456825EA0C054C68C4F300149C402C4375
:101CD800446063E08C68012C65D173E0DD08083549
:101CE80050F8254003F0070C4FEA8C0C4FF00F0E0C
:101CF8000EFA0CFE24EA0E0E0C6904FA0CF444EAFF
:101D08000E0440F8254062E0052400E0002404FAAF
:101D18000EF42C430CF1020C564D45F82C40564C51
:101D2800A568D44325EA02064F6817F4801F01D03E
:101D380042EA0506504DAE60ED6804EA05064F68B4
:101D480017F4001F01D042EA05064B4DEE606D689E
:101D580004EA05064F6817F4003F01D042EA050679
:101D6800454D6E602D682C404E6816F4803F01D0BA
:101D780042EA0504404A146001330A6832FA03F45F
:101D880076D04FF0010C0CFA03FC1CEA0202F3D0E7
:101D98004C6804F00304013C012C87D94C6804F01A
:101DA8000304032C96D0C4684FEA430E4FF0030C8B
:101DB8000CFA0EFC24EA0C0C8C6804FA0EF444EAC3
:101DC8000C04C4604C6804F00304022C86D0046838
:101DD8004FEA430E4FF0030C0CFA0EFC24EA0C0CED
:101DE8004C6804F0030404FA0EF444EA0C0404609A
:101DF8004C6814F4403FBFD0204C256E45F00105D7
:101E08002566246E04F001040194019C4FEA930CAA
:101E18000CF10205174C54F8255003F0030E4FEA55
:101E28008E0E0F2404FA0EF425EA0405B0F1904F43
:101E38003FF46CAF124CA04212D004F58064A0426B
:101E480010D004F58064A0420ED004F58064A0424E
:101E58000CD004F58064A0423FF456AF062456E740
:101E6800012454E7022452E7032450E704244EE7F0
:101E780003B0F0BD00000140000401400010024022
:101E8800000400480369194201D00120704700206E
:101E980070470AB18161704781627047436901EAFE
:101EA800030221EA030141EA02418161704700000F
:101EB80008B5054B5B69034200D108BD024B586168
:101EC800FFF702F8F9E700BF00040140002836D107
:101ED8003E4B1B6803F4C063B3F5806F08D03B4AE0
:101EE800D2F8803023F48073C2F880300020704725
:101EF800364AD2F8803023F48073C2F880301368F1
:101F080023F4C06343F400731360314B1B6832221F
:101F180002FB03F32F4AA2FB03239B0C013300E0CF
:101F2800013B2A4A526912F4806F01D0002BF7D185
:101F3800264B5B6913F4806F44D100207047B0F5DD
:101F4800007F08D0214A136823F4C06343F48063F8
:101F58001360002070471D4B1B6803F4C063B3F582
:101F6800806F08D0194AD2F8803043F48073C2F8E1
:101F7800803000207047154AD2F8803043F48073CF
:101F8800C2F88030136823F4C06343F4007313600D
:101F98000F4B1B68322202FB03F30E4AA2FB0323FA
:101FA8009B0C013300E0013B084A526912F4806F30
:101FB80001D0002BF7D1054B5B6913F4806F03D177
:101FC80000207047032070470320704700700040CE
:101FD8006405002083DE1B43024A936843F4804370
:101FE8009360704700700040124BDA6802F00302F9
:101FF800DB68C3F303130133032A11D00E48B0FB87
:10200800F3F00C4BDB68C3F3062303FB00F0094B2A
:10201800DB68C3F3416301335B00B0FBF3F0704747
:102028000648B0FBF3F0034BDB68C3F3062303FB5E
:1020380000F0ECE7001002400024F40000127A00DF
:10204800002800F04F8270B582B00446036813F090
:10205800010F37D0A44A936803F00C03D26802F04A
:1020680003020C2B23D0082B23D06368B3F5803FE1
:102078004ED0B3F5A02F51D09B4B1A6822F4803272
:102088001A601A6822F480221A606368002B52D002
:10209800FEF7AAFF0546944B1B6813F4003F11D1C5
:1020A800FEF7A2FF401B6428F5D9032023E2032A88
:1020B800D9D18D4B1B6813F4003F03D06368002B04
:1020C80000F01282236813F0020F5DD0864A9368ED
:1020D80003F00C03D26802F003020C2B3AD0042B55
:1020E8003AD0E368002B75D07F4A136843F48073B5
:1020F8001360FEF779FF05467B4B1B6813F4806F6E
:102108005FD1FEF771FF401B0228F5D90320F2E1E9
:10211800754A136843F480331360B6E703F18043CC
:10212800A3F53C331A6842F480221A601A6842F414
:1021380080321A60A9E7FEF757FF05466A4B1B680D
:1021480013F4003FBED0FEF74FFF401B6428F5D9BB
:102158000320D0E1022AC2D1634B1B6813F4806FBD
:1021680003D0E368002B00F0C1815F4A536823F075
:10217800FE43216943EA016353605C4B186801F030
:1021880045FA002840F0B481236813F0080F4CD0BA
:1021980063699BB3544AD2F8943043F00103C2F800
:1021A8009430FEF721FF05464F4BD3F8943013F0D7
:1021B800020F3AD1FEF718FF401B0228F4D903207A
:1021C80099E1494A536823F0FE43216943EA0163D0
:1021D8005360D9E7444A136823F480731360FEF709
:1021E80003FF0546404B1B6813F4806FCCD0FEF705
:1021F800FBFE401B0228F5D903207CE13A4AD2F8BD
:10220800943023F00103C2F89430FEF7EDFE054642
:10221800354BD3F8943013F0020F06D0FEF7E4FEE6
:10222800401B0228F4D9032065E1236813F0040F4A
:1022380000F081802C4B9B6D13F0805F36D12A4BC8
:102248009A6D42F080529A659B6D03F0805301931A
:10225800019B0125264B1B6813F4807F28D0A368B7
:10226800012B39D0052B45D01F4BD3F8902022F0F5
:102278000102C3F89020D3F8902022F00402C3F89A
:102288009020A368002B43D0FEF7AEFE0646164BFF
:10229800D3F8903013F0020F4CD1FEF7A5FE801B47
:1022A80041F288339842F2D9032024E10025D1E78E
:1022B8000F4A136843F480731360FEF795FE0646D1
:1022C8000B4B1B6813F4807FC9D1FEF78DFE801B72
:1022D8000228F5D903200EE1034AD2F8903043F0E2
:1022E8000103C2F89030CCE70010024060050020DE
:1022F80000700040884BD3F8902042F00402C3F8E5
:102308009020D3F8902042F00102C3F89020B8E75B
:10231800FEF76AFE0646804BD3F8903013F0020FA2
:1023280008D0FEF761FE801B41F288339842F2D94B
:102338000320E0E0E5B9236813F0200F35D0A36946
:10234800E3B1754AD2F8983043F00103C2F89830E7
:10235800FEF74AFE0546704BD3F8983013F0020F8B
:1023680023D1FEF741FE401B0228F4D90320C2E026
:10237800694A936D23F080539365DCE7664AD2F887
:10238800983023F00103C2F89830FEF72DFE054679
:10239800614BD3F8983013F0020F06D0FEF724FEF5
:1023A800401B0228F4D90320A5E0E369002B00F0C4
:1023B800A180594A926802F00C020C2A64D0022BC0
:1023C80013D0554A136823F080731360FEF70CFE90
:1023D8000446514B1B6813F0007F4ED0FEF704FEF5
:1023E800001B0228F5D9032085E04B4A136823F027
:1023F80080731360FEF7F8FD0546474B1B6813F022
:10240800007F06D0FEF7F0FD401B0228F5D9032017
:1024180071E0414AD36841491940236A606A01382A
:1024280043EA0013A06A43EA0023206B40080138FE
:1024380043EA4053606B4008013843EA4063E06A6E
:1024480043EAC0631943D160136843F08073136093
:10245800D36843F08073D360FEF7C6FD04462E4B65
:102468001B6813F0007F06D1FEF7BEFD001B022893
:10247800F5D903203FE000203DE0274AD168284BEA
:102488000B40D360002036E0012B36D0224BDB68AE
:1024980003F00301226A914231D103F0F002616A2C
:1024A8000139B2EB011F2CD103F4FE42A16AB2EB51
:1024B800012F28D103F07842E16AB2EBC16F24D131
:1024C80003F4C001226B5208013AB1EB425F1ED1FE
:1024D80003F0C063626B5208013AB3EB426F18D144
:1024E800002008E001207047012004E0012002E0FC
:1024F800012000E0002002B070BD0120FBE70120B0
:10250800F9E70120F7E70120F5E70120F3E70120CB
:10251800F1E70120EFE700BF001002400C809F01A7
:10252800FCFFEEFE1E4B9B6803F00C03042B33D01C
:102538001B4B9B6803F00C03082B2FD0184B9B6890
:1025480003F00C030C2B01D000207047144BDA6801
:1025580002F00302DB68C3F303130133032A11D02B
:102568001048B0FBF3F00E4BDB68C3F3062303FB04
:1025780000F00B4BDB68C3F3416301335B00B0FB36
:10258800F3F070470848B0FBF3F0054BDB68C3F382
:10259800062303FB00F0ECE7024870470248704747
:1025A800001002400024F40000127A00002800F015
:1025B800E680F8B50C460546744B1B6803F00F031C
:1025C8008B420BD2714A136823F00F030B4313603D
:1025D800136803F00F038B4240F0D3802E6816F087
:1025E80001065FD06B68032B2FD0022B4DD0684BB0
:1025F8001B6813F4806F00F0C680FFF793FF654BEC
:1026080098424DD9624A936823F0F00343F080035F
:10261800936080265E4A936823F0030369680B433E
:102628009360FEF7E1FC0746594B9B6803F00C03E7
:102638006A68B3EB820F35D0FEF7D6FCC01B41F2B7
:1026480088339842F0D9032078E0514B1B6813F087
:10265800007F01D1012071E0FFF7C6FC4D4B984285
:102668001AD94B4B9B6813F0F00F05D02E6816F063
:102678000206CFD0AB688BB9454A936823F0F003C4
:1026880043F0800393608026C4E7414B1B6813F432
:10269800003FB2D1012051E00026BBE70026B9E790
:1026A8000026B7E72B6813F0020F48D013F0040F89
:1026B80004D0374A936843F4E06393602B6813F0BF
:1026C800080F06D0324A936823F47C5343F4E0633E
:1026D80093602F4A936823F0F003A9680B43936033
:1026E8002A4B1B6803F00F03A34230D82B6813F062
:1026F800040F06D0264A936823F4E063E9680B4385
:1027080093602B6813F0080F07D0214A936823F4CD
:102718006053296943EAC1039360FFF703FF1C4B29
:102728009B68C3F303131C4AD35C03F01F03D84010
:102738001A4B18601A4B186800F068FFF8BD802E15
:10274800CED1134A936823F0F0039360C8E70F4A89
:10275800136823F00F0323431360FEF745FC064676
:102768000A4B1B6803F00F03A342BFD0FEF73CFCE3
:10277800801B41F288339842F2D90320DEE701201A
:1027880070470120DAE70120D8E700BF00200240A7
:102798000010024000B4C4048061000864050020F1
:1027A80060050020014B1868704700BF64050020D1
:1027B80008B5FFF7F7FF054B9B68C3F30223044AEC
:1027C800D35C03F01F03D84008BD00BF00100240CF
:1027D800786100080F2303600B4B9A6802F003022C
:1027E80042609A6802F0F00282609A6802F4E0623D
:1027F800C2609B68DB0803F4E0630361034B1B685A
:1028080003F00F030B6070470010024000200240E5
:10281800F0B583B00446036813F4002F6ED0354B2F
:102828009B6D13F0805F1ED1324B9A6D42F080523F
:102838009A659B6D03F080530193019B01262E4AF4
:10284800136843F480731360FEF7CEFB05462A4BEA
:102858001B6813F4807F08D1FEF7C6FB401B0228D3
:10286800F5D9032502E00026E9E7002545BB214B01
:10287800D3F8903013F4407315D0226D9A4212D0D9
:102888001C4AD2F8903023F44073D2F8901041F4E7
:102898008031C2F89010D2F8901021F48031C2F83B
:1028A8009010C2F8903013F0010F10D145B9114AB9
:1028B800D2F8903023F44073216D0B43C2F8903066
:1028C800EEB10C4A936D23F08053936517E0FEF741
:1028D8008BFB0746074BD3F8903013F0020FE5D176
:1028E800FEF782FBC01B41F288339842F2D90325D8
:1028F800DCE700BF0010024000700040002523689C
:1029080013F0010F08D09F4AD2F8883023F0030350
:1029180061680B43C2F88830236813F0020F08D0AF
:10292800984AD2F8883023F00C03A1680B43C2F808
:102938008830236813F0040F08D0924AD2F8883000
:1029480023F03003E1680B43C2F88830236813F0A2
:10295800080F08D08B4AD2F8883023F0C0032169C9
:102968000B43C2F88830236813F0100F08D0854A4B
:10297800D2F8883023F4407361690B43C2F8883079
:10298800236813F0200F08D07E4AD2F8883023F449
:102998004063A1690B43C2F88830236813F0400FE5
:1029A80008D0784AD2F8883023F44053E1690B43C1
:1029B800C2F88830236813F0800F08D0714AD2F823
:1029C800883023F44043216A0B43C2F888302368D7
:1029D80013F4807F08D06B4AD2F8883023F4403350
:1029E800616A0B43C2F88830236813F4003F08D0AB
:1029F800644AD2F89C3023F00303A16A0B43C2F85F
:102A08009C30236813F4007F08D05E4AD2F88830DF
:102A180023F44023E16A0B43C2F88830236813F497
:102A2800806F0CD0574AD2F8883023F44013216BBA
:102A38000B43C2F88830236BB3F5801F79D0236825
:102A480013F4006F0CD04F4AD2F8883023F44003B7
:102A5800616B0B43C2F88830636BB3F5800F6DD0A0
:102A6800236813F4805F0CD0464AD2F8883023F0EC
:102A78004073A16B0B43C2F88830A36BB3F1807F1E
:102A880061D0236813F4005F0CD03E4AD2F8883036
:102A980023F04063E16B0B43C2F88830E36BB3F17A
:102AA800006F55D0236813F4804F0CD0354AD2F804
:102AB800883023F04063216C0B43C2F88830236CC4
:102AC800B3F1006F49D0236813F4004F0CD02D4A9E
:102AD800D2F8883023F04053616C0B43C2F8883039
:102AE800636CB3F1805F3DD0236813F4803F0CD052
:102AF800244AD2F8883023F04043A16C0B43C2F833
:102B08008830A36CB3F1804F31D0236813F4802F41
:102B18000CD01C4AD2F89C3023F44013E16C0B43D0
:102B2800C2F89C30E36CB3F5001F25D0284603B0EB
:102B3800F0BDD36843F48013D36080E7D36843F4CF
:102B48008013D3608CE7D36843F48013D36098E78D
:102B5800D36843F48013D360A4E7D36843F48013A5
:102B6800D360B0E7D36843F48033D360BCE7D3685D
:102B780043F48033D360C8E7D36843F48013D36049
:102B8800D4E700BF001002407047000090F83D30C5
:102B9800DBB2012B3AD1022380F83D300268D368BA
:102BA80043F00103D36003681B4A934220D0B3F17A
:102BB800804F1DD0A2F59432934219D002F580625D
:102BC800934215D002F58062934211D002F59432F7
:102BD80093420DD002F54062934209D002F580522B
:102BE800934205D01A6842F001021A60002070472B
:102BF80099680A4A0A40062A0AD0B2F5803F09D0E5
:102C08001A6842F001021A600020704701207047DC
:102C18000020704700207047002C01400700010089
:102C2800704770477047704770B505460368DE689F
:102C38001C6914F0020F10D016F0020F0DD06FF0BF
:102C480002021A610123037703689B6913F0030FDB
:102C58007CD0FFF7E6FF00232B7714F0040F12D087
:102C680016F0040F0FD02B686FF004021A610223CC
:102C78002B772B689B6913F4407F6DD02846FFF7AC
:102C8800D0FF00232B7714F0080F12D016F0080F8E
:102C98000FD02B686FF008021A6104232B772B687A
:102CA800DB6913F0030F5ED02846FFF7BAFF002355
:102CB8002B7714F0100F12D016F0100F0FD02B68CE
:102CC8006FF010021A6108232B772B68DB6913F465
:102CD800407F4FD02846FFF7A4FF00232B7714F03E
:102CE800010F02D016F0010F4BD114F4025F02D08D
:102CF80016F0800F4DD114F4807F02D016F0800FAB
:102D08004FD114F0400F02D016F0400F51D114F0FB
:102D1800200F02D016F0200F53D114F4801F02D0D8
:102D280016F4801F55D114F4001F02D016F4001FAA
:102D380057D114F4800F02D016F4800F59D114F42F
:102D4800000F02D016F4000F5BD170BDFFF768FFCB
:102D58002846FFF767FF7EE72846FFF761FF28460A
:102D6800FFF760FF8DE72846FFF75AFF2846FFF771
:102D780059FF9CE72846FFF753FF2846FFF752FF05
:102D8800ABE72B686FF001021A61284600F092FC4D
:102D9800ABE72B686FF402521A61284600F0DFF89F
:102DA800A9E72B686FF480721A61284600F0D8F8FA
:102DB800A7E72B686FF040021A612846FFF733FF38
:102DC800A5E72B686FF020021A61284600F0C6F8C4
:102DD800A3E72B686FF480121A61284600F0C1F847
:102DE800A1E72B686FF400121A61284600F0BAF8C0
:102DF8009FE72B686FF480021A61284600F0B3F849
:102E08009DE72B686FF400021A61284600F0ACF8C1
:102E18009BE700000368384A904216D0B0F1804F13
:102E280013D0A2F5943290420FD002F580629042FE
:102E38000BD002F58062904207D002F5943290429E
:102E480003D002F5E052904203D123F070034A68A0
:102E58001343294A904222D0B0F1804F1FD0A2F5E7
:102E6800943290421BD002F58062904217D002F54E
:102E78008062904213D002F5943290420FD002F54E
:102E8800406290420BD002F58062904207D002F572
:102E98008062904203D002F50062904203D123F48D
:102EA8004073CA68134323F080034A6913438A684E
:102EB800C2620A688262104A904213D002F5006228
:102EC80090420FD002F5406290420BD002F580622A
:102ED800904207D002F58062904203D002F500626A
:102EE800904201D10A690263026842F0040202605A
:102EF8000122426103607047002C014060B310B5A5
:102F0800044690F83D3013B3022384F83D3021463F
:102F180051F8040BFFF77EFF012384F8483084F84A
:102F28003E3084F83F3084F8403084F8413084F8EB
:102F3800423084F8433084F8443084F8453084F8CB
:102F4800463084F8473084F83D30002010BD80F8C2
:102F58003C30FFF719FED7E70120704770477047EC
:102F680070477047704770477047026852E8003FE3
:102F780023F4907342E800310029F6D1026802F187
:102F8800080353E8003F23F0805323F0010308327D
:102F980042E800310029F1D1C36E012B06D020236D
:102FA800C0F88C300023C36643677047026852E854
:102FB800003F23F0100342E800310029F6D1EEE784
:102FC800D0F88830212B00D07047B0F856309BB22B
:102FD80093B9026852E8003F23F0800342E80031C9
:102FE8000029F6D1026852E8003F43F0400342E866
:102FF80000310029F6D17047036D1A7803689A6288
:10300800036D01330365B0F856309BB2013B9BB2A8
:10301800A0F85630D8E7D0F88830212B00D0704778
:10302800B0F856309BB293B9026852E8003F23F0DB
:10303800800342E800310029F6D1026852E8003FD7
:1030480043F0400342E800310029F6D17047036D90
:103058001B880268C3F308039362036D0233036598
:10306800B0F856309BB2013B9BB2A0F85630D6E779
:10307800D0F88830212B00D07047B0F86A3017E0BC
:10308800026802F1080353E8003F23F40003083202
:1030980042E800310029F3D1026852E8003F43F0CA
:1030A800400342E800310029F6D17047013B9BB24A
:1030B800002BE1D0B0F8562092B2002AE0D0026886
:1030C800D16911F0800FF1D0016D09789162026D1C
:1030D80001320265B0F8562092B2013A92B2A0F8D5
:1030E8005620E3E7D0F88830212B00D07047B0F89D
:1030F8006A3017E0026802F1080353E8003F23F43E
:103108000003083242E800310029F3D1026852E88E
:10311800003F43F0400342E800310029F6D17047F0
:10312800013B9BB2002BE1D0B0F8562092B2002AA6
:10313800E0D00268D16911F0800FF1D0016D0988E3
:10314800C1F308019162026D02320265B0F856209F
:1031580092B2013A92B2A0F85620E1E7D0F888304E
:10316800202B43D1002943D0002A43D00165A0F881
:103178005420A0F8562000238367C0F890302123FC
:10318800C0F88830436EB3F1005F10D08368B3F5A0
:10319800805F25D0184B8367026852E8003F43F0F0
:1031A800800342E800310029F6D100207047836887
:1031B800B3F5805F0ED0114B8367026802F10803F4
:1031C80053E8003F43F40003083242E80031002985
:1031D800F3D1EAE70369002BEDD1094B8367ECE7EC
:1031E8000369002BD6D1074B8367D5E702207047C8
:1031F8000120704701207047C92F00087930000866
:10320800ED3000081F30000808B5026852E8003F9A
:1032180023F0400342E800310029F6D12023C0F80A
:1032280088300023836702F0A9FE08BD704708B5FF
:10323800806A0023A0F85E30FFF7F8FF08BD7047EA
:1032480070B504460268D3691068916840F60F0C9F
:1032580013EA0C0F0DD113F0200F10D010F0200F2F
:1032680002D111F0805F0AD0636F93B3204698476C
:103278002FE09D4D0D402DD19C4E30422AD1E56E58
:10328800012D00F0C08013F4801F03D011F4800FCB
:1032980040F06C8113F0800F07D010F0800F40F0E1
:1032A8006C8111F4000F40F0688113F0400F03D0D7
:1032B80010F0400F40F0688113F4000F03D010F0B5
:1032C800804F40F0658113F0807F02D00028C0F263
:1032D800638170BD13F0010F09D010F4807F06D010
:1032E80001261662D4F890203243C4F8902013F0D7
:1032F800020F0BD011F0010F08D0226802261662C7
:10330800D4F8902042F00402C4F8902013F0040F7F
:103318000BD011F0010F08D0226804261662D4F8E9
:10332800902042F00202C4F8902013F0080F0BD04E
:1033380010F0200F00D13DB1226808251562D4F89D
:1033480090202A43C4F8902013F4006F0CD010F09A
:10335800806F09D022684FF400651562D4F8902078
:1033680042F02002C4F89020D4F89020002AB0D06F
:1033780013F0200F09D010F0200F02D111F0805F58
:1033880003D0636F0BB120469847D4F89020236888
:103398009B6813F0400F02D112F0280F2CD0204662
:1033A800FFF7E3FD23689B6813F0400F20D02268E5
:1033B80002F1080353E8003F23F04003083242E8D3
:1033C80000310029F3D1D4F880306BB1484A9A63B0
:1033D800D4F88000FEF72AF800283FF47AAFD4F832
:1033E8008000836B984774E72046FFF71FFF70E75C
:1033F8002046FFF71BFF6CE72046FFF717FF002367
:10340800C4F8903065E713F0100F3FF43CAF10F0AC
:10341800100F3FF438AF1023136223689B6813F032
:10342800400F67D0D4F880100A6853689BB2002B0D
:103438004AD0B4F85C00984246D9A4F85E300B68CC
:103448001B6813F0200F32D1226852E8003F23F4A2
:10345800807342E800310029F6D1226802F108039E
:1034680053E8003F23F00103083242E80031002905
:10347800F3D1226802F1080353E8003F23F0400328
:10348800083242E800310029F3D12023C4F88C30F7
:103498000023E366226852E8003F23F0100342E865
:1034A80000310029F6D1D4F88000FDF789FF022306
:1034B8002367B4F85C10B4F85E309BB2C91A89B2BD
:1034C8002046FFF7BCFE04E7B4F85C1099427FF48D
:1034D80000AF136813F0200F3FF4FBAE02232367FD
:1034E8002046FFF7ACFEF4E60100001020010004BE
:1034F80037320008B4F85C10B4F85E309BB2C91AD1
:1035080089B2B4F85E309BB2002B3FF4E2AE0029DA
:103518003FF4DFAE226852E8003F23F4907342E89C
:1035280000300028F6D1226802F1080353E8003F72
:1035380023F0805323F00103083242E800300028CA
:10354800F1D12023C4F88C300023E3666367226836
:1035580052E8003F23F0100342E800300028F6D17B
:10356800022323672046FFF76AFEB2E64FF4801372
:103578001362204600F014F8ABE6A36F002B3FF46B
:10358800A8AE20469847A4E62046FFF73DFEA0E6F1
:10359800204600F007F89CE6204600F002F898E67E
:1035A8007047704770470000054BD3F8882042F4F5
:1035B8007002C3F888204FF000629A60704700BF1D
:1035C80000ED00E072B6FEE700B583B00E4B1A6E50
:1035D80042F001021A661A6E02F001020092009A85
:1035E8009A6D42F080529A659B6D03F08053019367
:1035F800019BFEF7F1FC00220F216FF00100FDF79F
:10360800CBFE03B05DF804FB0010024030B589B072
:103618000446002201463620FDF7BEFE3620FDF79F
:10362800CBFE1F4B9A6D42F010029A659B6D03F01A
:1036380010030193019B02A903A8FFF7CBF8069B8F
:10364800C3B9FFF7B5F80346164AA2FB03239B0C40
:10365800013B1548154A026040F2E732C2604360F8
:10366800002303618360FFF749FC054630B1284613
:1036780009B030BDFFF79CF84300E5E70A48FFF7BB
:1036880085FA05460028F2D10F2C01D90125EEE76D
:10369800002221463620FDF77FFE054B1C60E6E739
:1036A8000010024083DE1B43DC10002000100040A5
:1036B8006005002008B5FDF78BFC08BD08B5024879
:1036C800FFF7B2FA08BD00BFDC10002000F10803C4
:1036D80043604FF0FF328260C360036100230360E0
:1036E800704700230361704730B40D68B5F1FF3FA0
:1036F80011D000F108031C465B681A68AA42FAD97F
:1037080063684B6099608C6061600861036801338D
:10371800036030BC70470469F2E703694168826856
:103728008A60416851605A68824205D0002202616D
:10373800186801381860704782685A60F6E710B553
:10374800044601F039FEA26BE36B9A4204D00024D0
:1037580001F054FE204610BD0124F9E710B50446D7
:1037680001F02AFEA36B23B9012401F047FE20468D
:1037780010BD0024F9E770B504461546866B026C47
:103788005AB903681BB100200136A66370BD806872
:1037980001F0D4FA0023A360F6E76DB94068FCF79E
:1037A8006FFD6368226C13446360A268934219D367
:1037B800236863602846E7E7C068FCF761FDE368B3
:1037C800226C51429B1AE3602268934202D2A3689A
:1037D8000B44E360022D01D00020D5E726B1013E5D
:1037E8000020D1E72846CFE70020CDE70346026C4A
:1037F8006AB110B50846D9681144D9609C68A142DD
:1038080001D31968D960D968FCF73AFD10BD704733
:1038180070B582B00190846C64B1A26BE36B9A427C
:1038280011D34FF0500383F31188BFF36F8FBFF3A9
:103838004F8FFEE74FF0500383F31188BFF36F8F6C
:10384800BFF34F8FFEE7A26B934203D800252846AB
:1038580002B070BD94F8456076B2002201A92046F6
:10386800FFF789FF0546B6F1FF3F0AD1636A002BCF
:10387800EDD004F1240001F05BF90028E7D0012520
:10388800E5E700F07DFE8642E1D27F2E04D0731C6E
:103898005BB284F84530DAE74FF0500383F31188C0
:1038A800BFF36F8FBFF34F8FFEE738B5054601F0C2
:1038B80083FD95F8454064B208E06B6AB3B105F141
:1038C800240001F035F970B9013C64B2002C0DDD1B
:1038D800AB6C002BF1D02846FFF79AFF0028F3D0F5
:1038E80001F0F2F9F0E701F0EFF9EDE7FF2385F8D1
:1038F800453001F083FD01F05FFD95F8444064B266
:1039080001E0013C64B2002C0ADD2B6943B105F1EA
:10391800100001F00DF90028F3D001F0D5F9F0E717
:10392800FF2385F8443001F069FD38BD38B590B102
:103938000D460446C36B2BB1026C0021A2FB032386
:1039480093B999B14FF0500383F31188BFF36F8F88
:10395800BFF34F8FFEE74FF0500383F31188BFF397
:103968006F8FBFF34F8FFEE70121EAE701F024FDD7
:103978002368E26B216C01FB0230A0600020A06389
:103988006360013A02FB0133E360FF2384F84430AB
:1039980084F84530B5B923691BB901F02FFD012022
:1039A80038BD04F1100001F0C3F80028F5D04FF03D
:1039B800E0234FF08052C3F8042DBFF34F8FBFF3BD
:1039C8006F8FEAE704F11000FFF780FE04F124008E
:1039D800FFF77CFEE1E710B5029C0B4649B924606D
:1039E800E063236401212046FFF7A0FF0023A364BE
:1039F80010BD2260F4E773B110B584B01C4608B15D
:103A080092B199B94FF0500383F31188BFF36F8FC8
:103A1800BFF34F8FFEE74FF0500383F31188BFF3D6
:103A28006F8FBFF34F8FFEE70029EBD14C23039331
:103A3800039B4C2B08D04FF0500383F31188BFF33E
:103A48006F8FBFF34F8FFEE7039B00949DF81830EC
:103A5800FFF7C1FF204604B010BDF0B585B0019254
:103A680088B10F461D460446B1B1022D20D1E36B43
:103A7800012B1DD04FF0500383F31188BFF36F8FD4
:103A8800BFF34F8FFEE74FF0500383F31188BFF366
:103A98006F8FBFF34F8FFEE7036C002BE5D04FF01D
:103AA800500383F31188BFF36F8FBFF34F8FFEE787
:103AB80001F034F9064658B9019B002B5ED04FF04F
:103AC800500383F31188BFF36F8FBFF34F8FFEE767
:103AD800002653E0A66B2A4639462046FFF74BFEE0
:103AE800A36CABB1022D00D16EB92046FFF790FE52
:103AF80048B14FF0E0234FF08052C3F8042DBFF3D4
:103B08004F8FBFF36F8F01F079FC012005B0F0BD36
:103B1800636A63B90028F6D04FF0E0234FF0805273
:103B2800C3F8042DBFF34F8FBFF36F8FEBE704F19A
:103B3800240000F0FDFF0028E5D04FF0E0234FF00F
:103B48008052C3F8042DBFF34F8FBFF36F8FDAE7AE
:103B580001F054FC0020D9E702A801F065F801261D
:103B680019E0002384F8443021E0002384F845302C
:103B780023E02046FFF799FE00F008FE01F01CFC48
:103B8800A26BE36B9A42A5D3022DA3D0019B002B15
:103B9800DED0002EE0D001F031FC00F0DBFC01F0BB
:103BA8000BFC94F8442052B2B2F1FF3FD9D094F8FC
:103BB800452052B2B2F1FF3FD7D001F01FFC01A956
:103BC80002A801F03DF8D8B92046FFF7B8FD002853
:103BD800CFD0019904F1100000F068FF2046FFF7EC
:103BE80064FE00F0D3FD0028C8D14FF0E0234FF069
:103BF8008052C3F8042DBFF34F8FBFF36F8FBDE71B
:103C08002046FFF752FE00F0C1FD00207EE7A0B17C
:103C18002DE9F0470F4616461C460546B1B1022C61
:103C280020D1EB6B012B1DD04FF0500383F311888B
:103C3800BFF36F8FBFF34F8FFEE74FF0500383F34F
:103C48001188BFF36F8FBFF34F8FFEE7036C002B14
:103C5800E5D04FF0500383F31188BFF36F8FBFF3A4
:103C68004F8FFEE701F074FDEFF311884FF050031A
:103C780083F31188BFF36F8FBFF34F8FAA6BEB6B82
:103C88009A4206D3022C04D0002088F31188BDE89C
:103C9800F08795F845904FFA89F9D5F838A022466B
:103CA80039462846FFF767FDB9F1FF3F1BD1AB6CDA
:103CB80063B1022C02D1BAF1000F2BD12846FFF7CD
:103CC800A7FD48B356B301203060DEE76B6A0BB935
:103CD8000120DAE705F1240000F02AFF00B30EB353
:103CE80001203060D1E700F04BFC81451CD2B9F1CE
:103CF8007F0F06D009F101035BB285F8453001203A
:103D0800C3E74FF0500383F31188BFF36F8FBFF3FE
:103D18004F8FFEE70120B8E70120B6E70120B4E79E
:103D28000120B2E70120B0E70120AEE7F0B585B089
:103D3800019290B10F460446C1B100F0EFFF06466C
:103D480000BB019B002B5ED04FF0500383F311881A
:103D5800BFF36F8FBFF34F8FFEE74FF0500383F32E
:103D68001188BFF36F8FBFF34F8FFEE7036C002BF3
:103D7800E3D04FF0500383F31188BFF36F8FBFF385
:103D88004F8FFEE700263EE039462046FFF72EFD1E
:103D9800013DA563236923B901F030FB012005B07B
:103DA800F0BD04F1100000F0C3FE0028F4D04FF07D
:103DB800E0234FF08052C3F8042DBFF34F8FBFF3B9
:103DC8006F8FE9E701F01AFB0020E8E702A800F08E
:103DD8002BFF012621E0002384F8443029E000234A
:103DE80084F845302BE02046FFF75FFD00F0CEFC5D
:103DF80009E02046FFF759FD00F0C8FC2046FFF710
:103E0800ADFC00283FD101F0D7FAA56B002DBBD13E
:103E1800019B002BD6D0002ED8D001F0EFFA00F08D
:103E280099FB01F0C9FA94F844305BB2B3F1FF3F53
:103E3800D1D094F845305BB2B3F1FF3FCFD001F059
:103E4800DDFA01A902A800F0FBFE0028D1D1204626
:103E5800FFF784FC0028C6D0019904F1240000F083
:103E680025FE2046FFF721FD00F090FC0028CAD16E
:103E78004FF0E0234FF08052C3F8042DBFF34F8F6B
:103E8800BFF36F8FBFE7002089E72DE9F843B0B192
:103E98000E4690460446D9B101F05AFCEFF311855D
:103EA8004FF0500383F31188BFF36F8FBFF34F8F29
:103EB800A76BCFB9002085F31188BDE8F8834FF0D0
:103EC800500383F31188BFF36F8FBFF34F8FFEE763
:103ED800036C002BE0D04FF0500383F31188BFF33D
:103EE8006F8FBFF34F8FFEE794F844904FFA89F92C
:103EF80031462046FFF77AFC7B1EA363B9F1FF3FEA
:103F08000FD123690BB90120D5E704F1100000F0A7
:103F18000FFEE8B1B8F1000F1CD00120C8F800006E
:103F2800C9E700F02DFB814516D2B9F17F0F06D005
:103F380009F101035BB284F844300120BBE74FF07C
:103F4800500383F31188BFF36F8FBFF34F8FFEE7E2
:103F58000120B0E70120AEE70120ACE728B110B49A
:103F6800044631B3002003460DE04FF0500383F3BD
:103F78001188BFF36F8FBFF34F8FFEE70E4800EB3A
:103F8800C30014E00133072B10D80B4A02EBC3021D
:103F98005268A242F2D00028F4D1074A52F83320DE
:103FA800002AEFD1044800EBC300EBE708B1016039
:103FB80044605DF8044B70472811002070B5044632
:103FC8000D46164601F0F8F994F844305BB2B3F1A7
:103FD800FF3F0DD094F845305BB2B3F1FF3F0BD0F3
:103FE80001F00CFAA36B5BB12046FFF75EFC70BDD5
:103FF800002384F84430EDE7002384F84530EFE7E8
:104008003246294604F1240000F068FDECE7000080
:104018000B4B1B68012B0FD901220A4B1B68D86A6E
:1040280060B9094B1B68012B09D842B9074B1868BE
:10403800074B1B68C01A70470022EEE70020704744
:104048008811002090120020041200207011002016
:104058008C110020074B1B681B6823B9064B4FF0D7
:10406800FF321A607047034B1B68DB681A68024B03
:104078001A607047D8110020701100202DE9F04116
:1040880007469846069E089C206B02F18043013B38
:1040980000EB830020F0070571B10B4600220F2AC0
:1040A80007D8995C04EB020C8CF8341009B1013282
:1040B800F5E7002384F84330062E08D94FF0500363
:1040C80083F31188BFF36F8FBFF34F8FFEE7E6626C
:1040D8006664201DFFF705FB04F11800FFF701FBDC
:1040E8002461C6F10706A66164624FF4907200214C
:1040F80004F15000FCF76CF8174B636503F1680294
:10410800A265D033E36501220023C4E93A2343F2D0
:104118000E33A4F8F0304AF6CD33A4F8F23041F269
:104128003423A4F8F4304EF26D63A4F8F6304DF65B
:10413800EC63A4F8F8300523A4F8FA300B23A4F8AC
:10414800FC3042463946284601F020F92060079B9A
:1041580003B11C60BDE8F0818C0B00202DE9F04113
:1041680086B00D9FAFB180460E4615461C460E9B85
:10417800C3B14FF4BC730593059BB3F5BC7F1AD04C
:104188004FF0500383F31188BFF36F8FBFF34F8F46
:10419800FEE74FF0500383F31188BFF36F8FBFF32F
:1041A8004F8FFEE74FF0500383F31188BFF36F8FF3
:1041B800BFF34F8FFEE7059B4FF4BC7200210E98AA
:1041C800FCF706F80E9B1F63002303930E9B0293D4
:1041D8000F9B01930C9B009323462A463146404689
:1041E800FFF74CFF0E9806B0BDE8F08138B5002403
:1041F80007E004EB840293000E481844FFF766FAC0
:104208000134062CF5D90C4D2846FFF75FFA0B4C04
:104218002046FFF75BFA0A48FFF758FA0948FFF704
:1042280055FA0948FFF752FA084B1D60084B1C6005
:1042380038BD00BF04120020F0110020DC1100205E
:10424800C0110020AC11002094110020D8110020CA
:10425800D411002010B5044601F0AEF82A4A1368BC
:1042680001331360294B1B685BB1294B1B686BB981
:10427800264B1B68DA6AE36A9A4207D8234B1C600C
:1042880004E0224B1C601368012B39D0214A1368C3
:1042980001331360E36A01229A401F490868024308
:1042A8000A601E4A03EB830302EB83035B68A36087
:1042B8009868E060211D41609960E36A03EB83011F
:1042C80002EB8100606152F82110013103EB830396
:1042D80042F8231001F092F80D4B1B687BB10B4B91
:1042E8001B68DA6AE36A9A4209D24FF0E0234FF07A
:1042F8008052C3F8042DBFF34F8FBFF36F8F10BDEB
:10430800FFF774FFC2E700BF901100209012002051
:10431800841100207411002088110020041200204C
:1043280008B55030FCF746F808BD00000F4B1B6875
:10433800D3B110B501F040F80D4BDB68DC68201DE7
:10434800FFF7EBF90B4A1368013B1360074A136840
:10435800013B136001F052F82046FFF7E1FF034BE1
:104368001B68002BE6D110BD704700BFA8110020C4
:10437800AC110020901100202DE9F04104460D46B3
:10438800254B1E68254B1F68254BD3F80080254B0D
:1043980018680430FFF7C1F948B9224B1B68DB6A7B
:1043A80001229A4020490B6823EA02030B60B4F10A
:1043B800FF3F0DD034441B4B1B685C60A6421DD9DF
:1043C800184B196804314046FFF78EF9BDE8F081B3
:1043D800002DEFD0154A5168124B18688160186893
:1043E8008C68C4601868043060601868043088609D
:1043F8001B685A61136801331360E7E7094B1968B2
:1044080004313846FFF770F9094B1B68A342DDD920
:10441800074B1C60DAE700BF8C110020D811002080
:10442800D41100209012002088110020941100203F
:104438007011002010B586B00024059405AC0394D3
:104448000A9C0294099C0194089C0094FFF786FE3C
:1044580008B1FFF7FFFE059806B010BD30B58DB066
:104468000023089309930A930B930E2B09D8174A34
:10447800D25C03F13001694401F8102C0AB1013310
:10448800F3E730336B44002403F8104C002C02DDB2
:1044980001200DB030BD00250595069507AA06A98F
:1044A80005A801F083F9059B0293069B01930095EB
:1044B8002B46079A08A90648FFF7BCFF054B43F8A7
:1044C800240008B10134E1E70020E2E75061000868
:1044D8009D4900086C11002008B5FFF7BFFF0128AF
:1044E80005D0B0F1FF3F20D0144B1B6808BD00F089
:1044F8004FFE0128F5D14FF0500383F31188BFF325
:104508006F8FBFF34F8F0E4B1B6850330D4A1360EC
:104518000D4B4FF0FF321A600C4B01221A600C4B06
:1045280000221A6001F04AF8DEE74FF0500383F3E7
:104538001188BFF36F8FBFF34F8FFEE790610008BC
:10454800901200200000002070110020841100202B
:104558008C110020024A136801331360704700BFB2
:1045680068110020014B1868704700BF8C110020AB
:1045780008B501F0EDF8014B186808BD8C11002052
:10458800014B1868704700BF901100201D4B1B6835
:1045980003441D4A12689A4208D24FF0500383F32D
:1045A8001188BFF36F8FBFF34F8FFEE710B5044636
:1045B800154A12689A4204D0124A136823441360B9
:1045C80010BD124B1B6843B94FF0500383F3118899
:1045D800BFF36F8FBFF34F8FFEE740B94FF0500323
:1045E80083F31188BFF36F8FBFF34F8FFEE700F09F
:1045F800E3FE074A13680133136000F0FFFE013C35
:10460800DAE700BF8C11002070110020681100202B
:1046180080110020F8B5524B1B68002B40F09980A0
:10462800504B1C6801341C60C4B94F4B1B681B6895
:1046380043B14FF0500383F31188BFF36F8FBFF37B
:104648004F8FFEE7484A1168484B18681060196098
:10465800474A136801331360FFF7FCFC454B1B689E
:10466800A34211D90020444B1B68DB6A03EB830388
:104678009A00424B9B58012B00D90120404B1B68E4
:10468800002B6BD0012069E0002037E0394B4FF058
:10469800FF321A60E7E7374B1A60E4E7D9685160E0
:1046A80042E000219962116801391160DA6A01213A
:1046B8009140344E376839433160304902EB820209
:1046C8004FEA820C8C44DCF804209A609668DE601D
:1046D80075609560DA6A02EB820C4FEA8C056E18F9
:1046E8005E614D5901354FEA8C0C41F80C50DA6A7D
:1046F800214B1B68DB6A9A4200D901201A4B1B68C0
:104708001B68002BC2D0184B1B68DB68DB685A6833
:104718009442C0D35A699D68D968A9609D684D6064
:1047280051681D1DA942B9D000215961116801398C
:1047380011609A6A002AB9D0DE69196AB160DE6927
:104748004E60566803F118018E42AAD1196A516069
:10475800A7E70D4A1368013313600020F8BD00BFB6
:10476800681100208C110020D8110020D4110020DD
:1047780078110020701100209012002004120020EF
:104788007C110020881100208011002038B500F02D
:1047980013FE4C4B1B6843B94FF0500383F3118849
:1047A800BFF36F8FBFF34F8FFEE7464B1A68013A8E
:1047B8001A601B68002B7FD1434B1B683BB9002450
:1047C8007BE0196A516015E0D968516021E0002347
:1047D8003E4A1268002A4AD03C4BDB68DB689A6A7A
:1047E800D869196A8160D8694860506803F118016E
:1047F8008842E6D0002199621168013911605A692E
:104808009868D9688160986848605168181D814225
:10481800DAD000215961116801391160DA6A012181
:1048280091402B4C2568294321602A4902EB8202DA
:1048380001EB820252689A609468DC606060906064
:10484800DA6A02EB820001EB80045C6151F8200017
:10485800013002EB820241F82200D96A1E4A12682E
:10486800D26A9142B4D91D4A01211160B0E70BB157
:10487800FFF7F0FB1A4B1C6894B9184B1C68E4B19D
:10488800154B1B684FF0E0234FF08052C3F8042DFE
:10489800BFF34F8FBFF36F8F01240EE0013C07D0A9
:1048A800FFF7B8FE0028F9D00C4B01221A60F5E793
:1048B8000B4B00221A60E0E7002400F09FFD204621
:1048C80038BD00BF6811002090110020C0110020E1
:1048D8008811002004120020901200207C11002072
:1048E8008011002038B558B10C46054689B94FF0FB
:1048F800500383F31188BFF36F8FBFF34F8FFEE729
:104908004FF0500383F31188BFF36F8FBFF34F8FBE
:10491800FEE7FFF71FFE1D4B18681D4B1B68012B98
:1049280008D04FF0500383F31188BFF36F8FBFF3A4
:104938004F8FFEE72B681C4483420BD9A34202D851
:104948002C60002410E0A04202D32C6000240BE06D
:104958002C6004E0A34201D8A04214D22C600021AC
:10496800201AFFF709FD0124FFF710FF48B94FF09F
:10497800E0234FF08052C3F8042DBFF34F8FBFF3ED
:104988006F8F204638BD2C600024EDE78C11002085
:104998006811002008B505E0AFF30080FFF738FB89
:1049A800012810D8FFF7C2FC144B1B68012BF3D960
:1049B8004FF0E0234FF08052C3F8042DBFF34F8F20
:1049C800BFF36F8FE8E7FFF7C5FD0D4B1A680D4B76
:1049D8001B689A4206D3FFF71BFB01280BD8FFF789
:1049E800D5FEDFE74FF0500383F31188BFF36F8FD5
:1049F800BFF34F8FFEE700F02DFDF0E70412002013
:104A0800701100208C110020224B1B681BB1224B17
:104A180001221A607047204B00221A601F4B1B6846
:104A2800B3FA83F3DBB2C3F11F0303EB83018A00FC
:104A38001B498A5842B94FF0500383F31188BFF3DA
:104A48006F8FBFF34F8FFEE7154803EB83018A0092
:104A5800024451684968516003EB830C4FEA8C02A9
:104A68000832024491420ED003EB83039A000C4BA8
:104A780013445B68DA680B4B1A601A681B6850337A
:104A8800094A136070476246910002460A44D16899
:104A98005160E9E7681100207C110020881100208E
:104AA80004120020901200200000002058B110B518
:104AB8000C46094A11681831FEF716FE01212046F6
:104AC800FFF75AFC10BD4FF0500383F31188BFF372
:104AD8006F8FBFF34F8FFEE79012002038B5D8B123
:104AE8008C46114605464268104B1868C261186822
:104AF800946804621868183060601868183090600C
:104B08001B689D622B6801332B6009B14FF0FF3C95
:104B18006046FFF731FC38BD4FF0500383F311882E
:104B2800BFF36F8FBFF34F8FFEE700BF90120020D7
:104B380038B5C368DC68002C4DD0A36AE169226AE5
:104B48008A60E16951605A6804F118018A424BD0C1
:104B58000022A2621A68013A1A602D4B1B68002BCA
:104B680048D16369A168E2688A60A16851605A689F
:104B7800211D8A423BD0002262611A68013A1A60FC
:104B8800E36A01229A40234805682A430260224AC0
:104B980003EB830302EB83035B68A3609868E06020
:104BA80041609960E36A03EB830102EB8100606175
:104BB80052F82110013103EB830342F82310FFF769
:104BC80049FAE26A154B1B68DB6A9A421ED9012032
:104BD800134B186038BD4FF0500383F31188BFF3AF
:104BE8006F8FBFF34F8FFEE7226A5A60B0E7E26823
:104BF8005A60C0E70B4B5A68E261906820624160D6
:104C08009160A3621A6801321A60DAE70020E1E7CE
:104C18006811002088110020041200209012002042
:104C28007C110020C0110020034B1B680360034B5C
:104C38001B684360704700BF781100208C1100206A
:104C4800F8B5B8B10C460546E9B100F0B5FB1C4B08
:104C580019686B68C81A2268B2F1FF3F2AD0194E4A
:104C680036682F68B74217D08B4215D800232360C7
:104C7800012420E04FF0500383F31188BFF36F8FB6
:104C8800BFF34F8FFEE74FF0500383F31188BFF354
:104C98006F8FBFF34F8FFEE7824203D80023236054
:104CA800012408E05B1A134423602846FFF7BCFF81
:104CB800002400E0002400F0A1FB2046F8BD00BF5E
:104CC8008C11002078110020014B01221A607047D6
:104CD8007C1100200C4B1B6873B90C4B1B686BB91B
:104CE8000B4B1B6863B90B4B1A680B4B1B68013BDA
:104CF8009A4207D001207047002070470020704773
:104D08000020704702207047C01100207C1100204D
:104D1800801100209411002090110020054B1B6881
:104D280033B1054B1B680BB1002070470220704758
:104D3800012070478411002068110020002854D0F9
:104D480070B504462B4B1B68834208D04FF05003C4
:104D580083F31188BFF36F8FBFF34F8FFEE7836C28
:104D680043B94FF0500383F31188BFF36F8FBFF33C
:104D78004F8FFEE7013B8364C16A426C914236D093
:104D88000BB1002070BD051D2846FEF7C6FC38B9DA
:104D9800E36A01229A4018490B6823EA02030B6070
:104DA800636CE362C3F10702A261012000FA03F217
:104DB80011490E6832430A60104A03EB830302EB81
:104DC80083035B68A3609968E1604D609D60E36A56
:104DD80003EB830102EB8105656152F82110014460
:104DE80003EB830342F82310CCE700207047002030
:104DF800C8E700BF9012002088110020041200208C
:104E0800064B1A6813682BB90123036023B9D368CA
:104E1800186870470023F8E70020704790130020B7
:104E280008B54160006191420CD8D21A83699A4250
:104E380001D3012008BD011D094B1868FEF754FC79
:104E48000020F7E79A4201D2994206D2011D054B8C
:104E58001868FEF749FC0020ECE70120EAE700BFEC
:104E68008C1300209013002070B504460D4616469A
:104E780004E0A3691D44236A20469847A1692B468C
:104E8800324629442046FFF7CBFF0028F1D170BDF8
:104E980070B505460E460D4B1B68DB68DC68201DA7
:104EA800FEF73BFC94F8243013F0040F07D123F0ED
:104EB800010384F82430236A2046984770BD32469F
:104EC80029462046FFF7D0FFF5E700BF90130020E2
:104ED80008B505E0DB684FF0FF311868FFF7D8FF29
:104EE800054B1B681A68002AF4D1044A1068024965
:104EF8000860136008BD00BF901300208C130020C9
:104F080038B50546FFF72EFB0446074B1B6883425E
:104F180005D800232B60044B1C60204638BDFFF7E2
:104F2800D7FF01232B60F6E78013002070B582B00D
:104F380006460C46FFF70EFB01A8FFF7E1FF019BB1
:104F480033BB0546E4B9B04213D22246711B124B5B
:104F58001868FFF733F8FFF719FCD8B94FF0E023CA
:104F68004FF08052C3F8042DBFF34F8FBFF36F8FFC
:104F780010E0FFF70BFC29463046FFF789FF09E0F0
:104F8800064A126812680AB90124DEE71C46DCE703
:104F9800FFF7FCFB02B070BD881300208C130020C3
:104FA80030B587B0002302930393049305932DE053
:104FB80005990498039B984733E094F8243043F00C
:104FC800010384F82430039BA16902461944204652
:104FD800FFF726FFD0B194F8243013F0040F07D15F
:104FE80023F0010384F82430236A204698470DE013
:104FF800A3692A46039919442046FFF735FFF3E7CA
:1050080094F8243023F0010384F82430002202A904
:10501800294B1868FEF78AFE00284BD0029B002B0C
:10502800C6DB029B002BF1DB049C002CEED06369ED
:1050380013B1201DFEF771FB01A8FFF761FF0546BC
:10504800029901390829E1D801A353F821F000BFDA
:10505800C34F0008C34F0008095000087D500008DE
:10506800AF500008C34F0008C34F0008095000089C
:105078007D50000894F8243043F0010384F824306C
:105088000399A16131B10346024601442046FFF766
:10509800C7FEBBE74FF0500383F31188BFF36F8F50
:1050A800BFF34F8FFEE794F8243023F0010384F810
:1050B8002430ABE707B030BD8813002000B583B0BB
:1050C80001A8FFF79DFE0199FFF730FFFFF768FF82
:1050D800F6E7000030B583B000F06EF9114B1B689D
:1050E8001BB100F08BF903B030BD0F4D2846FEF719
:1050F800EDFA0E4C2046FEF7E9FA0D4B1D600D4BFC
:105108001C60002300930C4B0C4A10210A20FEF768
:1051180072FC044B18600028E3D00949FEF71EFF13
:10512800DFE700BF88130020A81300209413002095
:10513800901300208C13002094120020E01200200D
:10514800586100082DE9F041079F41B94FF050031D
:1051580083F31188BFF36F8FBFF34F8FFEE70646C7
:1051680014461D468846FFF7B5FF3E60C7F818800D
:10517800FD61069B3B62381DFEF7B3FA2CB197F828
:10518800243043F0040387F82430BDE8F0810000A0
:1051980010B588B0FFF79EFF124B1B68CBB10024F7
:1051A8000594069407AA06A905A800F00BFB059B21
:1051B8000293069B0193022300932346079A0A4908
:1051C8000A48FFF737F90A4B186010B1012008B0F8
:1051D80010BD4FF0500383F31188BFF36F8FBFF3F7
:1051E8004F8FFEE78813002060610008C550000853
:1051F8008413002010B584B08446282003900398B7
:10520800282808D04FF0500383F31188BFF36F8F1D
:10521800BFF34F8FFEE70398079860B10220079C01
:1052280084F824000194069800906046FFF78AFFEE
:10523800079804B010BD4FF0500383F31188BFF3F3
:105248006F8FBFF34F8FFEE710B584B09C460F4BAE
:105258001C68ACB1B8B1009101920290052908DC34
:105268004FF0500383F31188BFF36F8FBFF34F8F55
:10527800FEE70023624669462046FEF7C8FC00E0C8
:10528800002004B010BD0020FBE700BF88130020F9
:1052980082B0002301930D4B1B68B3F1FF3F08D088
:1052A8004FF0500383F31188BFF36F8FBFF34F8F15
:1052B800FEE74FF0500383F31188BFF36F8FBFF3FE
:1052C8004F8F019B002BFCD002B07047680500206F
:1052D800064B19680868B0E8F04F80F30988BFF3F7
:1052E8006F8F4FF0000080F31188704790120020F4
:1052F80008480068006880F308884FF0000080F3D1
:10530800148862B661B6BFF34F8FBFF36F8F00DFAB
:1053180000BF000008ED00E0EFF30980BFF36F8FD6
:10532800144B1A681EF0100F08BF20ED108A20E9F0
:10533800F04F10602DE909004FF0500080F31188FC
:10534800BFF34F8FBFF36F8FFFF75EFB4FF0000087
:1053580080F3118809BC19680868B0E8F04F1EF09E
:10536800100F08BFB0EC108A80F30988BFF36F8F65
:105378007047000090120020DFF80C00016841F42B
:10538800700101607047000088ED00E04FF0807305
:1053980040F8043C21F0010140F8081C054B40F896
:1053A8000C3C40F8202C6FF0020340F8243C4438B1
:1053B800704700BF995200084FF0500383F31188DB
:1053C800BFF36F8FBFF34F8F0B4A1368013313601E
:1053D800012B00D070474FF0E023D3F8043D13F0C1
:1053E800FF0FF7D04FF0500383F31188BFF36F8F8F
:1053F800BFF34F8FFEE700BF68050020094B1B680D
:1054080043B94FF0500383F31188BFF36F8FBFF395
:105418004F8FFEE7013B034A13600BB983F31188F2
:10542800704700BF6805002008B54FF0500383F3AC
:105438001188BFF36F8FBFF34F8FFFF7EBF828B1D9
:105448004FF0E0234FF08052C3F8042D002383F37C
:10545800118808BD10B5414B1C68844200D304462E
:1054680072B6BFF34F8FBFF36F8FFFF733FC08B9E6
:1054780062B610BD4FF0E02306221A619B690BB992
:10548800374B1B68601E364A126802FB00334FF028
:10549800E022D2F8042D12F0806F08D04FF0E022FD
:1054A8004FF00071C2F8041D2D4A12689B1A2D4A4C
:1054B80012689A4200D29B1A4FF0E02253610021F1
:1054C8009161116941F00101116124B1BFF34F8F5E
:1054D80030BFBFF36F8F62B6BFF34F8FBFF36F8FCD
:1054E80072B6BFF34F8FBFF36F8F4FF0E0220621E4
:1054F8001161126912F4803F1FD0194A11684FF0E8
:10550800E0229269D31A0B44013B164A12689A4268
:1055180001D2994200D24B1E4FF0E02253614FF066
:10552800E02300229A6107221A610D4A1268013AA3
:105538005A61FFF72BF862B69BE74FF0E0218B69C1
:10554800074A126802FB04F4E01AB0FBF2F000FB11
:1055580002221B1B13444B61E1E700BFC813002064
:10556800CC130020C41300200F4803680F49A1FB87
:1055780003239B090E4A13606FF07F42B2FBF3F3DB
:105588000C4A13600C4B5E221A604FF0E022002395
:10559800136193610368A1FB03139B09013B5361EA
:1055A80007231361704700BF64050020D34D6210C4
:1055B800CC130020C8130020C41300204FF0E023B0
:1055C800D3F8002D5A4B9A4217D04FF0E023D3F866
:1055D800002D584B9A4219D04FF0E023D3F8083DDC
:1055E800D96A554A91421AD04FF0500383F3118873
:1055F800BFF36F8FBFF34F8FFEE74FF0500383F376
:105608001188BFF36F8FBFF34F8FFEE74FF0500342
:1056180083F31188BFF36F8FBFF34F8FFEE79A6B49
:10562800464B9A4208D04FF0500383F31188BFF3DA
:105638006F8FBFF34F8FFEE730B583B00023019320
:105648003F4B1A78D2B28DF80220FF221A701B78CD
:10565800DBB28DF803309DF8033003F05003394A6C
:10566800137043B94FF0500383F31188BFF36F8F62
:10567800BFF34F8FFEE79DF80330DB4313F0500F65
:1056880008D04FF0500383F31188BFF36F8FBFF337
:105698004F8FFEE79DF8033013F0800F09D0019B70
:1056A800013301939DF803305B00DBB28DF80330C2
:1056B800F0E7019B082B36D0019BC3F10703224A70
:1056C8001360214A13681B02136003F4E06313603C
:1056D8009DF80230DBB21A4A13704FF0E024D4F878
:1056E800203D43F47F03C4F8203DD4F8203D43F027
:1056F8007F43C4F8203D0025C4F81C5DFFF734FF44
:10570800124B1D60FFF738FED4F8343F43F0404396
:10571800C4F8343FFFF7ECFDFFF776F9FFF7B8FD63
:10572800284603B030BD084B00221A60C9E700BF05
:1057380071C20F4170C20F41D952000821530008AD
:1057480000E400E0C0130020BC130020680500201E
:10575800EFF305830F2B0FD9114A9B5CDBB2114A7B
:1057680012789A4208D94FF0500383F31188BFF397
:105778006F8FBFF34F8FFEE74FF0E023D3F80C3D58
:1057880003F4E063084A1268934208D94FF05003C3
:1057980083F31188BFF36F8FBFF34F8FFEE7704716
:1057A800F0E300E0C0130020BC130020034B0360AB
:1057B800034B0B6080231360704700BF481B002019
:1057C80048190020034B0360034B0B604FF48073B0
:1057D80013607047D0170020D0130020704786B0A0
:1057E8004FF0E023D3F8282D0592D3F82C2D0492FE
:1057F800D3F8302D0392D3F83C2D0292D3F8342DF0
:105808000192D3F8383D009300BE06B070470000FF
:1058180010B503460C4A0D490D48006840B10C48C4
:1058280000680344521A934206D8094A136010BD0F
:105838000748084C0460F2E7FAF71CFD0C230360E4
:105848004FF0FF30F3E700BF000002200004000023
:10585800C01C0020102300200020704730B583B002
:105868000446002301930368B3F1A04F27D0002515
:105878001A4A934226D01A4A934226D0194A93428A
:1058880026D0194A934226D02046FBF7B3FB009056
:10589800002301AA69462846FEF7B9F92046FFF712
:1058A800DBFF019B4BB14FF0E0234FF08052C3F870
:1058B800042DBFF34F8FBFF36F8F03B030BD0B4A7A
:1058C8001568D5E70A4A1568D5E70A4A1568D5E77D
:1058D800094A1568D5E7094B1D68D5E7000100504E
:1058E800000400500005005000060050D81C00209D
:1058F800D41C0020D01C0020CC1C0020C81C002078
:1059080008B5044B1868FBF779FB034B1868FBF7DD
:1059180075FB08BD4C060020DC05002008B5024BCD
:105928001868FBF76BFB08BD6C050020026E014B85
:105938001A607047C41C002070B582B004460D463A
:10594800FBF73EFE18B10026304602B070BD064691
:1059580029462046FBF71EFF0028F5D122683C4B5C
:105968009A4209D022683B4B9A4228D022683A4B87
:105978009A4247D00126E7E700250095374B384A79
:105988002C210A20FEF737F8364B1860364B1B6877
:105998009D42E7D2354A05EB450602EB461605EB74
:1059A80045035B0110331344002200920433F2686C
:1059B8003021B088FEF71FF8B0600135E6E7002512
:1059C80000952B4B2B4A2C210A20FEF714F82A4B62
:1059D80018602A4B1B689D42C8D2294A05EB450628
:1059E80002EB461605EB45035B0110331344002216
:1059F80000920433F2683021B088FDF7FCFFB060F4
:105A08000135E6E7002400941E4B1F4A2C210A208A
:105A1800FDF7F1FF1D4B18601D4B1B689C4214D20B
:105A28001C4A04EB440502EB451504EB44035B01F7
:105A380010331344002200920433EA683021A88806
:105A4800FDF7D9FFA8600134E6E701267CE700BF2F
:105A58000064004000680040006C0040A422002060
:105A6800EC200020F02200209C610008DC1C0020B3
:105A78009C200020E41E0020E820002098610008F7
:105A8800DC1C0020941E0020DC1C0020E01E0020EE
:105A980094610008DC1C002070B504460122042132
:105AA800FBF796FF10B10025284670BD0546002279
:105AB80081212046FBF7A6FF06460028F4D12046A0
:105AC800FBF79BFE08B90125EEE73546ECE782B007
