:020000040800F2
:1000000000000220A9540008F9540008774E0008A7
:10001000F9540008F9540008F954000800000000E1
:100020000000000000000000000000006949000816
:10003000F954000800000000B1490008C14A000856
:10004000F9540008F9540008F9540008F95400085C
:10005000F9540008F9540008990D0008F9540008F3
:10006000A30D0008F9540008F9540008F9540008D9
:10007000F9540008F9540008F9540008F95400082C
:10008000F9540008F9540008994F0008F954000881
:10009000F9540008F952000809530008F9540008FF
:1000A000F9540008F9540008F9540008F9540008FC
:1000B000F9540008F9540008F9540008F9540008EC
:1000C000F9540008F9540008F9540008F9540008DC
:1000D000F95400086954000879540008895400084C
:1000E000F9540008F9540008F9540008F9540008BC
:1000F000F9540008F9540008F9540008B54F0008F5
:10010000F9540008F9540008F9540008F95400089B
:1001100049540008595400080D2E0008F9540008ED
:10012000F9540008F9540008F9540008F95400087B
:10013000F9540008F9540008F9540008F95400086B
:10014000F9540008F9540008F954000800000000B0
:10015000000000000000000000000000000000009F
:10016000000000000000000000000000F95400083A
:10017000F9540008F9540008F9540008F95400082B
:10018000F9540008F9540008F9540008F95400081B
:10019000F954000800000000195300082953000812
:1001A0003953000849530008F954000899540008CD
:1001B000F9540008F9540008F9540008F9540008EB
:1001C000F9540008F9540008F9540008F9540008DB
:0801D000F9540008F95400087D
:1001D800830730B547D0541E002A3ED0CAB2034622
:1001E80001E0013C39D303F8012B9D07F9D1032C19
:1001F8002CD9CDB205EB05250F2C05EB054535D9D6
:10020800A4F1100222F00F0C03F1100EE6444FEA9D
:10021800121C1A46C2E90055C2E90255103272454D
:10022800F8D10CF1010214F00C0F03EB021204F0E8
:100238000F0C13D0ACF1040323F00303043313446D
:1002480042F8045B9342FBD10CF003042CB1C9B211
:100258001C4403F8011BA342FBD130BD644613467E
:10026800002CF4D1F9E703461446C0E71A46A44621
:10027800E0E700BF014B1868704700BF000000208E
:10028800844641EA000313F003036DD1403A41D399
:1002980051F8043B40F8043B51F8043B40F8043B58
:1002A80051F8043B40F8043B51F8043B40F8043B48
:1002B80051F8043B40F8043B51F8043B40F8043B38
:1002C80051F8043B40F8043B51F8043B40F8043B28
:1002D80051F8043B40F8043B51F8043B40F8043B18
:1002E80051F8043B40F8043B51F8043B40F8043B08
:1002F80051F8043B40F8043B51F8043B40F8043BF8
:1003080051F8043B40F8043B51F8043B40F8043BE7
:10031800403ABDD2303211D351F8043B40F8043B87
:1003280051F8043B40F8043B51F8043B40F8043BC7
:1003380051F8043B40F8043B103AEDD20C3205D397
:1003480051F8043B40F8043B043AF9D2043208D08F
:10035800D2071CBF11F8013B00F8013B01D30B8801
:1003680003806046704700BF082A13D38B078DD0DF
:1003780010F003038AD0C3F10403D21ADB071CBFB1
:1003880011F8013B00F8013B80D331F8023B20F81B
:10039800023B7BE7043AD9D3013A11F8013B00F854
:1003A800013BF9D20B7803704B7843708B788370DC
:1003B80060467047194B1B6883422ED0416C70B55C
:1003C800054681B100268C593CB12146246828464F
:1003D80000F0AAF8002CF8D1696C0436802EF2D10E
:1003E800284600F0A1F8A96B11B1284600F09CF846
:1003F8002C6C34B121462468284600F095F8002C6E
:10040800F8D1E96C11B1284600F08EF86B6B1BB17E
:100418002846BDE87040184770BD704700000020AE
:1004280070B50F4B0F4DAB42A3EB050607D0B610C6
:10043800002455F8043B01349847A642F9D804F043
:1004480015FD094D094B5E1BAB424FEAA60606D0C7
:10045800002455F8043B01349847A642F9D870BDEA
:10046800CC550008CC550008CC550008CC550008E0
:100478002DE9F84306460820894600F051F9DFF8CF
:10048800A4800546304600F059F9D8F808305F686E
:1004980027F00307A7F11104A4EB09042C44B4FBCB
:1004A800F5F4013C05FB04F4A54208DC00213046C4
:1004B80000F048F9D8F808303B44984205D0304657
:1004C80000F03EF90020BDE8F8836142304600F0B4
:1004D80039F901300FD0114AD8F808303F1B47F0DE
:1004E80001075F60136830461B1B136000F028F992
:1004F8000120BDE8F8830021304600F023F9D8F840
:100508000820831A0F2BDADD43F001035360044BF4
:1005180002491B68C01A0860D1E700BFA40C00207C
:10052800300500202801002000297CD02DE9F04169
:100538000C46804600F002F954F8043C754FA4F1CB
:10054800080523F001016818BE684268864222F057
:10055800030200F08380DE07426000EB020C33D414
:1005680054F8084CDCF804302D1B2144AC6807F122
:10057800080C644503F0010364D0D5F80CE0C4F816
:100588000CE0CEF80840002B00F0818041F0010318
:100598006B600160B1F5007F22D27868CB08012238
:1005A800490901338A40024357F833107A6007EB50
:1005B800C302083AC5E9021247F83350CD604046F5
:1005C800BDE8F04100F0BCB8DCF80430DB072BD5FF
:1005D80041F00103B1F5007F44F8043C0160DCD32D
:1005E800B1F5206F4FEA512353D28B0903F139003B
:1005F80003F13802C300F818FB580838984203D1B1
:1006080061E09B68984204D05A6822F003028A424B
:10061800F7D8D868C5E902308560DD604046BDE896
:10062800F04100F08DB87047114407F1080C836859
:1006380063453FD0C268DA60936041F001036B60A4
:100648006950A7E7002B5FD10A44D0E90213CB60B9
:10065800996042F001036B60AA50B0E7DB070A44D7
:1006680007D454F8083CED1A1A44D5E90213CB60B4
:10067800996042F001036B60274BBD601B68934291
:100688009DD8264B40461968FFF7F2FE97E71144BC
:10069800CDE7142B08D9542B1DD80B0B03F16F0091
:1006A80003F16E02C300A6E703F15C0003F15B02ED
:1006B800C300A0E741F00103C7E90455C5E902CC2E
:1006C8006B6069507BE779689210012404FA02F2A2
:1006D8000A437A609EE7B3F5AA7F06D8CB0B03F1ED
:1006E800780003F17702C30085E740F25452934241
:1006F80006D88B0C03F17D0003F17C02C3007AE776
:100708004FF47E737E2276E741F001036B6001604F
:1007180055E700BF2801002034050020A00C002068
:10072800082802D14FF48050704708B5FFF7A2FDA2
:10073800162303604FF0FF3008BD00BF704700BFAD
:10074800704700BF38B5074D0022044608462A60A6
:1007580004F0A6FB431C00D038BD2B68002BFBD04F
:10076800236038BD600B002070B58CB004460E467F
:10077800154600230793089309930A930B9307914F
:100788000892324B984245D01CD8A3F50063984292
:100798002AD003F58063984231D0B0F1904F09D147
:1007A8002B4BDA6C42F00102DA64DB6C03F00103D4
:1007B8000193019B07A9204600F0D4FF012D3FD1EA
:1007C8000CB070BD234B98422FD003F5806398423C
:1007D800F0D11F4BDA6C42F02002DA64DB6C03F0D4
:1007E80020030693069BE5E7194BDA6C42F00202F8
:1007F800DA64DB6C03F002030293029BDAE7144B22
:10080800DA6C42F00402DA64DB6C03F0040303934D
:10081800039BCFE70E4BDA6C42F00802DA64DB6C1C
:1008280003F008030493049BC4E7094BDA6C42F015
:100838001002DA64DB6C03F010030593059BB9E73B
:1008480000223146204601F084F8B9E7000C004840
:10085800001002400010004800B595B03822002171
:1008680006A8FFF7B5FC00230193029303930493B2
:1008780005934FF4007001F089F8012206924FF4B5
:100888008033079302230D9303210E910F921422B4
:10089800109211931293139306A801F031F978B9C5
:1008A8000F230193032302930023039304930593D7
:1008B800022101A801F0DAFB28B915B05DF804FBA4
:1008C80002F024FAECE702F021FAF6E700B585B069
:1008D80000F0EAFAFFF7C0FF074B0293074B0193BA
:1008E80001230093002380220549064803F068F895
:1008F80003F03AF9FEE700BFD80E0020D40C002020
:10090800FC5400081D0E000808B5024602210248E2
:1009180001F01FF808BD00BF0004004808B5012217
:1009280002210348FFF720FF0120FFF7EDFF08BD74
:100938000004004810B501224FF480614FF0904048
:10094800FFF712FF174C012208212046FFF70CFF82
:10095800012220212046FFF707FF0122102120460F
:10096800FFF702FF01224FF480412046FFF7FCFE0B
:1009780001224FF480612046FFF7F6FE01224FF472
:1009880000612046FFF7F0FE04F580640122022191
:100998002046FFF7E9FE012208212046FFF7E4FE82
:1009A80010BD00BF0004004818B108B500F0D6FF1C
:1009B80008BD704728B108B54FF44412FFF7D4FEBC
:1009C80008BD7047D8B138B50C461546FFF7F2FF99
:1009D80094FAA4F4B4FA84F4042C0AD8063464B261
:1009E80000222946204600F053FC204600F060FC17
:1009F80038BD092C01D81724F1E72824EFE7704700
:100A080008B50E2800F28880DFE800F00811193BCD
:100A180043222B334C555D656D757D0004214FF0E5
:100A2800904000F08FFF013818BF012008BD012158
:100A38003A4800F087FF013818BF0120F6E7022185
:100A48004FF0904000F07EFF013818BF0120EDE71D
:100A580001214FF0904000F075FF013818BF0120C8
:100A6800E4E701212E4800F06DFF013818BF01208E
:100A7800DCE780212A4800F065FF013818BF012013
:100A8800D4E74021264800F05DFF013818BF012057
:100A9800CCE74FF40071224800F054FF013818BF2A
:100AA8000120C3E74FF480711D4800F04BFF013867
:100AB80018BF0120BAE72021194800F043FF013888
:100AC80018BF0120B2E71021154800F03BFF01389C
:100AD80018BF0120AAE70421124800F033FF0138AB
:100AE80018BF0120A2E704210C4800F02BFF0138B1
:100AF80018BF01209AE70421094800F023FF0138B4
:100B080018BF012092E74FF48051054800F01AFF02
:100B1800013818BF012089E7012087E70004004851
:100B280000080048000C004838B50E2802D90C4BC4
:100B3800186838BD0C460125854003F085FF44B987
:100B4800074A13682B43136003F0A0FF044B18688F
:100B5800EFE7034A136823EA05031360F4E700BFCD
:100B68005010002010B582B0002201214FF09040B3
:100B7800FFF7FAFD002204214FF09040FFF7F4FD43
:100B8800002202214FF09040FFF7EEFD3A4C002280
:100B980001212046FFF7E8FD002204212046FFF747
:100BA800E3FD04F58064002201212046FFF7DCFD07
:100BB800002280212046FFF7D7FD0022042120468D
:100BC800FFF7D2FD002210212046FFF7CDFD0022BD
:100BD80020212046FFF7C8FD002240212046FFF7CC
:100BE800C3FD00224FF400712046FFF7BDFD00222F
:100BF8004FF480512046FFF7B7FD00224FF4807173
:100C08002046FFF7B1FD002204211C48FFF7ACFD88
:100C1800052201212046FFF7D5FE052204214FF0C9
:100C28009040FFF7CFFE164C164B0193164B0093DE
:100C380000231A46C821204603F024FE134B1860EF
:100C4800134B0193134B009300231A46C8212046E7
:100C580003F018FE104B18600020FFF7D1FE014684
:100C68000020FFF761FF0620FFF7CAFE01460620B5
:100C7800FFF75AFF02B010BD00040048000C0048FE
:100C88000C55000884100020D30C000880100020A8
:100C980058100020A50C00085410002008B50020AA
:100CA800FFF7AEFE01460020FFF73EFF0120FFF7E9
:100CB800A7FE01460120FFF737FF0220FFF7A0FE3D
:100CC80001460220FFF730FF08BD08B50520FFF7F1
:100CD80097FE01460520FFF727FF0720FFF790FE44
:100CE80001460720FFF720FF0620FFF789FE01468F
:100CF8000620FFF719FF08BD30B585B0002403941E
:100D08000C4B1D6802F07CFF0246009403AB0621E1
:100D1800284603F0E1FD039B4BB14FF0E0234FF071
:100D28008052C3F8042DBFF34F8FBFF36F8F05B008
:100D380030BD00BF8010002030B585B0002403947A
:100D48000C4B1D6802F05CFF0246009403AB0621C1
:100D5800284603F0C1FD039B4BB14FF0E0234FF051
:100D68008052C3F8042DBFF34F8FBFF36F8F05B0C8
:100D780030BD00BF5410002008B5012802D0042857
:100D880003D008BDFFF7B8FFFBE7FFF7D5FFF8E78B
:100D980008B5012000F0ECFD08BD08B5042000F0FE
:100DA800E7FD08BD00B583B002F024FF01900821DB
:100DB8000348FFF7F9FDFA2101A803F0DBF8F6E78D
:100DC8000008004800B583B002F014FF01904FF40A
:100DD80080610448FFF7E8FDFA2101A803F0CAF88A
:100DE800F5E700BF0004004800B583B002F002FF39
:100DF80001904FF480410648FFF7D6FD00210120FD
:100E0800FFF792FEFA2101A803F0B4F8F1E700BF5A
:100E18000004004800B585B0FFF78CFDFFF7A2FE7F
:100E2800FFF77CFD144B0293144B019303230093AB
:100E3800002380221249134802F0C2FD124B02938C
:100E4800124B01930223009300238022104911487A
:100E580002F0B6FD104B0293104B0193042300934C
:100E6800002380220E490F4802F0AAFD002002F05C
:100E7800F9FD05B05DF804FBA01300201819002047
:100E880020550008AD0D0008B010002018150020EE
:100E980034550008F10D000828120020181700200A
:100EA8005C550008CD0D000810B5032000F0DEF9F0
:100EB8000F2001F04FFF10B10124204610BD044659
:100EC80001F026FFF9E70000034A1368034909689F
:100ED8000B441360704700BF181B00203805002022
:100EE800014B1868704700BF181B00200368186C76
:100EF80070477047F8B5044603681E685F68B3F129
:100F0800A04F64D0984A93425FD0984B9D6805F0F3
:100F18001F0516F0020F10D017F0020F0DD0E36D69
:100F280013F0100F03D1E36D43F40063E36520462B
:100F380000F058F9236802221A6016F0040F02D054
:100F480017F0040F05D116F0080F58D017F0080F46
:100F580055D0E36D13F0100F03D1E36D43F4007324
:100F6800E3652368DA6812F4406F42D17E4A9342FF
:100F780032D002F5806293422BD01A46934207D0B2
:100F8800092D2CD840F22121E94011F0010F26D07B
:100F9800DA6812F4005F2CD11A6812F0080F28D012
:100FA8009A6812F0040F1CD15A6822F00C025A6099
:100FB800E36D23F48073E365E36D13F4805F18D168
:100FC800E36D43F00103E36513E0694B9EE7684B6B
:100FD8009CE7A2F58072D1E74FF0A042CEE7D26835
:100FE800D7E7E36D43F01003E365236E43F0010395
:100FF8002366204603F07AFF23680C221A6016F055
:10100800200F02D017F0200F05D116F0400F63D043
:1010180017F0400F60D0E36D13F0100F03D1E36DAC
:1010280043F40053E3652368DA6C12F4C07F16D1E9
:101038000121DA6812F4406F13D101204A4A934221
:1010480014D002F5806293420DD01A46934210D014
:101058007DB1062D0DD0072D0BD0D2680AE00021F6
:10106800E7E70020EAE7A2F58072EFE74FF0A04239
:10107800ECE7DA6851B312F0007F03D030B312F412
:10108800005F23D1196811F0400F1FD012F4001F20
:101098001CD19A6812F0080F10D15A6822F0600229
:1010A8005A60E36D23F48053E365E36D13F4807FA6
:1010B8000CD1E36D43F00103E36507E0E36D43F012
:1010C8001003E365236E43F001032366204600F016
:1010D80085F8236860221A6016F0800F02D017F096
:1010E800800F36D116F4807F02D017F4807F41D16B
:1010F80016F4007F02D017F4007F47D116F0100FC6
:1011080020D017F0100F1DD0E36B6BB1002D4DD020
:101118002368B3F1A04F47D0134A934242D0134BF0
:101128009B6813F4604F0AD0E36D43F48063E36572
:10113800236E43F002032366204603F03FFF236833
:1011480010221A6016F4806F02D017F4806F33D122
:10115800F8BDE36D43F48033E3652046FFF7C9FE2D
:10116800236880221A60BDE7000100500007005084
:1011780000030050E36D43F40033E365204600F0BC
:101188002FF823684FF480721A60B1E7E36D43F4D7
:101198008023E365204600F024F823684FF40072AA
:1011A8001A60ABE70C4BBBE70B4BB9E72368DB686E
:1011B80013F0010FC3D0B7E7E36D43F48043E36551
:1011C800236E43F00803236623684FF480621A6095
:1011D800204600F004F8BBE7000300507047704752
:1011E8007047704770470000002807DB00F01F02B7
:1011F800400901239340024A42F82030704700BF5B
:1012080000E100E0002808DB0901C9B200F16040F4
:1012180000F5614080F80013704700F00F000901E5
:10122800C9B2014B1954704714ED00E000B500F045
:101238000700C0F1070CBCF1040F28BF4FF0040CE5
:10124800031D062B0FD9C31E4FF0FF3E0EFA0CF0FC
:1012580021EA000199400EFA03FE22EA0E0241EA51
:1012680002005DF804FB0023EEE70000074AD3689C
:1012780023F4E0631B041B0C000200F4E06003434A
:1012880043F0BF6343F40033D360704700ED00E0E0
:1012980010B50446054BD868C0F30220FFF7C6FF17
:1012A80001462046FFF7AEFF10BD00BF00ED00E08D
:1012B80008B5FFF799FF08BD034690F82520D2B27C
:1012C800022A09D00422C2630120012283F82520C2
:1012D800002283F82420704701680A6822F00E0271
:1012E8000A60816C0A6822F480720A6001680A68E0
:1012F80022F001020A60426C02F01F01006C012218
:101308008A404260DA6C196D51605A6D42B11168B9
:1013180021F4807111609A6DD96D51600020D4E775
:101328000020D2E708B590F82530DBB2022B09D0AF
:101338000423C363012380F82530002280F8242089
:10134800184608BD0268136823F00E03136002688C
:10135800136823F001031360826C136823F480730D
:101368001360436C03F01F02016C012393404B6030
:10137800C36C026D5A60436D33B11A6822F48072EF
:101388001A60836DC26D5A60012380F825300023EE
:1013980080F82430836B13B198470020D1E70020F0
:1013A800CFE7000070B54C68ECB90D698C6825432F
:1013B8000C6845EA8445CC690E6A44EA06648E697D
:1013C80034434E693443CE6844EA0644406D03EB27
:1013D800C30300EBC30E40F83350CEF804400EF1BF
:1013E800080E002019E00C698D6825430C68254318
:1013F80045F08045DFE702EB000C9CF803409CF8C1
:1014080002301B0443EA04639CF8014043EA0423C6
:10141800145C23434EF8043B0430CB68024CE35C75
:101428008342E8D870BD00BF8C55000838B5044623
:1014380090F85C30DBB2022B1BD10368D3F8C400F0
:1014480010F4001F05D0236E43F4007323660120B7
:1014580014E0D3F8C450C5F301452B462046FFF7E6
:10146800A1FF22680123AB40C2F8CC30A36500205D
:1014780004E0036E43F008030366012038BD000052
:1014880070B590F85C40E4B2022C40F09580402999
:101498000BD00468D4F8985015F00F0F27D1036EBD
:1014A80043F48073036601208BE00468D4F89050FD
:1014B80015F00F0F05D1036E43F480730366012006
:1014C8007FE0D4F8906016F0807605D0D4F880607C
:1014D80016F4007600D00126D4F89040C4F3012415
:1014E8002644846C06EBC60504EBC50E14E0D4F85C
:1014F800986016F0807605D0D4F8806016F480766F
:1015080000D00126D4F89840C4F301242644C46CC2
:1015180006EBC60504EBC50EDEF8004004F0804477
:10152800546064BBDEF80040C4F38A441460DEF8FB
:10153800004004F000549460DEF8004004F00044D9
:101548001461BEF80440D461BEF8064004F00F04EC
:10155800D460DEF8044004F480145461DEF80440DA
:1015680004F4001494619EF8074004F07F041462A8
:10157800DEF80440E40F54624FF0000C0CE0DEF893
:10158800004024F060441460D1E70EEB0C04247A88
:1015980003F80C400CF1010CD4680A4D2C5D64452D
:1015A800F3D8402904D00368C3F89C60002008E001
:1015B8000368C3F89460F9E7036E43F00803036611
:1015C800012070BD8C550008704770477047704700
:1015D800704770477047704770472DE9F84F0446C9
:1015E80003681A6D02F4E05A5A6D0AEA020A1A6D83
:1015F80002F007095A6D09EA02091A6D02F0380863
:101608005A6D08EA02081E6D06F471065A6D1640F6
:101618001F6D07F460275A6D1740D3F854B01D6D3D
:1016280015F0400F02D01BF0400F41D115F4807F18
:1016380002D01BF4807F40D1BAF1000F4AD1B9F132
:10164800000F4FD1B8F1000F54D115F4007F02D02C
:101658001BF4007F56D115F0800F02D01BF0800FCD
:1016680058D115F4005F02D01BF4005F5ED115F469
:10167800004F02D01BF4004F60D115F4804F0AD000
:101688001BF4804F07D023684FF480421A65236EFD
:1016980043F080032366002F58D126B123681E65C6
:1016A800236E33432366236E002B56D1BDE8F88F93
:1016B80040221A65FFF78EFFB8E72368D3F8D810E1
:1016C800D3F8E0204FF48070186511402046FFF7EA
:1016D8007EFFB1E72368C3F850A051462046FFF7C4
:1016E80073FFACE72368C3F850904946204603F0DF
:1016F80071FCA7E72368C3F8508041462046FFF7EE
:1017080064FFA2E723684FF400721A652046FFF7CA
:101718005DFFA0E72368D3F8D410D3F8DC2080203D
:1017280018651140204603F099FD9AE723684FF4A5
:1017380000521A652046FFF74BFF98E723684FF4DD
:1017480000421A652046FFF744FF96E723681F65A5
:1017580039462046FFF740FF9FE72046FFF73BFF4B
:10176800A4E70000F0B583B0002366E085685E005A
:101778000324B44025EA0405CC68B4402C438460B3
:10178800456825EA0C054C68C4F300149C402C43BA
:10179800446063E08C68012C65D173E0DD0808358E
:1017A80050F8254003F0070C4FEA8C0C4FF00F0E51
:1017B8000EFA0CFE24EA0E0E0C6904FA0CF444EA44
:1017C8000E0440F8254062E0052400E0002404FAF5
:1017D8000EF42C430CF1020C564D45F82C40564C97
:1017E800A568D44325EA02064F6817F4801F01D084
:1017F80042EA0506504DAE60ED6804EA05064F68FA
:1018080017F4001F01D042EA05064B4DEE606D68E3
:1018180004EA05064F6817F4003F01D042EA0506BE
:10182800454D6E602D682C404E6816F4803F01D0FF
:1018380042EA0504404A146001330A6832FA03F4A4
:1018480076D04FF0010C0CFA03FC1CEA0202F3D02C
:101858004C6804F00304013C012C87D94C6804F05F
:101868000304032C96D0C4684FEA430E4FF0030CD0
:101878000CFA0EFC24EA0C0C8C6804FA0EF444EA08
:101888000C04C4604C6804F00304022C86D004687D
:101898004FEA430E4FF0030C0CFA0EFC24EA0C0C32
:1018A8004C6804F0030404FA0EF444EA0C040460DF
:1018B8004C6814F4403FBFD0204C256E45F001051C
:1018C8002566246E04F001040194019C4FEA930CF0
:1018D8000CF10205174C54F8255003F0030E4FEA9B
:1018E8008E0E0F2404FA0EF425EA0405B0F1904F89
:1018F8003FF46CAF124CA04212D004F58064A042B1
:1019080010D004F58064A0420ED004F58064A04293
:101918000CD004F58064A0423FF456AF062456E785
:10192800012454E7022452E7032450E704244EE735
:1019380003B0F0BD00000140000401400010024067
:10194800000400480369194201D0012070470020B3
:1019580070470AB18161704781627047436901EA43
:10196800030221EA030141EA024181617047000054
:1019780008B5054B5B69034200D108BD024B5861AD
:10198800FFF7FAF9F9E700BF00040140002836D153
:101998003E4B1B6803F4C063B3F5806F08D03B4A25
:1019A800D2F8803023F48073C2F88030002070476A
:1019B800364AD2F8803023F48073C2F88030136836
:1019C80023F4C06343F400731360314B1B68322265
:1019D80002FB03F32F4AA2FB03239B0C013300E015
:1019E800013B2A4A526912F4806F01D0002BF7D1CB
:1019F800264B5B6913F4806F44D100207047B0F523
:101A0800007F08D0214A136823F4C06343F480633D
:101A18001360002070471D4B1B6803F4C063B3F5C7
:101A2800806F08D0194AD2F8803043F48073C2F826
:101A3800803000207047154AD2F8803043F4807314
:101A4800C2F88030136823F4C06343F40073136052
:101A58000F4B1B68322202FB03F30E4AA2FB03233F
:101A68009B0C013300E0013B084A526912F4806F75
:101A780001D0002BF7D1054B5B6913F4806F03D1BC
:101A88000020704703207047032070470070004013
:101A98004005002083DE1B43024A936843F48043D9
:101AA8009360704700700040124BDA6802F003023E
:101AB800DB68C3F303130133032A11D00E48B0FBCC
:101AC800F3F00C4BDB68C3F3062303FB00F0094B70
:101AD800DB68C3F3416301335B00B0FBF3F070478D
:101AE8000648B0FBF3F0034BDB68C3F3062303FBA4
:101AF80000F0ECE7001002400024F40000127A0025
:101B0800002800F04F8270B582B00446036813F0D5
:101B1800010F37D0A44A936803F00C03D26802F08F
:101B280003020C2B23D0082B23D06368B3F5803F26
:101B38004ED0B3F5A02F51D09B4B1A6822F48032B7
:101B48001A601A6822F480221A606368002B52D047
:101B5800FFF7C6F90546944B1B6813F4003F11D1F3
:101B6800FFF7BEF9401B6428F5D9032023E2032AB6
:101B7800D9D18D4B1B6813F4003F03D06368002B49
:101B880000F01282236813F0020F5DD0864A936832
:101B980003F00C03D26802F003020C2B3AD0042B9A
:101BA8003AD0E368002B75D07F4A136843F48073FA
:101BB8001360FFF795F905467B4B1B6813F4806F9C
:101BC8005FD1FFF78DF9401B0228F5D90320F2E118
:101BD800754A136843F480331360B6E703F1804312
:101BE800A3F53C331A6842F480221A601A6842F45A
:101BF80080321A60A9E7FFF773F905466A4B1B683C
:101C080013F4003FBED0FFF76BF9401B6428F5D9E9
:101C18000320D0E1022AC2D1634B1B6813F4806F02
:101C280003D0E368002B00F0C1815F4A536823F0BA
:101C3800FE43216943EA016353605C4B186801F075
:101C480089F8002840F0B481236813F0080F4CD0BD
:101C580063699BB3544AD2F8943043F00103C2F845
:101C68009430FFF73DF905464F4BD3F8943013F005
:101C7800020F3AD1FFF734F9401B0228F4D90320A8
:101C880099E1494A536823F0FE43216943EA016315
:101C98005360D9E7444A136823F480731360FFF74D
:101CA8001FF90546404B1B6813F4806FCCD0FFF733
:101CB80017F9401B0228F5D903207CE13A4AD2F8EB
:101CC800943023F00103C2F89430FFF709F9054670
:101CD800354BD3F8943013F0020F06D0FFF700F914
:101CE800401B0228F4D9032065E1236813F0040F90
:101CF80000F081802C4B9B6D13F0805F36D12A4B0E
:101D08009A6D42F080529A659B6D03F0805301935F
:101D1800019B0125264B1B6813F4807F28D0A368FC
:101D2800012B39D0052B45D01F4BD3F8902022F03A
:101D38000102C3F89020D3F8902022F00402C3F8DF
:101D48009020A368002B43D0FFF7CAF80646164B2D
:101D5800D3F8903013F0020F4CD1FFF7C1F8801B75
:101D680041F288339842F2D9032024E10025D1E7D3
:101D78000F4A136843F480731360FFF7B1F80646FF
:101D88000B4B1B6813F4807FC9D1FFF7A9F8801BA0
:101D98000228F5D903200EE1034AD2F8903043F027
:101DA8000103C2F89030CCE7001002403C05002047
:101DB80000700040884BD3F8902042F00402C3F82A
:101DC8009020D3F8902042F00102C3F89020B8E7A1
:101DD800FFF786F80646804BD3F8903013F0020FD1
:101DE80008D0FFF77DF8801B41F288339842F2D97A
:101DF8000320E0E0E5B9236813F0200F35D0A3698C
:101E0800E3B1754AD2F8983043F00103C2F898302C
:101E1800FFF766F80546704BD3F8983013F0020FB9
:101E280023D1FFF75DF8401B0228F4D90320C2E054
:101E3800694A936D23F080539365DCE7664AD2F8CC
:101E4800983023F00103C2F89830FFF749F80546A7
:101E5800614BD3F8983013F0020F06D0FFF740F823
:101E6800401B0228F4D90320A5E0E369002B00F009
:101E7800A180594A926802F00C020C2A64D0022B05
:101E880013D0554A136823F080731360FFF728F8BE
:101E98000446514B1B6813F0007F4ED0FFF720F823
:101EA800001B0228F5D9032085E04B4A136823F06C
:101EB80080731360FFF714F80546474B1B6813F04F
:101EC800007F06D0FFF70CF8401B0228F5D9032045
:101ED80071E0414AD36841491940236A606A013870
:101EE80043EA0013A06A43EA0023206B4008013844
:101EF80043EA4053606B4008013843EA4063E06AB4
:101F080043EAC0631943D160136843F080731360D8
:101F1800D36843F08073D360FEF7E2FF04462E4B8C
:101F28001B6813F0007F06D1FEF7DAFF001B0228BA
:101F3800F5D903203FE000203DE0274AD168284B2F
:101F48000B40D360002036E0012B36D0224BDB68F3
:101F580003F00301226A914231D103F0F002616A71
:101F68000139B2EB011F2CD103F4FE42A16AB2EB96
:101F7800012F28D103F07842E16AB2EBC16F24D176
:101F880003F4C001226B5208013AB1EB425F1ED143
:101F980003F0C063626B5208013AB3EB426F18D189
:101FA800002008E001207047012004E0012002E041
:101FB800012000E0002002B070BD0120FBE70120F5
:101FC800F9E70120F7E70120F5E70120F3E7012011
:101FD800F1E70120EFE700BF001002400C809F01ED
:101FE800FCFFEEFE1E4B9B6803F00C03042B33D062
:101FF8001B4B9B6803F00C03082B2FD0184B9B68D6
:1020080003F00C030C2B01D000207047144BDA6846
:1020180002F00302DB68C3F303130133032A11D070
:102028001048B0FBF3F00E4BDB68C3F3062303FB49
:1020380000F00B4BDB68C3F3416301335B00B0FB7B
:10204800F3F070470848B0FBF3F0054BDB68C3F3C7
:10205800062303FB00F0ECE702487047024870478C
:10206800001002400024F40000127A00002800F05A
:10207800E680F8B50C460546744B1B6803F00F0361
:102088008B420BD2714A136823F00F030B43136082
:10209800136803F00F038B4240F0D3802E6816F0CC
:1020A80001065FD06B68032B2FD0022B4DD0684BF5
:1020B8001B6813F4806F00F0C680FFF793FF654B31
:1020C80098424DD9624A936823F0F00343F08003A5
:1020D800936080265E4A936823F0030369680B4384
:1020E8009360FEF7FDFE0746594B9B6803F00C030F
:1020F8006A68B3EB820F35D0FEF7F2FEC01B41F2DF
:1021080088339842F0D9032078E0514B1B6813F0CC
:10211800007F01D1012071E0FFF7C6FC4D4B9842CA
:102128001AD94B4B9B6813F0F00F05D02E6816F0A8
:102138000206CFD0AB688BB9454A936823F0F00309
:1021480043F0800393608026C4E7414B1B6813F477
:10215800003FB2D1012051E00026BBE70026B9E7D5
:102168000026B7E72B6813F0020F48D013F0040FCE
:1021780004D0374A936843F4E06393602B6813F004
:10218800080F06D0324A936823F47C5343F4E06383
:1021980093602F4A936823F0F003A9680B43936078
:1021A8002A4B1B6803F00F03A34230D82B6813F0A7
:1021B800040F06D0264A936823F4E063E9680B43CA
:1021C80093602B6813F0080F07D0214A936823F413
:1021D8006053296943EAC1039360FFF703FF1C4B6F
:1021E8009B68C3F303131C4AD35C03F01F03D84056
:1021F8001A4B18601A4B186800F0ACFDF8BD802E19
:10220800CED1134A936823F0F0039360C8E70F4ACE
:10221800136823F00F0323431360FEF761FE06469D
:102228000A4B1B6803F00F03A342BFD0FEF758FE0A
:10223800801B41F288339842F2D90320DEE701205F
:1022480070470120DAE70120D8E700BF00200240EC
:102258000010024000B4C404A45500084005002042
:102268003C050020014B1868704700BF400500205E
:1022780008B5FFF7F7FF054B9B68C3F30223044A31
:10228800D35C03F01F03D84008BD00BF0010024014
:102298009C5500080F2303600B4B9A6802F0030259
:1022A80042609A6802F0F00282609A6802F4E06282
:1022B800C2609B68DB0803F4E0630361034B1B689F
:1022C80003F00F030B60704700100240002002402B
:1022D8007047000090F83D30DBB2012B3AD1022361
:1022E80080F83D300268D36843F00103D360036887
:1022F8001B4A934220D0B3F1804F1DD0A2F59432EF
:10230800934219D002F58062934215D002F580629B
:10231800934211D002F5943293420DD002F54062F7
:10232800934209D002F58052934205D01A6842F0D0
:1023380001021A600020704799680A4A0A40062A72
:102348000AD0B2F5803F09D01A6842F001021A603B
:102358000020704701207047002070470020704718
:10236800002C014007000100704770477047704714
:1023780070B505460368DE681C6914F0020F10D0BA
:1023880016F0020F0DD06FF002021A6101230377D5
:1023980003689B6913F0030F7CD0FFF7E6FF002367
:1023A8002B7714F0040F12D016F0040F0FD02B68FF
:1023B8006FF004021A6102232B772B689B6913F4D0
:1023C800407F6DD02846FFF7D0FF00232B7714F00D
:1023D800080F12D016F0080F0FD02B686FF0080204
:1023E8001A6104232B772B68DB6913F0030F5ED087
:1023F8002846FFF7BAFF00232B7714F0100F12D0EE
:1024080016F0100F0FD02B686FF010021A61082316
:102418002B772B68DB6913F4407F4FD02846FFF7F2
:10242800A4FF00232B7714F0010F02D016F0010F40
:102438004BD114F4025F02D016F0800F4DD114F482
:10244800807F02D016F0800F4FD114F0400F02D0D9
:1024580016F0400F51D114F0200F02D016F0200FC3
:1024680053D114F4801F02D016F4801F55D114F4F0
:10247800001F02D016F4001F57D114F4800F02D0A9
:1024880016F4800F59D114F4000F02D016F4000F7F
:102498005BD170BDFFF768FF2846FFF767FF7EE74F
:1024A8002846FFF761FF2846FFF760FF8DE72846BB
:1024B800FFF75AFF2846FFF759FF9CE72846FFF722
:1024C80053FF2846FFF752FFABE72B686FF0010276
:1024D8001A61284600F092FCABE72B686FF40252B1
:1024E8001A61284600F0DFF8A9E72B686FF48072BC
:1024F8001A61284600F0D8F8A7E72B686FF0400269
:102508001A612846FFF733FFA5E72B686FF0200212
:102518001A61284600F0C6F8A3E72B686FF480120A
:102528001A61284600F0C1F8A1E72B686FF4001281
:102538001A61284600F0BAF89FE72B686FF480020A
:102548001A61284600F0B3F89DE72B686FF4000283
:102558001A61284600F0ACF89BE700000368384A87
:10256800904216D0B0F1804F13D0A2F59432904229
:102578000FD002F5806290420BD002F58062904243
:1025880007D002F59432904203D002F5E05290420F
:1025980003D123F070034A681343294A904222D09A
:1025A800B0F1804F1FD0A2F5943290421BD002F5B3
:1025B8008062904217D002F58062904213D002F5F3
:1025C800943290420FD002F5406290420BD002F54F
:1025D8008062904207D002F58062904203D002F5F3
:1025E8000062904203D123F44073CA68134323F076
:1025F80080034A6913438A68C2620A688262104A81
:10260800904213D002F5006290420FD002F540626A
:1026180090420BD002F58062904207D002F58062AA
:10262800904203D002F50062904201D10A69026328
:10263800026842F0040202600122426103607047AE
:10264800002C014060B310B5044690F83D3013B338
:10265800022384F83D30214651F8040BFFF77EFF32
:10266800012384F8483084F83E3084F83F3084F8F9
:10267800403084F8413084F8423084F8433084F89C
:10268800443084F8453084F8463084F8473084F87C
:102698003D30002010BD80F83C30FFF719FED7E729
:1026A8000120704770477047704770477047704700
:1026B8007047026852E8003F23F4907342E8003103
:1026C8000029F6D1026802F1080353E8003F23F01D
:1026D800805323F00103083242E800310029F1D188
:1026E800C36E012B06D02023C0F88C300023C366AC
:1026F80043677047026852E8003F23F0100342E83E
:1027080000310029F6D1EEE7D0F88830212B00D02F
:102718007047B0F856309BB293B9026852E8003F50
:1027280023F0800342E800310029F6D1026852E81C
:10273800003F43F0400342E800310029F6D17047DA
:10274800036D1A7803689A62036D01330365B0F864
:1027580056309BB2013B9BB2A0F85630D8E7D0F870
:102768008830212B00D07047B0F856309BB293B90F
:10277800026852E8003F23F0800342E80031002954
:10278800F6D1026852E8003F43F0400342E80031C6
:102798000029F6D17047036D1B880268C3F308034C
:1027A8009362036D02330365B0F856309BB2013B68
:1027B8009BB2A0F85630D6E7D0F88830212B00D04D
:1027C8007047B0F86A3017E0026802F1080353E86E
:1027D800003F23F40003083242E800310029F3D116
:1027E800026852E8003F43F0400342E80031002904
:1027F800F6D17047013B9BB2002BE1D0B0F85620D0
:1028080092B2002AE0D00268D16911F0800FF1D0AD
:10281800016D09789162026D01320265B0F85620A7
:1028280092B2013A92B2A0F85620E3E7D0F8883085
:10283800212B00D07047B0F86A3017E0026802F127
:10284800080353E8003F23F40003083242E800314C
:102858000029F3D1026852E8003F43F0400342E800
:1028680000310029F6D17047013B9BB2002BE1D023
:10287800B0F8562092B2002AE0D00268D16911F06F
:10288800800FF1D0016D0988C1F308019162026DD2
:1028980002320265B0F8562092B2013A92B2A0F81C
:1028A8005620E1E7D0F88830202B43D1002943D0C7
:1028B800002A43D00165A0F85420A0F85620002330
:1028C8008367C0F890302123C0F88830436EB3F195
:1028D800005F10D08368B3F5805F25D0184B8367FD
:1028E800026852E8003F43F0800342E800310029C3
:1028F800F6D1002070478368B3F5805F0ED0114B86
:102908008367026802F1080353E8003F43F40003B9
:10291800083242E800310029F3D1EAE70369002BC5
:10292800EDD1094B8367ECE70369002BD6D1074B40
:102938008367D5E702207047012070470120704760
:1029480011270008C1270008352800086727000854
:1029580008B5026852E8003F23F0400342E800311E
:102968000029F6D12023C0F888300023836702F0BD
:10297800EFFC08BD704708B5806A0023A0F85E30F8
:10298800FFF7F8FF08BD704770B504460268D369C1
:102998001068916840F60F0C13EA0C0F0DD113F074
:1029A800200F10D010F0200F02D111F0805F0AD054
:1029B800636F93B3204698472FE09D4D0D402DD16E
:1029C8009C4E30422AD1E56E012D00F0C08013F4F0
:1029D800801F03D011F4800F40F06C8113F0800F3A
:1029E80007D010F0800F40F06C8111F4000F40F018
:1029F800688113F0400F03D010F0400F40F0688159
:102A080013F4000F03D010F0804F40F0658113F0ED
:102A1800807F02D00028C0F2638170BD13F0010FDF
:102A280009D010F4807F06D001261662D4F89020D1
:102A38003243C4F8902013F0020F0BD011F0010FAD
:102A480008D0226802261662D4F8902042F00402C8
:102A5800C4F8902013F0040F0BD011F0010F08D028
:102A6800226804261662D4F8902042F00202C4F8C4
:102A7800902013F0080F0BD010F0200F00D13DB1BB
:102A8800226808251562D4F890202A43C4F89020BB
:102A980013F4006F0CD010F0806F09D022684FF447
:102AA80000651562D4F8902042F02002C4F8902006
:102AB800D4F89020002AB0D013F0200F09D010F0DD
:102AC800200F02D111F0805F03D0636F0BB1204655
:102AD8009847D4F8902023689B6813F0400F02D1E0
:102AE80012F0280F2CD02046FFF7E3FD23689B68DF
:102AF80013F0400F20D0226802F1080353E8003F8A
:102B080023F04003083242E800310029F3D1D4F819
:102B180080306BB1484A9A63D4F88000FEF702FC13
:102B280000283FF47AAFD4F88000836B984774E7A5
:102B38002046FFF71FFF70E72046FFF71BFF6CE7F3
:102B48002046FFF717FF0023C4F8903065E713F01D
:102B5800100F3FF43CAF10F0100F3FF438AF1023C4
:102B6800136223689B6813F0400F67D0D4F8801075
:102B78000A6853689BB2002B4AD0B4F85C009842AC
:102B880046D9A4F85E300B681B6813F0200F32D1C9
:102B9800226852E8003F23F4807342E8003100299C
:102BA800F6D1226802F1080353E8003F23F001033D
:102BB800083242E800310029F3D1226802F1080303
:102BC80053E8003F23F04003083242E8003100296F
:102BD800F3D12023C4F88C300023E366226852E83E
:102BE800003F23F0100342E800310029F6D1D4F861
:102BF8008000FEF761FB02232367B4F85C10B4F889
:102C08005E309BB2C91A89B22046FFF7BCFE04E7C2
:102C1800B4F85C1099427FF400AF136813F0200FEA
:102C28003FF4FBAE022323672046FFF7ACFEF4E631
:102C380001000010200100047F290008B4F85C108E
:102C4800B4F85E309BB2C91A89B2B4F85E309BB250
:102C5800002B3FF4E2AE00293FF4DFAE226852E8D1
:102C6800003F23F4907342E800300028F6D1226830
:102C780002F1080353E8003F23F0805323F00103D7
:102C8800083242E800300028F1D12023C4F88C3003
:102C98000023E3666367226852E8003F23F01003CD
:102CA80042E800300028F6D1022323672046FFF7C8
:102CB8006AFEB2E64FF480131362204600F014F85F
:102CC800ABE6A36F002B3FF4A8AE20469847A4E6D6
:102CD8002046FFF73DFEA0E6204600F007F89CE6F8
:102CE800204600F002F898E67047704770470000E9
:102CF800054BD3F8882042F47002C3F888204FF0BF
:102D080000629A60704700BF00ED00E072B6FEE70F
:102D180000B583B00E4B1A6E42F001021A661A6EA5
:102D280002F001020092009A9A6D42F080529A6570
:102D38009B6D03F080530193019BFEF7ADFE0022CB
:102D48000F216FF00100FEF7A3FA03B05DF804FB52
:102D58000010024030B589B00446002201463620F2
:102D6800FEF796FA3620FEF7A3FA1F4B9A6D42F04B
:102D780010029A659B6D03F010030193019B02A951
:102D880003A8FFF787FA069BC3B9FFF771FA034652
:102D9800164AA2FB03239B0C013B1548154A026007
:102DA80040F2E732C2604360002303618360FFF7AB
:102DB80049FC054630B1284609B030BDFFF758FA3E
:102DC8004300E5E70A48FFF785FA05460028F2D1EF
:102DD8000F2C01D90125EEE7002221463620FEF707
:102DE80057FA054B1C60E6E70010024083DE1B43E0
:102DF8001C1B0020001000403C05002008B5FEF711
:102E080063F808BD08B50248FFF7B2FA08BD00BF6D
:102E18001C1B002000F1080343604FF0FF32826062
:102E2800C360036100230360704700230361704798
:102E380043684B609A688A605160996008610368CA
:102E480001330360704730B40D68B5F1FF3F11D00E
:102E580000F108031C465B681A68AA42FAD963683D
:102E68004B6099608C60616008610368013303609E
:102E780030BC70470469F2E70369416882688A6078
:102E8800416851605A68824205D000220261186880
:102E980001381860704782685A60F6E710B5044632
:102EA80001F0D2FDA36B23B9012401F0EFFD204608
:102EB80010BD0024F9E770B504461546866B026C10
:102EC8005AB903681BB100200136A66370BD80683B
:102ED80001F07CFA0023A360F6E76DB94068FDF7BE
:102EE800CFF96368226C13446360A268934219D3D4
:102EF800236863602846E7E7C068FDF7C1F9E3681F
:102F0800226C51429B1AE3602268934202D2A36862
:102F18000B44E360022D01D00020D5E726B1013E25
:102F28000020D1E72846CFE70020CDE70346026C12
:102F38006AB110B50846D9681144D9609C68A142A5
:102F480001D31968D960D968FDF79AF910BD70479F
:102F580070B582B00190846C64B1A26BE36B9A4245
:102F680011D34FF0500383F31188BFF36F8FBFF372
:102F78004F8FFEE74FF0500383F31188BFF36F8F35
:102F8800BFF34F8FFEE7A26B934203D80025284674
:102F980002B070BD94F8456076B2002201A92046BF
:102FA800FFF789FF0546B6F1FF3F0AD1636A002B98
:102FB800EDD004F1240001F003F90028E7D0012541
:102FC800E5E700F025FE8642E1D27F2E04D0731C8F
:102FD8005BB284F84530DAE74FF0500383F3118889
:102FE800BFF36F8FBFF34F8FFEE738B5054601F08B
:102FF8002BFD95F8454064B208E06B6AB3B105F162
:10300800240001F0DDF870B9013C64B2002C0DDD3C
:10301800AB6C002BF1D02846FFF79AFF0028F3D0BD
:1030280001F09AF9F0E701F097F9EDE7FF2385F849
:10303800453001F02BFD01F007FD95F8444064B2DE
:1030480001E0013C64B2002C0ADD2B6943B105F1B3
:10305800100001F0B5F80028F3D001F07DF9F0E791
:10306800FF2385F8443001F011FD38BD38B590B123
:103078000D460446C36B2BB1026C0021A2FB03234F
:1030880093B999B14FF0500383F31188BFF36F8F51
:10309800BFF34F8FFEE74FF0500383F31188BFF360
:1030A8006F8FBFF34F8FFEE70121EAE701F0CCFCF9
:1030B8002368E26B216C01FB0230A0600020A06352
:1030C8006360013A02FB0133E360FF2384F8443074
:1030D80084F84530B5B923691BB901F0D7FC012044
:1030E80038BD04F1100001F06BF80028F5D04FF05E
:1030F800E0234FF08052C3F8042DBFF34F8FBFF386
:103108006F8FEAE704F11000FFF784FE04F1240052
:10311800FFF780FEE1E710B5029C0B4649B9246031
:10312800E063236401212046FFF7A0FF0023A36486
:1031380010BD2260F4E773B110B584B01C4608B125
:1031480092B199B94FF0500383F31188BFF36F8F91
:10315800BFF34F8FFEE74FF0500383F31188BFF39F
:103168006F8FBFF34F8FFEE70029EBD14C230393FA
:10317800039B4C2B08D04FF0500383F31188BFF307
:103188006F8FBFF34F8FFEE7039B00949DF81830B5
:10319800FFF7C1FF204604B010BDA0B12DE9F047EC
:1031A8000F4616461C460546B1B1022C20D1EB6BE2
:1031B800012B1DD04FF0500383F31188BFF36F8F9D
:1031C800BFF34F8FFEE74FF0500383F31188BFF32F
:1031D8006F8FBFF34F8FFEE7036C002BE5D04FF0E6
:1031E800500383F31188BFF36F8FBFF34F8FFEE750
:1031F80001F0F6FDEFF311884FF0500383F31188C7
:10320800BFF36F8FBFF34F8FAA6BEB6B9A4206D356
:10321800022C04D0002088F31188BDE8F08795F8C7
:1032280045904FFA89F9D5F838A0224639462846FC
:10323800FFF741FEB9F1FF3F1BD1AB6C63B1022C24
:1032480002D1BAF1000F2BD12846FFF781FE48B30F
:1032580056B301203060DEE76B6A0BB90120DAE76C
:1032680005F1240000F0ACFF00B30EB3012030607C
:10327800D1E700F0CDFC81451CD2B9F17F0F06D013
:1032880009F101035BB285F845300120C3E74FF02F
:10329800500383F31188BFF36F8FBFF34F8FFEE79F
:1032A8000120B8E70120B6E70120B4E70120B2E722
:1032B8000120B0E70120AEE7F0B585B0019290B1EA
:1032C8000F460446C1B101F071F8064600BB019BE8
:1032D800002B5ED04FF0500383F31188BFF36F8F3C
:1032E800BFF34F8FFEE74FF0500383F31188BFF30E
:1032F8006F8FBFF34F8FFEE7036C002BE3D04FF0C7
:10330800500383F31188BFF36F8FBFF34F8FFEE72E
:1033180000263EE039462046FFF708FE013DA5633A
:10332800236923B901F0B2FB012005B0F0BD04F117
:10333800100000F045FF0028F4D04FF0E0234FF0D4
:103348008052C3F8042DBFF34F8FBFF36F8FE9E7A7
:1033580001F09CFB0020E8E702A800F0ADFF012681
:1033680021E0002384F8443029E0002384F8453024
:103378002BE02046FFF739FE00F050FD09E020461B
:10338800FFF733FE00F04AFD2046FFF787FD0028CF
:103398003FD101F059FBA56B002DBBD1019B002B40
:1033A800D6D0002ED8D001F071FB00F01BFC01F044
:1033B8004BFB94F844305BB2B3F1FF3FD1D094F8A3
:1033C80045305BB2B3F1FF3FCFD001F05FFB01A9FD
:1033D80002A800F07DFF0028D1D12046FFF75EFD4E
:1033E8000028C6D0019904F1240000F0A7FE204669
:1033F800FFF7FBFD00F012FD0028CAD14FF0E023D3
:103408004FF08052C3F8042DBFF34F8FBFF36F8F77
:10341800BFE7002089E72DE9F843B0B10E46904692
:103428000446D9B101F0DCFCEFF311854FF05003ED
:1034380083F31188BFF36F8FBFF34F8FA76BCFB99B
:10344800002085F31188BDE8F8834FF0500383F31B
:103458001188BFF36F8FBFF34F8FFEE7036C002B0C
:10346800E0D04FF0500383F31188BFF36F8FBFF3A1
:103478004F8FFEE794F844904FFA89F93146204679
:10348800FFF754FD7B1EA363B9F1FF3F0FD12369FA
:103498000BB90120D5E704F1100000F091FEE8B166
:1034A800B8F1000F1CD00120C8F80000C9E700F0EF
:1034B800AFFB814516D2B9F17F0F06D009F10103A0
:1034C8005BB284F844300120BBE74FF0500383F32C
:1034D8001188BFF36F8FBFF34F8FFEE70120B0E76E
:1034E8000120AEE70120ACE728B110B4044631B39F
:1034F800002003460DE04FF0500383F31188BFF31B
:103508006F8FBFF34F8FFEE70E4800EBC30014E048
:103518000133072B10D80B4A02EBC3025268A242B0
:10352800F2D00028F4D1074A52F83320002AEFD10C
:10353800044800EBC300EBE708B1016044605DF8A4
:10354800044B7047681B002070B504460D461646AC
:1035580001F07AFA94F844305BB2B3F1FF3F0DD032
:1035680094F845305BB2B3F1FF3F0BD001F08EFA0F
:10357800A36B5BB12046FFF738FD70BD002384F8CC
:103588004430EDE7002384F84530EFE7324629461A
:1035980004F1240000F0EAFDECE700000B4B1B6887
:1035A800012B0FD901220A4B1B68D86A60B9094B55
:1035B8001B68012B09D842B9074B1868074B1B68D1
:1035C800C01A70470022EEE700207047C81B002091
:1035D800D01C0020441C0020B01B0020CC1B002065
:1035E800074B1B681B6823B9064B4FF0FF321A6064
:1035F8007047034B1B68DB681A68024B1A607047F8
:10360800181C0020B01B00202DE9F0410746984601
:10361800069E089C206B02F18043013B00EB83006F
:1036280020F0070571B10B4600220F2A07D8995CD4
:1036380004EB020C8CF8341009B10132F5E70023D1
:1036480084F84330062E08D94FF0500383F31188CD
:10365800BFF36F8FBFF34F8FFEE7E6626664201DEE
:10366800FFF7E3FB04F11800FFF7DFFB2461C6F165
:103678000706A66164624FF49072002104F15000BD
:10368800FCF7A6FD174B636503F16802A265D0330A
:10369800E36501220023C4E93A2343F20E33A4F878
:1036A800F0304AF6CD33A4F8F23041F23423A4F8CE
:1036B800F4304EF26D63A4F8F6304DF6EC63A4F8DE
:1036C800F8300523A4F8FA300B23A4F8FC3042465E
:1036D8003946284601F0A2F92060079B03B11C6017
:1036E800BDE8F081640B00202DE9F04186B00D9F04
:1036F800AFB180460E4615461C460E9BC3B14FF42B
:10370800BC730593059BB3F5BC7F1AD04FF05003EB
:1037180083F31188BFF36F8FBFF34F8FFEE74FF02E
:10372800500383F31188BFF36F8FBFF34F8FFEE70A
:103738004FF0500383F31188BFF36F8FBFF34F8FA0
:10374800FEE7059B4FF4BC7200210E98FCF740FD84
:103758000E9B1F63002303930E9B02930F9B019301
:103768000C9B009323462A4631464046FFF74CFF00
:103778000E9806B0BDE8F08138B5002407E004EBE8
:10378800840293000E481844FFF744FB0134062CCA
:10379800F5D90C4D2846FFF73DFB0B4C2046FFF7AB
:1037A80039FB0A48FFF736FB0948FFF733FB09489E
:1037B800FFF730FB084B1D60084B1C6038BD00BF8D
:1037C800441C0020301C00201C1C0020001C002071
:1037D800EC1B0020D41B0020181C0020141C002007
:1037E80010B5044601F030F92A4A13680133136012
:1037F800294B1B685BB1294B1B686BB9264B1B68AF
:10380800DA6AE36A9A4207D8234B1C6004E0224B29
:103818001C601368012B39D0214A136801331360E7
:10382800E36A01229A401F49086802430A601E4A57
:1038380003EB830302EB83035B68A3609868E06093
:10384800211D41609960E36A03EB830102EB81006B
:10385800606152F82110013103EB830342F8231011
:1038680001F014F90D4B1B687BB10B4B1B68DA6A2E
:10387800E36A9A4209D24FF0E0234FF08052C3F82E
:10388800042DBFF34F8FBFF36F8F10BDFFF774FF89
:10389800C2E700BFD01B0020D01C0020C41B0020A2
:1038A800B41B0020C81B0020441C002008B5503061
:1038B800FCF780FD08BD00000F4B1B68D3B110B5A5
:1038C80001F0C2F80D4BDB68DC68201DFFF7D4FA65
:1038D8000B4A1368013B1360074A1368013B1360E6
:1038E80001F0D4F82046FFF7E1FF034B1B68002BDB
:1038F800E6D110BD704700BFE81B0020EC1B00207C
:10390800D01B00202DE9F04104460D46254B1E68CA
:10391800254B1F68254BD3F80080254B18680430C9
:10392800FFF7AAFA48B9224B1B68DB6A01229A40C2
:1039380020490B6823EA02030B60B4F1FF3F0DD066
:1039480034441B4B1B685C60A6421DD9184B196890
:1039580004314046FFF777FABDE8F081002DEFD03B
:10396800154A5168124B1868816018688C68C460E1
:103978001868043060601868043088601B685A61F1
:10398800136801331360E7E7094B196804313846B7
:10399800FFF759FA094B1B68A342DDD9074B1C6096
:1039A800DAE700BFCC1B0020181C0020141C0020E4
:1039B800D01C0020C81B0020D41B0020B01B0020F6
:1039C80010B586B00024059405AC03940A9C0294B3
:1039D800099C0194089C0094FFF786FE08B1FFF744
:1039E800FFFE059806B010BD30B58DB000230893D2
:1039F80009930A930B930E2B09D8174AD25C03F14B
:103A08003001694401F8102C0AB10133F3E730336F
:103A18006B44002403F8104C002C02DD01200DB08B
:103A280030BD00250595069507AA06A905A801F049
:103A380005FA059B0293069B019300952B46079A6E
:103A480008A90648FFF7BCFF054B43F8240008B156
:103A58000134E1E70020E2E7745500082D40000832
:103A6800AC1B002038B5044600F0EEFF002C38D01F
:103A7800251D2846FFF700FA68B9E36A03EB8301BE
:103A8800304A52F8212032B901229A402E490B6857
:103A980023EA02030B60A36A1BB104F11800FFF7C5
:103AA800EBF92A4A136801331360294B1B68A342B8
:103AB80024D00022274B1B6803B10ABB264A13688F
:103AC800013B1360FFF78CFD00F0E0FF2046FFF795
:103AD800EDFE204B1B681BB11D4B1B68A3421AD07F
:103AE80038BD1B4B1C68002CC2D14FF0500383F328
:103AF8001188BFF36F8FBFF34F8FFEE70122D9E71D
:103B080029461648FFF794F9154A136801331360DC
:103B180000F0BCFFDDE7134B1B6843B14FF05003C7
:103B280083F31188BFF36F8FBFF34F8FFEE74FF01A
:103B3800E0234FF08052C3F8042DBFF34F8FBFF33B
:103B48006F8FCDE7441C0020C81B0020B41B002049
:103B5800D01C0020C41B0020D01B0020EC1B002020
:103B6800E81B0020A81B002008B5FFF73DFF01282F
:103B780005D0B0F1FF3F20D0144B1B6808BD00F002
:103B88004FFE0128F5D14FF0500383F31188BFF39E
:103B98006F8FBFF34F8F0E4B1B6850330D4A136066
:103BA8000D4B4FF0FF321A600C4B01221A600C4B80
:103BB80000221A6001F04AF8DEE74FF0500383F361
:103BC8001188BFF36F8FBFF34F8FFEE7B45500081E
:103BD800D01C002000000020B01B0020C41B0020C7
:103BE800CC1B0020024A136801331360704700BFE2
:103BF800A81B0020014B1868704700BFCC1B002091
:103C080008B501F0EDF8014B186808BDCC1B002081
:103C1800014B1868704700BFD01B00201D4B1B6864
:103C280003441D4A12689A4208D24FF0500383F3A6
:103C38001188BFF36F8FBFF34F8FFEE710B50446AF
:103C4800154A12689A4204D0124A13682344136032
:103C580010BD124B1B6843B94FF0500383F3118812
:103C6800BFF36F8FBFF34F8FFEE740B94FF050039C
:103C780083F31188BFF36F8FBFF34F8FFEE700F018
:103C8800E3FE074A13680133136000F0FFFE013CAE
:103C9800DAE700BFCC1B0020B01B0020A81B0020C7
:103CA800C01B0020F8B5524B1B68002B40F09980D0
:103CB800504B1C6801341C60C4B94F4B1B681B680F
:103CC80043B14FF0500383F31188BFF36F8FBFF3F5
:103CD8004F8FFEE7484A1168484B18681060196012
:103CE800474A136801331360FFF77AFC454B1B689A
:103CF800A34211D90020444B1B68DB6A03EB830302
:103D08009A00424B9B58012B00D90120404B1B685D
:103D1800002B6BD0012069E0002037E0394B4FF0D1
:103D2800FF321A60E7E7374B1A60E4E7D968516059
:103D380042E000219962116801391160DA6A0121B3
:103D48009140344E376839433160304902EB820282
:103D58004FEA820C8C44DCF804209A609668DE6096
:103D680075609560DA6A02EB820C4FEA8C056E1872
:103D78005E614D5901354FEA8C0C41F80C50DA6AF6
:103D8800214B1B68DB6A9A4200D901201A4B1B6839
:103D98001B68002BC2D0184B1B68DB68DB685A68AD
:103DA8009442C0D35A699D68D968A9609D684D60DE
:103DB80051681D1DA942B9D0002159611168013906
:103DC80011609A6A002AB9D0DE69196AB160DE69A1
:103DD8004E60566803F118018E42AAD1196A5160E3
:103DE800A7E70D4A1368013313600020F8BD00BF30
:103DF800A81B0020CC1B0020181C0020141C00202D
:103E0800B81B0020B01B0020D01C0020441C002040
:103E1800BC1B0020C81B0020C01B002038B500F0C8
:103E280013FE4C4B1B6843B94FF0500383F31188C2
:103E3800BFF36F8FBFF34F8FFEE7464B1A68013A07
:103E48001A601B68002B7FD1434B1B683BB90024C9
:103E58007BE0196A516015E0D968516021E00023C0
:103E68003E4A1268002A4AD03C4BDB68DB689A6AF3
:103E7800D869196A8160D8694860506803F11801E7
:103E88008842E6D0002199621168013911605A69A7
:103E98009868D9688160986848605168181D81429F
:103EA800DAD000215961116801391160DA6A0121FB
:103EB80091402B4C2568294321602A4902EB820254
:103EC80001EB820252689A609468DC6060609060DE
:103ED800DA6A02EB820001EB80045C6151F8200091
:103EE800013002EB820241F82200D96A1E4A1268A8
:103EF800D26A9142B4D91D4A01211160B0E70BB1D1
:103F0800FFF76EFB1A4B1C6894B9184B1C68E4B198
:103F1800154B1B684FF0E0234FF08052C3F8042D77
:103F2800BFF34F8FBFF36F8F01240EE0013C07D022
:103F3800FFF7B8FE0028F9D00C4B01221A60F5E70C
:103F48000B4B00221A60E0E7002400F09FFD20469A
:103F580038BD00BFA81B0020D01B0020001C00207B
:103F6800C81B0020441C0020D01C0020BC1B0020C3
:103F7800C01B002038B558B10C46054689B94FF02A
:103F8800500383F31188BFF36F8FBFF34F8FFEE7A2
:103F98004FF0500383F31188BFF36F8FBFF34F8F38
:103FA800FEE7FFF71FFE1D4B18681D4B1B68012B12
:103FB80008D04FF0500383F31188BFF36F8FBFF31E
:103FC8004F8FFEE72B681C4483420BD9A34202D8CB
:103FD8002C60002410E0A04202D32C6000240BE0E7
:103FE8002C6004E0A34201D8A04214D22C60002126
:103FF800201AFFF787FC0124FFF710FF48B94FF09C
:10400800E0234FF08052C3F8042DBFF34F8FBFF366
:104018006F8F204638BD2C600024EDE7CC1B0020B4
:10402800A81B002008B505E0AFF30080FFF7B6FA3B
:10403800012810D8FFF740FC144B1B68012BF3D95B
:104048004FF0E0234FF08052C3F8042DBFF34F8F99
:10405800BFF36F8FE8E7FFF7C5FD0D4B1A680D4BEF
:104068001B689A4206D3FFF799FA01280BD8FFF785
:10407800D5FEDFE74FF0500383F31188BFF36F8F4E
:10408800BFF34F8FFEE700F02DFDF0E7441C002042
:10409800B01B0020CC1B0020224B1B681BB1224BFD
:1040A80001221A607047204B00221A601F4B1B68C0
:1040B800B3FA83F3DBB2C3F11F0303EB83018A0076
:1040C8001B498A5842B94FF0500383F31188BFF354
:1040D8006F8FBFF34F8FFEE7154803EB83018A000C
:1040E800024451684968516003EB830C4FEA8C0223
:1040F8000832024491420ED003EB83039A000C4B22
:1041080013445B68DA680B4B1A601A681B685033F3
:10411800094A136070476246910002460A44D16812
:104128005160E9E7A81B0020BC1B0020C81B002029
:10413800441C0020D01C00200000002058B110B5FD
:104148000C46094A11681831FEF77DFE0121204608
:10415800FFF7D8FB10BD4FF0500383F31188BFF36E
:104168006F8FBFF34F8FFEE7D01C002038B5D8B152
:104178008C46114605464268104B1868C26118689B
:104188009468046218681830606018681830906085
:104198001B689D622B6801332B6009B14FF0FF3C0F
:1041A8006046FFF7AFFB38BD4FF0500383F311882B
:1041B800BFF36F8FBFF34F8FFEE700BFD01C002007
:1041C80038B5C368DC68002C4DD0A36AE169226A5F
:1041D8008A60E16951605A6804F118018A424BD03B
:1041E8000022A2621A68013A1A602D4B1B68002B44
:1041F80048D16369A168E2688A60A16851605A6819
:10420800211D8A423BD0002262611A68013A1A6075
:10421800E36A01229A40234805682A430260224A39
:1042280003EB830302EB83035B68A3609868E06099
:1042380041609960E36A03EB830102EB81006061EE
:1042480052F82110013103EB830342F82310FFF7E2
:10425800C7F9E26A154B1B68DB6A9A421ED901202E
:10426800134B186038BD4FF0500383F31188BFF328
:104278006F8FBFF34F8FFEE7226A5A60B0E7E2689C
:104288005A60C0E70B4B5A68E2619068206241604F
:104298009160A3621A6801321A60DAE70020E1E748
:1042A800A81B0020C81B0020441C0020D01C002094
:1042B800BC1B0020001C0020034B1B680360034B41
:1042C8001B684360704700BFB81B0020CC1B002050
:1042D800F8B5B8B10C460546E9B100F0B5FB1C4B82
:1042E80019686B68C81A2268B2F1FF3F2AD0194EC4
:1042F80036682F68B74217D08B4215D80023236041
:10430800012420E04FF0500383F31188BFF36F8F2F
:10431800BFF34F8FFEE74FF0500383F31188BFF3CD
:104328006F8FBFF34F8FFEE7824203D800232360CD
:10433800012408E05B1A134423602846FFF7BCFFFA
:10434800002400E0002400F0A1FB2046F8BD00BFD7
:10435800CC1B0020B81B0020014B01221A607047BB
:10436800BC1B00200C4B1B6873B90C4B1B686BB94A
:104378000B4B1B6863B90B4B1A680B4B1B68013B53
:104388009A4207D0012070470020704700207047EC
:104398000020704702207047001C0020BC1B002032
:1043A800C01B0020D41B0020D01B0020054B1B681D
:1043B80033B1054B1B680BB10020704702207047D2
:1043C80001207047C41B0020A81B0020002854D0DF
:1043D80070B504462B4B1B68834208D04FF050033E
:1043E80083F31188BFF36F8FBFF34F8FFEE7836CA2
:1043F80043B94FF0500383F31188BFF36F8FBFF3B6
:104408004F8FFEE7013B8364C16A426C914236D00C
:104418000BB1002070BD051D2846FEF72DFD38B9EB
:10442800E36A01229A4018490B6823EA02030B60E9
:10443800636CE362C3F10702A261012000FA03F290
:1044480011490E6832430A60104A03EB830302EBFA
:1044580083035B68A3609968E1604D609D60E36ACF
:1044680003EB830102EB8105656152F821100144D9
:1044780003EB830342F82310CCE7002070470020A9
:10448800C8E700BFD01C0020C81B0020441C002027
:10449800064B1A6813682BB90123036023B9D36844
:1044A800186870470023F8E700207047D01D0020E7
:1044B80008B54160006191420CD8D21A83699A42CA
:1044C80001D3012008BD011D094B1868FEF7BBFC8C
:1044D8000020F7E79A4201D2994206D2011D054B06
:1044E8001868FEF7B0FC0020ECE70120EAE700BFFF
:1044F800CC1D0020D01D002070B504460D46164680
:1045080004E0A3691D44236A20469847A1692B4605
:10451800324629442046FFF7CBFF0028F1D170BD71
:1045280070B505460E460D4B1B68DB68DC68201D20
:10453800FEF7A2FC94F8243013F0040F07D123F0FF
:10454800010384F82430236A2046984770BD324618
:1045580029462046FFF7D0FFF5E700BFD01D002011
:1045680008B505E0DB684FF0FF311868FFF7D8FFA2
:10457800054B1B681A68002AF4D1044A10680249DE
:104588000860136008BD00BFD01D0020CC1D0020AE
:1045980038B50546FFF72EFB0446074B1B688342D8
:1045A80005D800232B60044B1C60204638BDFFF75C
:1045B800D7FF01232B60F6E7C01D002070B582B03D
:1045C80006460C46FFF70EFB01A8FFF7E1FF019B2B
:1045D80033BB0546E4B9B04213D22246711B124BD5
:1045E8001868FEF7B1FFFFF719FCD8B94FF0E023C0
:1045F8004FF08052C3F8042DBFF34F8FBFF36F8F76
:1046080010E0FFF70BFC29463046FFF789FF09E069
:10461800064A126812680AB90124DEE71C46DCE77C
:10462800FFF7FCFB02B070BDC81D0020CC1D0020A8
:1046380030B587B0002302930393049305932DE0CC
:1046480005990498039B984733E094F8243043F085
:10465800010384F82430039BA169024619442046CB
:10466800FFF726FFD0B194F8243013F0040F07D1D8
:1046780023F0010384F82430236A204698470DE08C
:10468800A3692A46039919442046FFF735FFF3E743
:1046980094F8243023F0010384F82430002202A97E
:1046A800294B1868FEF708FE00284BD0029B002B08
:1046B800C6DB029B002BF1DB049C002CEED0636967
:1046C80013B1201DFEF7D8FB01A8FFF761FF0546CF
:1046D800029901390829E1D801A353F821F000BF54
:1046E8005346000853460008994600080D4700083D
:1046F8003F470008534600085346000899460008FB
:104708000D47000894F8243043F0010384F824305E
:104718000399A16131B10346024601442046FFF7DF
:10472800C7FEBBE74FF0500383F31188BFF36F8FC9
:10473800BFF34F8FFEE794F8243023F0010384F889
:104748002430ABE707B030BDC81D002000B583B0EA
:1047580001A8FFF79DFE0199FFF730FFFFF768FFFB
:10476800F6E7000030B583B000F06EF9114B1B6816
:104778001BB100F08BF903B030BD0F4D2846FEF792
:1047880049FB0E4C2046FEF745FB0D4B1D600D4BBB
:104798001C60002300930C4B0C4A10210A20FEF7E2
:1047A800CAFC044B18600028E3D00949FEF79CFEB8
:1047B800DFE700BFC81D0020E81D0020D41D002031
:1047C800D01D0020CC1D0020D41C0020201D00205E
:1047D8007C5500082DE9F041079F41B94FF050037F
:1047E80083F31188BFF36F8FBFF34F8FFEE7064641
:1047F80014461D468846FFF7B5FF3E60C7F8188087
:10480800FD61069B3B62381DFEF70FFB2CB197F844
:10481800243043F0040387F82430BDE8F081000019
:1048280010B588B0FFF79EFF124B1B68CBB1002470
:104838000594069407AA06A905A800F00BFB059B9A
:104848000293069B0193022300932346079A0A4981
:104858000A48FFF7B5F80A4B186010B1012008B0F4
:1048680010BD4FF0500383F31188BFF36F8FBFF370
:104878004F8FFEE7C81D00208455000855470008E3
:10488800C41D002010B584B08446282003900398E6
:10489800282808D04FF0500383F31188BFF36F8F97
:1048A800BFF34F8FFEE70398079860B10220079C7B
:1048B80084F824000194069800906046FFF78AFF68
:1048C800079804B010BD4FF0500383F31188BFF36D
:1048D8006F8FBFF34F8FFEE710B584B09C460F4B28
:1048E8001C68ACB1B8B1009101920290052908DCAE
:1048F8004FF0500383F31188BFF36F8FBFF34F8FCF
:10490800FEE70023624669462046FEF746FC00E0C3
:10491800002004B010BD0020FBE700BFC81D002028
:1049280082B0002301930D4B1B68B3F1FF3F08D001
:104938004FF0500383F31188BFF36F8FBFF34F8F8E
:10494800FEE74FF0500383F31188BFF36F8FBFF377
:104958004F8F019B002BFCD002B07047440500200C
:10496800064B19680868B0E8F04F80F30988BFF370
:104978006F8F4FF0000080F311887047D01C002023
:1049880008480068006880F308884FF0000080F34A
:10499800148862B661B6BFF34F8FBFF36F8F00DF25
:1049A80000BF000008ED00E0EFF30980BFF36F8F50
:1049B800144B1A681EF0100F08BF20ED108A20E96A
:1049C800F04F10602DE909004FF0500080F3118876
:1049D800BFF34F8FBFF36F8FFFF75EFB4FF0000001
:1049E80080F3118809BC19680868B0E8F04F1EF018
:1049F800100F08BFB0EC108A80F30988BFF36F8FDF
:104A080070470000D01C0020DFF80C00016841F45A
:104A1800700101607047000088ED00E04FF080737E
:104A280040F8043C21F0010140F8081C054B40F80F
:104A38000C3C40F8202C6FF0020340F8243C44382A
:104A4800704700BF294900084FF0500383F31188CD
:104A5800BFF36F8FBFF34F8F0B4A13680133136097
:104A6800012B00D070474FF0E023D3F8043D13F03A
:104A7800FF0FF7D04FF0500383F31188BFF36F8F08
:104A8800BFF34F8FFEE700BF44050020094B1B68AA
:104A980043B94FF0500383F31188BFF36F8FBFF30F
:104AA8004F8FFEE7013B034A13600BB983F311886C
:104AB800704700BF4405002008B54FF0500383F34A
:104AC8001188BFF36F8FBFF34F8FFFF7EBF828B153
:104AD8004FF0E0234FF08052C3F8042D002383F3F6
:104AE800118808BD10B5414B1C68844200D30446A8
:104AF80072B6BFF34F8FBFF36F8FFFF733FC08B960
:104B080062B610BD4FF0E02306221A619B690BB90B
:104B1800374B1B68601E364A126802FB00334FF0A1
:104B2800E022D2F8042D12F0806F08D04FF0E02276
:104B38004FF00071C2F8041D2D4A12689B1A2D4AC5
:104B480012689A4200D29B1A4FF0E022536100216A
:104B58009161116941F00101116124B1BFF34F8FD7
:104B680030BFBFF36F8F62B6BFF34F8FBFF36F8F46
:104B780072B6BFF34F8FBFF36F8F4FF0E02206215D
:104B88001161126912F4803F1FD0194A11684FF061
:104B9800E0229269D31A0B44013B164A12689A42E2
:104BA80001D2994200D24B1E4FF0E02253614FF0E0
:104BB800E02300229A6107221A610D4A1268013A1D
:104BC8005A61FFF72BF862B69BE74FF0E0218B693B
:104BD800074A126802FB04F4E01AB0FBF2F000FB8B
:104BE80002221B1B13444B61E1E700BF081E002093
:104BF8000C1E0020041E00200F4803680F49A1FB6B
:104C080003239B090E4A13606FF07F42B2FBF3F354
:104C18000C4A13600C4B5E221A604FF0E02200230E
:104C2800136193610368A1FB03139B09013B536163
:104C380007231361704700BF40050020D34D621061
:104C48000C1E0020081E0020041E00204FF0E02348
:104C5800D3F8002D5A4B9A4217D04FF0E023D3F8DF
:104C6800002D584B9A4219D04FF0E023D3F8083D55
:104C7800D96A554A91421AD04FF0500383F31188EC
:104C8800BFF36F8FBFF34F8FFEE74FF0500383F3EF
:104C98001188BFF36F8FBFF34F8FFEE74FF05003BC
:104CA80083F31188BFF36F8FBFF34F8FFEE79A6BC3
:104CB800464B9A4208D04FF0500383F31188BFF354
:104CC8006F8FBFF34F8FFEE730B583B0002301939A
:104CD8003F4B1A78D2B28DF80220FF221A701B7847
:104CE800DBB28DF803309DF8033003F05003394AE6
:104CF800137043B94FF0500383F31188BFF36F8FDC
:104D0800BFF34F8FFEE79DF80330DB4313F0500FDE
:104D180008D04FF0500383F31188BFF36F8FBFF3B0
:104D28004F8FFEE79DF8033013F0800F09D0019BE9
:104D3800013301939DF803305B00DBB28DF803303B
:104D4800F0E7019B082B36D0019BC3F10703224AE9
:104D58001360214A13681B02136003F4E0631360B5
:104D68009DF80230DBB21A4A13704FF0E024D4F8F1
:104D7800203D43F47F03C4F8203DD4F8203D43F0A0
:104D88007F43C4F8203D0025C4F81C5DFFF734FFBD
:104D9800124B1D60FFF738FED4F8343F43F0404310
:104DA800C4F8343FFFF7ECFDFFF776F9FFF7B8FDDD
:104DB800284603B030BD084B00221A60C9E700BF7F
:104DC80071C20F4170C20F4169490008B14900081A
:104DD80000E400E0001E0020FC1D00204405002027
:104DE800EFF305830F2B0FD9114A9B5CDBB2114AF5
:104DF80012789A4208D94FF0500383F31188BFF311
:104E08006F8FBFF34F8FFEE74FF0E023D3F80C3DD1
:104E180003F4E063084A1268934208D94FF050033C
:104E280083F31188BFF36F8FBFF34F8FFEE770478F
:104E3800F0E300E0001E0020FC1D0020034B03608F
:104E4800034B0B6080231360704700BF8825002048
:104E580088230020034B0360034B0B604FF48073DF
:104E68001360704710220020101E0020704786B083
:104E78004FF0E023D3F8282D0592D3F82C2D049277
:104E8800D3F8302D0392D3F83C2D0292D3F8342D69
:104E98000192D3F8383D009300BE06B07047000079
:104EA80010B503460C4A0D490D48006840B10C483E
:104EB80000680344521A934206D8094A136010BD89
:104EC8000748084C0460F2E7FBF7D4F90C230360A9
:104ED8004FF0FF30F3E700BF00000220000400009D
:104EE80000270020402700200020704730B583B0FD
:104EF8000446002301930368B3F1A04F27D000258F
:104F08001A4A934226D01A4A934226D0194A934203
:104F180026D0194A934226D02046FBF7E7FF009097
:104F2800002301AA69462846FEF737F92046FFF70D
:104F3800DBFF019B4BB14FF0E0234FF08052C3F8E9
:104F4800042DBFF34F8FBFF36F8F03B030BD0B4AF3
:104F58001568D5E70A4A1568D5E70A4A1568D5E7F6
:104F6800094A1568D5E7094B1D68D5E700010050C7
:104F780000040050000500500006005018270020CB
:104F880014270020102700200C27002008270020C5
:104F980008B5044B1868FBF7ADFF034B1868FBF71F
:104FA800A9FF08BD28060020B805002008B5024B57
:104FB8001868FBF79FFF08BD48050020026E014BEB
:104FC8001A6070470427002082B08DE80C0002B0F8
:104FD800704700002DE9F043A5B005460E46302283
:104FE800002118A8FBF7F4F80023179316F0010F17
:104FF80021D125B0BDE8F08304EB44028E4B03EBCE
:1050080042131B7C002B66D0EFF311874FF050033F
:1050180083F31188BFF36F8FBFF34F8F864800EB80
:105028004210002317AA18A98068FEF7B6F80028CE
:1050380039D087F3118822AB18AA40212846FCF7FB
:105048001FFA0028D5D1EC460DF1680EBEE80F0016
:10505800ACE80F00BEE80F00ACE80F009EE80300C4
:105068008CE8030018AB0CCB31462846FFF7ACFFA1
:105078002B68724A93423AD0714A934200F0898071
:10508800704A9342D7D100246F4B1B689C42D2D2FE
:1050980004EB44035B016D4AD258189B9A4200F016
:1050A80088800134F0E7DFF890814FEA440904EB87
:1050B800440308EB431300220BA99868FEF7ABF9E9
:1050C800A14408EB4918002317AA18A9D8F8080022
:1050D800FEF763F8ADE704EB4404574800EB4410CF
:1050E800002317AA18A98068FEF757F8A3E7002439
:1050F800574B1B689C429ED204EB44035B014E4A0B
:10510800D258189B9A423FF477AF0134F0E704EB8A
:105118004402504B03EB42131B7C73B3EFF311872C
:105128004FF0500383F31188BFF36F8FBFF34F8F96
:10513800484800EB4210002317AA18A98068FEF718
:105148002CF810B187F3118875E7DFF808814FEA6A
:10515800440904EB440308EB431300220BA99868A5
:10516800FEF759F9A14408EB4918002317AA18A912
:10517800D8F80800FEF711F8E4E704EB44043548D2
:1051880000EB4410002317AA18A98068FEF705F859
:1051980051E70024304B1B689C42BFF44CAF04EB32
:1051A80044035B012B4AD258189B9A42AFD0013472
:1051B800F0E704EB4402254B03EB42131B7C73B36B
:1051C800EFF311874FF0500383F31188BFF36F8F0C
:1051D800BFF34F8F1D4800EB4210002317AA18A9F0
:1051E8008068FDF7DAFF10B187F3118823E7DFF84D
:1051F8005C804FEA440904EB440308EB43130022A4
:105208000BA99868FEF707F9A14408EB4918002391
:1052180017AA18A9D8F80800FDF7BFFFE4E704EBC0
:1052280044040A4800EB4410002317AA18A9806810
:10523800FDF7B3FFFFE600BF1C2700200064004015
:1052480000680040006C0040B85500081C2700208A
:10525800C05500081C270020BC55000810B58CB0AC
:1052680004462C22002101A8FAF7B2FF23681A4A43
:10527800934207D0194A934212D0194A93421DD03B
:105288000CB010BD002201A9164B1868FEF7C3F830
:105298000128F5D10AAA01A92046FCF7C7F8EFE7CB
:1052A800002201A9104B1868FEF7B5F80128E7D1CC
:1052B8000AAA01A92046FCF7B9F8E1E7002201A9EA
:1052C8000A4B1868FEF7A7F80128D9D10AAA01A93C
:1052D8002046FCF7ABF8D3E70064004000680040C4
:1052E800006C004024270020202700201C270020D5
:1052F80008B5024B1868FCF770F908BD680700206C
:1053080008B5024B1868FCF768F908BD6807002063
:1053180008B5024B1868FCF760F908BD00070020C3
:1053280008B5024B1868FCF758F908BD00070020BB
:1053380008B5024B1868FCF750F908BD980600201C
:1053480008B5024B1868FCF748F908BD9806002014
:10535800F0B58BB007460023099303682C4A9342A3
:1053680011D000262B4A93420FD02B4A93420ED0DD
:105378002A4A93420DD02A4A93420CD0294A934292
:1053880022D0002413E0284EECE7284EEDE7284E03
:10539800EEE7284EEFE7284EF0E705F128030DEB7E
:1053A80003059DF8003005F8243C0134E4B2254695
:1053B800631C202B06D809AA69463068FEF72BF82B
:1053C8000128EAD026B91AE01C4EDAE70134E4B223
:1053D8001F2C07D809AA01AB19193068FEF71BF86A
:1053E8000128F3D06CB9099B4BB14FF0E0234FF083
:1053F8008052C3F8042DBFF34F8FBFF36F8F0BB0EC
:10540800F0BD224601A93846FDF74CFAEBE700BF8C
:10541800004C00400050004000380140004400406B
:1054280000480040008000403C270020382700202A
:1054380034270020302700202C2700202827002090
:1054480008B5024B1868FDF79FFA08BDC80A002086
:1054580008B5024B1868FDF797FA08BD300A002016
:1054680008B5024B1868FDF78FFA08BD98090020A7
:1054780008B5024B1868FDF787FA08BD0009002037
:1054880008B5024B1868FDF77FFA08BD68080020C8
:1054980008B5024B1868FDF777FA08BDD007002059
:1054A8000D488546FDF724FC0C480D490D4A00239C
:1054B80002E0D458C4500433C4188C42F9D30A4AC1
:1054C8000A4C002301E013600432A242FBD3FAF72E
:1054D800A7FFFBF7FBF9FEE7000002200000002011
:1054E800600B0020CC550008600B002040270020EE
:0454F800FEE70000CB
:1054FC00496E697420416C6C205461736B730000AD
:10550C00455854492043616C6C6261636B2044655F
:10551C006C617900526561642043617243414E2095
:10552C005461736B0000000052656164696E672002
:10553C00416C6C205377697463686573202620571F
:10554C00726974696E672043414E205461736B001D
:10555C005265616420436F6E74726F6C73204341AB
:10556C004E205461736B000049444C450000000010
:10557C00546D725100000000546D7220537663001C
:10558C000001020304050607080C10141820304013
:10559C0000000000010203040000000000000000F5
:1055AC0001020304060708090600000000000000C1
:0855BC000000000000000000E7
:0855C400C4ACFF7F01000000F0
:1055CC00080000200000000000000000640B002018
:1055DC00CC0B0020340C0020000000000000000068
:1055EC0000000000000000000000000000000000AF
:1055FC00000000000000000000000000000000009F
:10560C00000000000000000000000000000000008E
:10561C00000000000000000000000000000000007E
:10562C00000000000000000000000000000000006E
:10563C00000000000000000000000000000000005E
:10564C00000000000000000000000000000000004E
:10565C00000000000000000000000000000000003E
:10566C0001000000000000000E33CDAB34126DE6DB
:10567C00ECDE05000B000000000000000000000044
:10568C00000000000000000000000000000000000E
:10569C0000000000000000000000000000000000FE
:1056AC0000000000000000000000000000000000EE
:1056BC0000000000000000000000000000000000DE
:1056CC0000000000000000000000000000000000CE
:1056DC0000000000000000000000000000000000BE
:1056EC0000000000000000000000000000000000AE
:1056FC00280100202801002030010020300100206A
:10570C003801002038010020400100204001002019
:10571C0048010020480100205001002050010020C9
:10572C005801002058010020600100206001002079
:10573C006801002068010020700100207001002029
:10574C0078010020780100208001002080010020D9
:10575C008801002088010020900100209001002089
:10576C009801002098010020A0010020A001002039
:10577C00A8010020A8010020B0010020B0010020E9
:10578C00B8010020B8010020C0010020C001002099
:10579C00C8010020C8010020D0010020D001002049
:1057AC00D8010020D8010020E0010020E0010020F9
:1057BC00E8010020E8010020F0010020F0010020A9
:1057CC00F8010020F8010020000200200002002057
:1057DC000802002008020020100200201002002005
:1057EC0018020020180200202002002020020020B5
:1057FC002802002028020020300200203002002065
:10580C003802002038020020400200204002002014
:10581C0048020020480200205002002050020020C4
:10582C005802002058020020600200206002002074
:10583C006802002068020020700200207002002024
:10584C0078020020780200208002002080020020D4
:10585C008802002088020020900200209002002084
:10586C009802002098020020A0020020A002002034
:10587C00A8020020A8020020B0020020B0020020E4
:10588C00B8020020B8020020C0020020C002002094
:10589C00C8020020C8020020D0020020D002002044
:1058AC00D8020020D8020020E0020020E0020020F4
:1058BC00E8020020E8020020F0020020F0020020A4
:1058CC00F8020020F8020020000300200003002052
:1058DC000803002008030020100300201003002000
:1058EC0018030020180300202003002020030020B0
:1058FC002803002028030020300300203003002060
:10590C00380300203803002040030020400300200F
:10591C0048030020480300205003002050030020BF
:10592C00580300205803002060030020600300206F
:10593C00680300206803002070030020700300201F
:10594C0078030020780300208003002080030020CF
:10595C00880300208803002090030020900300207F
:10596C009803002098030020A0030020A00300202F
:10597C00A8030020A8030020B0030020B0030020DF
:10598C00B8030020B8030020C0030020C00300208F
:10599C00C8030020C8030020D0030020D00300203F
:1059AC00D8030020D8030020E0030020E0030020EF
:1059BC00E8030020E8030020F0030020F00300209F
:1059CC00F8030020F803002000040020000400204D
:1059DC0008040020080400201004002010040020FB
:1059EC0018040020180400202004002020040020AB
:1059FC00280400202804002030040020300400205B
:105A0C00380400203804002040040020400400200A
:105A1C0048040020480400205004002050040020BA
:105A2C00580400205804002060040020600400206A
:105A3C00680400206804002070040020700400201A
:105A4C0078040020780400208004002080040020CA
:105A5C00880400208804002090040020900400207A
:105A6C009804002098040020A0040020A00400202A
:105A7C00A8040020A8040020B0040020B0040020DA
:105A8C00B8040020B8040020C0040020C00400208A
:105A9C00C8040020C8040020D0040020D00400203A
:105AAC00D8040020D8040020E0040020E0040020EA
:105ABC00E8040020E8040020F0040020F00400209A
